:020000040800F2
:1000000000000220A9470008FD4100080542000841
:100010000D420008154200081D42000800000000C3
:100020000000000000000000000000002542000861
:100030003342000800000000414200084F4200081F
:10004000F9470008F9470008F9470008F947000890
:10005000F9470008F9470008F9470008F947000880
:10006000F9470008F9470008F9470008F947000870
:10007000F94700085D420008F9470008F947000801
:10008000F9470008F9470008F9470008F947000850
:10009000F9470008F9470008F9470008F947000840
:1000A000F9470008F9470008F9470008F947000830
:1000B00071420008F9470008F9470008F9470008AD
:1000C000F94700088542000899420008F9470008EE
:1000D000F9470008F9470008F9470008AD42000851
:1000E000F9470008F9470008F9470008F9470008F0
:1000F000F9470008F9470008F9470008F9470008E0
:10010000F9470008F9470008F9470008F9470008CF
:10011000F9470008F9470008F9470008F9470008BF
:10012000F9470008C1420008F9470008F9470008EC
:10013000F9470008F9470008F9470008F94700089F
:10014000F9470008F9470008F9470008F94700088F
:10015000F9470008F9470008F9470008D5420008A8
:10016000F9470008F9470008F9470008F94700086F
:10017000F9470008F9470008F947000800000000A7
:08018000F9470008F9470008E7
:1001900010B5054C237833B9044B13B10448AFF3C1
:1001A00000800123237010BDD40100200000000056
:1001B00074C6000808B5034B1BB103490348AFF3ED
:1001C000008008BD00000000D801002074C60008AF
:1001D00001F0FF01102A2BDB10F0070F08D010F8F8
:1001E000013B013A8B422DD010F0070F42B3F6D1FC
:1001F000F0B441EA012141EA014122F007047FF015
:1002000000070023F0E80256083C85EA010586EA6B
:10021000010685FA47F5A3FA87F586FA47F6A5FAA7
:1002200087F68EB9EED1F0BC01F0FF0102F00702B3
:1002300032B110F8013B013A83EA010313B1F8D15E
:100240000020704701387047002D06BF354603383F
:10025000073815F0010F07D1013015F4807F02BF78
:10026000013015F4C03F0130F0BC0138704700BFC9
:10027000034613F8012B002AFBD1181A01387047E6
:1002800081F0004102E000BF83F0004330B54FEA47
:1002900041044FEA430594EA050F08BF90EA020FB4
:1002A0001FBF54EA000C55EA020C7FEA645C7FEA47
:1002B000655C00F0E2804FEA5454D4EB5555B8BF6A
:1002C0006D420CDD2C4480EA020281EA030382EADB
:1002D000000083EA010180EA020281EA0303362D6D
:1002E00088BF30BD11F0004F4FEA01314FF4801C40
:1002F0004CEA113102D0404261EB410113F0004F52
:100300004FEA03334CEA133302D0524263EB430308
:1003100094EA050F00F0A780A4F10104D5F1200EA6
:100320000DDB02FA0EFC22FA05F2801841F1000101
:1003300003FA0EF2801843FA05F359410EE0A5F1D5
:1003400020050EF1200E012A03FA0EFC28BF4CF006
:10035000020C43FA05F3C01851EBE37101F00045BC
:1003600007D54FF0000EDCF1000C7EEB00006EEBC9
:100370000101B1F5801F1BD3B1F5001F0CD3490853
:100380005FEA30004FEA3C0C04F101044FEA4452AA
:1003900012F5800F80F09A80BCF1004F08BF5FEA31
:1003A000500C50F1000041EB045141EA050130BD11
:1003B0005FEA4C0C404141EB0101013C28BFB1F523
:1003C000801FE9D291F0000F04BF01460020B1FA6E
:1003D00081F308BF2033A3F10B03B3F120020CDA41
:1003E0000C3208DD02F1140CC2F10C0201FA0CF01F
:1003F00021FA02F10CE002F11402D8BFC2F1200C84
:1004000001FA02F120FA0CFCDCBF41EA0C01904039
:10041000E41AA2BF01EB0451294330BD6FEA040482
:100420001F3C1CDA0C340EDC04F11404C4F120026D
:1004300020FA04F001FA02F340EA030021FA04F37F
:1004400045EA030130BDC4F10C04C4F1200220FAD6
:1004500002F001FA04F340EA0300294630BD21FA14
:1004600004F0294630BD94F0000F83F4801306BFDA
:1004700081F480110134013D4EE77FEA645C18BFCE
:100480007FEA655C29D094EA050F08BF90EA020F65
:1004900005D054EA000C04BF1946104630BD91EA5D
:1004A000030F1EBF0021002030BD5FEA545C05D160
:1004B0004000494128BF41F0004130BD14F580049F
:1004C0003CBF01F5801130BD01F0004545F0FE4113
:1004D00041F470014FF0000030BD7FEA645C1ABF48
:1004E000194610467FEA655C1CBF0B46024650EA7F
:1004F000013406BF52EA033591EA030F41F40021AB
:1005000030BD00BF90F0000F04BF0021704730B530
:100510004FF4806404F132044FF000054FF0000105
:1005200050E700BF90F0000F04BF0021704730B5C6
:100530004FF4806404F1320410F0004548BF40429B
:100540004FF000013EE700BF42004FEAE2014FEAF0
:1005500031014FEA02701FBF12F07F4393F07F4FCB
:1005600081F06051704732F07F4208BF704793F0CE
:100570007F4F04BF41F40021704730B54FF46074E1
:1005800001F0004521F000411CE700BF50EA0102E4
:1005900008BF704730B54FF000050AE050EA01028D
:1005A00008BF704730B511F0004502D5404261EBFD
:1005B00041014FF4806404F132045FEA915C3FF43E
:1005C000D8AE4FF003025FEADC0C18BF03325FEADB
:1005D000DC0C18BF033202EBDC02C2F1200300FA8C
:1005E00003FC20FA02F001FA03FE40EA0E0021FAB1
:1005F00002F11444BDE600BF70B54FF0FF0C4CF49F
:10060000E06C1CEA11541DBF1CEA135594EA0C0F50
:1006100095EA0C0F00F0DEF82C4481EA030621EA8B
:100620004C5123EA4C5350EA013518BF52EA0335C6
:1006300041F4801143F4801338D0A0FB02CE4FF078
:100640000005E1FB02E506F00042E0FB03E54FF0A8
:100650000006E1FB03569CF0000F18BF4EF0010EA0
:10066000A4F1FF04B6F5007F64F5407404D25FEA9C
:100670004E0E6D4146EB060642EAC62141EA55514F
:100680004FEAC52040EA5E504FEACE2EB4F1FD0C91
:1006900088BFBCF5E06F1ED8BEF1004F08BF5FEA0F
:1006A000500E50F1000041EB045170BD06F00046C1
:1006B00046EA010140EA020081EA0301B4EB5C046E
:1006C000C2BFD4EB0C0541EA045170BD41F4801166
:1006D0004FF0000E013C00F3AB8014F1360FDEBF8B
:1006E000002001F0004170BDC4F10004203C35DA67
:1006F0000C341BDC04F11404C4F1200500FA05F3EA
:1007000020FA04F001FA05F240EA020001F000428A
:1007100021F0004110EBD37021FA04F642EB060100
:100720005EEA430E08BF20EAD37070BDC4F10C042A
:10073000C4F1200500FA04F320FA05F001FA04F2EE
:1007400040EA020001F0004110EBD37041F10001DA
:100750005EEA430E08BF20EAD37070BDC4F12005E5
:1007600000FA05F24EEA020E20FA04F301FA05F24D
:1007700043EA020321FA04F001F0004121FA04F2F5
:1007800020EA020000EBD3705EEA430E08BF20EAC5
:10079000D37070BD94F0000F0FD101F000464000FF
:1007A00041EB010111F4801F08BF013CF7D041EA81
:1007B000060195F0000F18BF704703F00046520085
:1007C00043EB030313F4801F08BF013DF7D043EA56
:1007D0000603704794EA0C0F0CEA135518BF95EA0C
:1007E0000C0F0CD050EA410618BF52EA4306D1D193
:1007F00081EA030101F000414FF0000070BD50EAB2
:10080000410606BF1046194652EA430619D094EA3B
:100810000C0F02D150EA013613D195EA0C0F05D125
:1008200052EA03361CBF104619460AD181EA030179
:1008300001F0004141F0FE4141F470014FF0000031
:1008400070BD41F0FE4141F4780170BD70B54FF0CC
:10085000FF0C4CF4E06C1CEA11541DBF1CEA13554C
:1008600094EA0C0F95EA0C0F00F0A7F8A4EB05042E
:1008700081EA030E52EA03354FEA013100F0888025
:100880004FEA03334FF0805545EA131343EA1263EE
:100890004FEA022245EA111545EA10654FEA0026A3
:1008A0000EF000419D4208BF964244F1FD0404F55C
:1008B000407402D25B084FEA3202B61A65EB0305B8
:1008C0005B084FEA32024FF480104FF4002CB6EB75
:1008D000020E75EB030E22BFB61A754640EA0C00F5
:1008E0005B084FEA3202B6EB020E75EB030E22BF35
:1008F000B61A754640EA5C005B084FEA3202B6EB76
:10090000020E75EB030E22BFB61A754640EA9C0034
:100910005B084FEA3202B6EB020E75EB030E22BF04
:10092000B61A754640EADC0055EA060E18D04FEAC2
:10093000051545EA16754FEA06164FEAC30343EA62
:1009400052734FEAC2025FEA1C1CC0D111F4801F2F
:100950000BD141EA00014FF000004FF0004CB6E728
:1009600011F4801F04BF01430020B4F1FD0C88BFC7
:10097000BCF5E06F3FF6AFAEB5EB030C04BFB6EBD2
:10098000020C5FEA500C50F1000041EB045170BDC5
:100990000EF0004E4EEA113114EB5C04C2BFD4EBF2
:1009A0000C0541EA045170BD41F480114FF0000E76
:1009B000013C90E645EA060E8DE60CEA135594EAF2
:1009C0000C0F08BF95EA0C0F3FF43BAF94EA0C0FF5
:1009D0000AD150EA01347FF434AF95EA0C0F7FF46A
:1009E00025AF104619462CE795EA0C0F06D152EABE
:1009F00003353FF4FDAE1046194622E750EA4106A2
:100A000018BF52EA43067FF4C5AE50EA41047FF4B2
:100A10000DAF52EA43057FF4EBAE12E74FF0FF3C17
:100A200006E000BF4FF0010C02E000BF4FF0010CE8
:100A30004DF804CD4FEA410C7FEA6C5C4FEA430C61
:100A400018BF7FEA6C5C1BD001B050EA410C0CBFB0
:100A500052EA430C91EA030F02BF90EA020F002012
:100A6000704710F1000F91EA030F58BF994208BF79
:100A700090422CBFD8176FEAE37040F00100704736
:100A80004FEA410C7FEA6C5C02D150EA013C07D18D
:100A90004FEA430C7FEA6C5CD6D152EA033CD3D0D8
:100AA0005DF8040B704700BF8446104662468C46D2
:100AB0001946634600E000BF01B5FFF7B7FF002805
:100AC00048BF10F1000F01BD4DF808EDFFF7F4FF2E
:100AD0000CBF012000205DF808FB00BF4DF808EDB9
:100AE000FFF7EAFF34BF012000205DF808FB00BFDC
:100AF0004DF808EDFFF7E0FF94BF012000205DF8FE
:100B000008FB00BF4DF808EDFFF7CEFF94BF0120B2
:100B100000205DF808FB00BF4DF808EDFFF7C4FFAB
:100B200034BF012000205DF808FB00BF4FEA410CF4
:100B30007FEA6C5C02D150EA013C0AD14FEA430CD7
:100B40007FEA6C5C02D152EA033C02D14FF0000014
:100B500070474FF0010070474FEA410212F5001252
:100B600015D211D56FF47873B3EB625212D94FEAF4
:100B7000C12343F0004343EA505311F0004F23FADE
:100B800002F018BF404270474FF00000704750EA33
:100B9000013005D111F0004008BF6FF000407047F0
:100BA0004FF00000704700BF53B94AB9002908BF91
:100BB00000281CBF4FF0FF314FF0FF3000F088B924
:100BC000ADF1080C6DE904CE00F006F8DDF804E0A4
:100BD000DDE9022304B070472DE9F047089D8E46F9
:100BE00004468846002B4AD18A42174662D9B2FA97
:100BF00082F64EB1C6F1200301FA06F820FA03F39B
:100C0000B74043EA0808B4404FEA174E1FFA87FC82
:100C1000B8FBFEF1230C0EFB118843EA084301FBED
:100C20000CF29A4209D9FB1801F1FF3080F0EA80FA
:100C30009A4240F2E78002393B449A1AA3B2B2FBCF
:100C4000FEF00EFB102243EA024300FB0CFC9C4525
:100C500009D9FB1800F1FF3280F0D6809C4540F2A4
:100C6000D3803B44023840EA0140A3EB0C0300214F
:100C70001DB1F3400022C5E90032BDE8F0878B4288
:100C800005D90DB1C5E9000100210846F5E7B3FA21
:100C900083F1002946D1734502D3824200F20581D7
:100CA000841A6EEB030201209046002DE5D0C5E9C1
:100CB0000048E2E7002A00F09080B2FA82F6002EA7
:100CC00040F0A4808A1A030C4FEA174E80B2BCB2DF
:100CD0000121B2FBFEFC0EFB1C2243EA024304FB93
:100CE0000CF29A4207D9FB180CF1FF3802D29A4253
:100CF00000F2E080C4469B1AB3FBFEF20EFB1233F7
:100D000040EA034302FB04F49C4207D9FB1802F1BA
:100D1000FF3002D29C4200F2CA8002461B1B42EA0C
:100D20000C40A5E7C1F120068B4022FA06F71F43CD
:100D30000EFA01F420FA06F32EFA06FE4FEA1749DE
:100D4000234300FA01F81FFA87FCBEFBF9F01C0CE4
:100D500009FB10EE44EA0E4400FB0CFEA64502FA25
:100D600001F209D93C1900F1FF3A80F09C80A645B8
:100D700040F2998002383C44A4EB0E041FFA83FE33
:100D8000B4FBF9F309FB13444EEA044403FB0CFCE7
:100D9000A44508D93C1903F1FF3E80F08280A445A8
:100DA0007FD9023B3C4443EA0040A4EB0C04A0FB87
:100DB00002EC64457346E14662D35FD05DB1B8EBA7
:100DC000030264EB090404FA06F622FA01F31E4357
:100DD000CC40C5E9006400214FE7B1FBF2FC010CF7
:100DE00041EA0E4180B240EA01423B4638463C4669
:100DF000B846BE462026B1FBF7F1A2EB080241EA55
:100E00000C4166E7014618E710462CE7C6F12002C0
:100E10002EFA02F3B740B14020FA02F24FEA174E21
:100E20000A43B3FBFEF8BCB20EFB1833110C41EAC7
:100E3000034108FB04F9B04089454FEA104380B2F2
:100E40003ED9791808F1FF3C01D289451FD8A1EBA2
:100E50000901B1FBFEF909FB04F80EFB191192B26E
:100E600042EA0142424529D2BA1809F1FF31C4D2FF
:100E70004245C2D2A9F102013A44BEE7F0459DD2F3
:100E8000BEEB02036CEB070C0138E14696E7A7EBDB
:100E900009094944A8F1020CB1FBFEF909FB04F869
:100EA000DBE773467FE7504666E70846FDE63B44CE
:100EB000023A33E7ACF1020C3B441CE749469CE79D
:100EC000A1EB0901C446B1FBFEF909FB04F8C4E734
:100ED000704700BF80B586B004AF7860786800F0D6
:100EE0006BF80346002B0ED00023029310230193CE
:100EF000002300934FF4FC630C4A46210A2000F0C3
:100F000055FD01230DE000230293102301930023DC
:100F100000934FF47843064A46210A2000F046FD2C
:100F2000002318460837BD4680BD00BF90C60008A4
:100F3000A8C6000880B485B000AF78600B467B80FF
:100F40004FF6FF73FB810023BB8129E0BB897A68E0
:100F500013441B781BB21B021AB2B7F90E30534070
:100F60001BB2FB810023FB7214E0B7F90E30002B9B
:100F70000ADAB7F90E305B001BB283F4815383F0B9
:100F800001031BB2FB8102E0FB895B00FB81FB7A62
:100F90000133FB72FB7A072BE7D9BB890133BB8195
:100FA000BA897B889A42D1D3FB8918461437BD464B
:100FB0005DF8047B7047000080B5A0B004AF786096
:100FC00007F16303184600F061FA0346002B03D0D3
:100FD00097F863307E2B01D000236EE07E2387F8E4
:100FE0005C3007F15C030133FB660023BB660DE058
:100FF000FB6E5A1CFA66184600F048FA0346002BAE
:1010000001D1002359E0BB6E0133BB66BB6E042BDC
:10101000EEDD00237B660EE007F11C027B6E1344BD
:10102000184600F033FA0346002B01D1002344E0B8
:101030007B6E01337B66B7F85D309BB21A467B6EE0
:101040009342E9DBB7F85D309AB207F11C03114611
:101050001846FFF76FFF03461A46B7F85F309BB29A
:101060009A420FD000230293182301934FF6FF7387
:1010700000934FF47843134A64210A2000F096FC51
:1010800000231AE0B7F85D309BB21A4607F10C0353
:1010900007F11C01184601F017FB07F10C037A68F1
:1010A0000949184602F04AFC034683F00103DBB20B
:1010B000002B01D0002300E0012318467037BD4605
:1010C00080BD00BFB8C6000800FD000880B582B032
:1010D00000AF00237B60174B1B6B164A43F4800361
:1010E0001363144B1B6B03F480037B607B6800234A
:1010F0003B60104B1B6B0F4A43F4001313630D4B03
:101100001B6B03F400133B603B68002200210D20A1
:1011100003F0E5FC0D2003F0FEFC00220021392045
:1011200003F0DDFC392003F0F6FC00BF0837BD46B4
:1011300080BD00BF0038024080B58EB000AF07F11F
:101140001C0300221A605A609A60DA601A615A61C0
:101150009A613B4600221A605A609A60DA601A610E
:101160005A619A612F4B4FF020421A602D4B2E4A44
:101170005A602C4B00229A602A4B0022DA60294BDD
:1011800000221A61274B10225A61264B00229A61D5
:10119000244B0022DA61234B00221A62214B0022E9
:1011A0005A62204B4FF480529A621E4B0022DA6240
:1011B0001C4B4FF480421A631A4B00225A63194B9E
:1011C00000229A63174B00225A640F23FB610F23FE
:1011D0003B623C237B620023BB621023FB62112332
:1011E0003B6300237B6308233B600F237B60092361
:1011F000BB600023FB6010233B6111237B61002354
:10120000BB613A4607F11C031946064806F097FDF4
:101210000346002B01D000F0D1FE00BF3837BD4699
:1012200080BD00BFF0010020040100A080B586B0A1
:1012300000AF3B1D00221A605A609A60DA601A61A2
:101240001C4B1B68002B31D11A4B01221A60002362
:101250003B60194B9B6B184A43F001039363164B99
:101260009B6B03F001033B603B684FF688737B6028
:101270000223BB600023FB6003233B610C237B61E3
:101280003B1D19460D4804F071F84CF2B3737B60B6
:101290000223BB600023FB6003233B610C237B61C3
:1012A0003B1D1946064804F061F800E000BF1837FE
:1012B000BD4680BD400200200038024000100240C0
:1012C000000C024080B582B000AF7860FFF7AEFF3F
:1012D00000BF0837BD4680BD80B58CB000AF07F1B8
:1012E0001C0300221A605A609A60DA601A610023B7
:1012F000BB615A4B1B6B594A43F010031363574BA6
:101300001B6B03F01003BB61BB6900237B61534B74
:101310001B6B524A43F004031363504B1B6B03F0E7
:1013200004037B617B6900233B614C4B1B6B4B4A85
:1013300043F080031363494B1B6B03F080033B6155
:101340003B690023FB60454B1B6B444A43F002039F
:101350001363424B1B6B03F00203FB60FB6800232B
:10136000BB603E4B1B6B3D4A43F0080313633B4B92
:101370001B6B03F00803BB60BB6800237B60374B2B
:101380001B6B364A43F040031363344B1B6B03F073
:1013900040037B607B6800233B60304B1B6B2F4A14
:1013A00043F0010313632D4B1B6B03F001033B6000
:1013B0003B6800224FF40051294804F073F90022E1
:1013C0004021284804F06EF900224FF401412648DC
:1013D00004F068F900220821244804F063F94FF46E
:1013E0000053FB6101233B6200237B620023BB624D
:1013F00007F11C0319461A4803F0B8FF4023FB61AC
:1014000001233B6200237B620023BB6207F11C03C4
:101410001946144803F0AAFF4FF40143FB6101236E
:101420003B6200237B620023BB6207F11C03194669
:101430000D4803F09BFF0823FB6101233B6200235F
:101440007B620023BB6207F11C031946074803F0C7
:101450008DFF00BF3037BD4680BD00BF0038024061
:10146000000802400018024000000240000C024048
:1014700080B500AF4FF480720249034807F000F9CD
:1014800000BF80BD44020020F004002080B485B07D
:1014900000AF78600023FB81154BDB6B1B685B683A
:1014A0009BB2C3F58073FB81124B1B889BB2FA89F8
:1014B0009A4201D1002315E00E4B1B889BB21A46BD
:1014C0000D4B9B5CDAB27B681A700A4B1B889BB28F
:1014D00001335A42DBB2D2B258BF53429AB2054BE3
:1014E0001A80012318461437BD465DF8047B704707
:1014F000F0040020440300204402002080B500AF27
:10150000124B134A1A60114B124A5A600F4B0022B9
:101510009A600E4B6022DA600C4B4FF480421A61E5
:101520000A4B00225A61094B00229A61074B0022A4
:10153000DA61064B00221A62044804F0CDF8034633
:10154000002B01D000F03AFD00BF80BD4803002011
:1015500000580040A086010080B58AB000AF7860D6
:1015600007F1140300221A605A609A60DA601A6167
:101570007B681B68394A93426CD100233B61384B2E
:101580001B6B374A43F002031363354B1B6B03F0AD
:1015900002033B613B694FF440637B611223BB61F3
:1015A0000123FB6103233B6204237B6207F11403E5
:1015B00019462C4803F0DAFE0023FB60284B1B6C15
:1015C000274A43F480031364254B1B6C03F4800308
:1015D000FB60FB68244B254A1A60234B4FF0606286
:1015E0005A60214B00229A601F4B0022DA601E4B8A
:1015F0004FF480621A611C4B00225A611A4B002280
:101600009A61194B4FF48072DA61174B4FF4003234
:101610001A62154B00225A62134803F097FA0346E8
:10162000002B01D000F0CAFC7B680F4A9A630E4A77
:101630007B68936300220021212003F050FA2120CF
:1016400003F069FA00220021222003F048FA222048
:1016500003F061FA00BF2837BD4680BD0058004046
:1016600000380240000402409C0300204060024019
:1016700080B483B000AF0346FB804FF0C042FB88CC
:10168000138000BF0C37BD465DF8047B7047000037
:1016900080B483B000AF0346FB80044AFB8813800C
:1016A00000BF0C37BD465DF8047B7047000010603A
:1016B00080B400AF034B1B889BB21846BD465DF853
:1016C000047B70470000106090B583B000AF044603
:1016D000084611461A462346FB800346BB800B464C
:1016E0007B8013463B802A20FFF7C2FFFB881B0A42
:1016F0009BB21846FFF7CCFFFB88DBB29BB21846C3
:10170000FFF7C6FF7B881B0A9BB21846FFF7C0FF96
:101710007B88DBB29BB21846FFF7BAFF2B20FFF79E
:10172000A7FFBB881B0A9BB21846FFF7B1FFBB8817
:10173000DBB29BB21846FFF7ABFF3B881B0A9BB29C
:101740001846FFF7A5FF3B88DBB29BB21846FFF7B0
:101750009FFF2C20FFF78CFF00BF0C37BD4690BDCC
:1017600080B584B000AF0346FB80134B1B881A463C
:10177000114B5B8802FB03F3BB600F4B1B88013BE3
:101780009AB20D4B5B88013B9BB200210020FFF712
:101790009BFF0023FB6006E0FB881846FFF778FFFD
:1017A000FB680133FB60FA68BB689A42F4D300BF60
:1017B00000BF1037BD4680BDFC03002080B582B05D
:1017C00000AF0346FB800B46BB8013467B80BB8883
:1017D000FA88B988F888FFF777FF7B881846FFF703
:1017E00057FF00BF0837BD4680BD000090B587B0E9
:1017F00000AF0446084611461A462346FB800346BE
:10180000BB800B46FB7013463B8000237B75FB8837
:101810003B8297F82C305B08FB73FB7BDB08DBB269
:101820001A46FB7B03F00703DBB2002B14BF012336
:101830000023DBB213449AB297F82C309BB212FB10
:1018400003F3BB81FB78203BFB70FB7B9AB2FB88E8
:1018500013449BB2013B9CB297F82C309AB2BB88E0
:1018600013449BB2013B9BB2B988F8882246FFF72C
:101870002BFF00237B8286E097F82C300C2B0BD1BA
:10188000FA78798A454813465B0013449B00034469
:101890000B441B78FB7528E097F82C30102B08D1EF
:1018A000FA787B8A3E4912010A4413441B78FB757F
:1018B0001BE097F82C30182B0BD1FA78798A39482D
:1018C00013465B0013441B0103440B441B78FB7558
:1018D0000BE097F82C30202B5BD1FA787B8A3249C9
:1018E00092010A4413441B78FB750023BB7544E046
:1018F00097F83030002B20D1FA7DBB7D42FA03F3FC
:1019000003F00103002B04D03B881846FFF7C0FE0C
:1019100003E03B8D1846FFF7BBFE7B7D01337B75F3
:101920007B7DFA7BB3FBF2F101FB02F29B1ADBB287
:10193000002B1FD100237B7522E0FA7DBB7D42FA8C
:1019400003F303F00103002B05D03A88B988FB8824
:101950001846FFF733FFFB880133FB80FA883B8A88
:10196000D21AFB7B9A4205D13B8AFB80BB880133AC
:10197000BB8005E0BB7D0133BB75BB7D072BB7D9B1
:101980007B8A01337B827A8ABB899A42FFF474AFE7
:1019900000E000BF1C37BD4690BD00BFF8C800087E
:1019A0006CCD00085CD300082CE5000890B58BB026
:1019B00004AFBA601A460346FB810B46BB8113464F
:1019C000FB80FB89BB820023FB7548E0FB7D002B7D
:1019D00045D1FA89264B1B88194697F82C305B08AD
:1019E000DBB2CB1A9A423FDCBA89214B5B8819469D
:1019F00097F82C30CB1A9A4236DCBB681B78802BC8
:101A000002D90123FB752AE0BB681B780D2B0BD193
:101A100097F82C309AB2BB891344BB81BB8AFB81F7
:101A2000BB680133BB6017E0BB681A78FC88B989D2
:101A3000F88997F83030029397F82C3001933B8D5A
:101A400000932346FFF7D2FE97F82C305B08DBB2F9
:101A50001A46FB891344FB81BB680133BB60BB683A
:101A60001B78002BB2D100E000BF1C37BD4690BDF3
:101A7000FC03002080B483B000AF0346FB71FB7908
:101A800003F03003DBB2002B07D00A4B4FF4A072F7
:101A90001A80084BF0225A8006E0064BF0221A808A
:101AA000044B4FF4A0725A8000BF0C37BD465DF85E
:101AB000047B7047FC03002080B500AF00224FF488
:101AC0000051AA4803F0EEFD4FF4FA7002F008FF4F
:101AD00001224FF40051A54803F0E4FD4FF4FA70E1
:101AE00002F0FEFE0020FFF7C5FFD320FFF7C0FD88
:101AF000FFF7DEFD03461A469D4B9A80FFF7D8FD9F
:101B000003461A469A4B9A80FFF7D2FD03461A46BF
:101B1000974B9A80964B9B881B029AB2944B9A8063
:101B2000FFF7C6FD03461A46914B9B8813439AB2B2
:101B30008F4B9A80CF20FFF79BFD0020FFF7A8FD79
:101B4000C120FFF7A5FD3020FFF7A2FDED20FFF734
:101B50008FFD6420FFF79CFD0320FFF799FD122005
:101B6000FFF796FD8120FFF793FDE820FFF780FD4A
:101B70008520FFF78DFD1020FFF78AFD7A20FFF703
:101B800087FDCB20FFF774FD3920FFF781FD2C2066
:101B9000FFF77EFD0020FFF77BFD3420FFF778FD87
:101BA0000220FFF775FDF720FFF762FD2020FFF709
:101BB0006FFDEA20FFF75CFD0020FFF769FD0020C4
:101BC000FFF766FDC020FFF753FD1B20FFF760FD08
:101BD000C120FFF74DFD0120FFF75AFDC520FFF79B
:101BE00047FD3020FFF754FD3020FFF751FDC7209F
:101BF000FFF73EFDB720FFF74BFD3620FFF738FD1E
:101C00000820FFF745FD3A20FFF732FD5520FFF78A
:101C10003FFDB120FFF72CFD0020FFF739FD1A2012
:101C2000FFF736FDB620FFF723FD0A20FFF730FD52
:101C3000A220FFF72DFDF220FFF71AFD0020FFF78D
:101C400027FD2620FFF714FD0120FFF721FDE020EE
:101C5000FFF70EFD0F20FFF71BFD2A20FFF718FDF1
:101C60002820FFF715FD0820FFF712FD0E20FFF7D3
:101C70000FFD0820FFF70CFD5420FFF709FDA920F8
:101C8000FFF706FD4320FFF703FD0A20FFF700FDE5
:101C90000F20FFF7FDFC0020FFF7FAFC0020FFF704
:101CA000F7FC0020FFF7F4FC0020FFF7F1FCE12037
:101CB000FFF7DEFC0020FFF7EBFC1520FFF7E8FC48
:101CC0001720FFF7E5FC0720FFF7E2FC1120FFF7E4
:101CD000DFFC0620FFF7DCFC2B20FFF7D9FC5620A9
:101CE000FFF7D6FC3C20FFF7D3FC0520FFF7D0FC24
:101CF0001020FFF7CDFC0F20FFF7CAFC3F20FFF7B5
:101D0000C7FC3F20FFF7C4FC0F20FFF7C1FC2B20CE
:101D1000FFF7AEFC0020FFF7BBFC0020FFF7B8FC8C
:101D20000120FFF7B5FC3F20FFF7B2FC2A20FFF7A8
:101D30009FFC0020FFF7ACFC0020FFF7A9FC00206F
:101D4000FFF7A6FCEF20FFF7A3FC1120FFF790FCA4
:101D5000782002F0C5FD2920FFF78AFC01224FF40C
:101D60008071044803F09EFC00BF80BD0008024063
:101D7000FC0300200000024080B598B004AF02F0E0
:101D80003DFD00F0B1F8FFF7A7FAFFF79FF902F069
:101D9000F7FBFFF7D1F902F08BF902F07DFBFFF7BB
:101DA000ADFB02F017FCFFF763FBFFF785FE002099
:101DB000FFF7D6FC0023029318230193002300931E
:101DC0004FF4FC63404A0A210A20FFF7EFFD00238D
:101DD0000293102301930023009347F6FF733B4ABD
:101DE0002D210A20FFF7E2FD002302931023019327
:101DF000002300934FF6E073354A64210A20FFF771
:101E0000D5FD07F144031846FFF764F80346002B9D
:101E1000F7D07A6C3B1D2F49184608F0F7FA3A1DA7
:101E20000023029318230193002300934FF6FF73BE
:101E30007D211420FFF7BAFDBB6C1846FEF784FB2A
:101E400002460B46381D244908F0E0FA3A1D0023EB
:101E5000029318230193002300934FF478439B21AE
:101E60001420FFF7A3FDFA6C3B1D1C49184608F02F
:101E7000CDFA3A1D0023029310230193002300930F
:101E800048F23043B9211420FFF790FD002302935C
:101E900018230193002300934FF47843104A0A213A
:101EA000C820FFF783FD322002F01AFD00230293C1
:101EB000182301930023009300230A4A0A21C82013
:101EC000FFF774FD9DE700BFC4C60008D8C6000830
:101ED000ECC6000800C7000814C7000824C70008A3
:101EE00034C7000838C7000880B594B000AF07F1C8
:101EF000200330220021184608F0EDFA07F10C0308
:101F000000221A605A609A60DA601A610023BB608E
:101F1000284B1B6C274A43F080531364254B1B6CE2
:101F200003F08053BB60BB6800237B60224B1B68BF
:101F3000214A43F4804313601F4B1B6803F4804322
:101F40007B607B6802233B620123FB6210233B63BF
:101F50000223BB630023FB6308233B64A8237B6449
:101F60000223BB640423FB6407F12003184605F039
:101F700005FA0346002B01D000F020F80F23FB6088
:101F800002233B6100237B614FF4A053BB614FF4FC
:101F9000A053FB6107F10C030521184605F066FC10
:101FA0000346002B01D000F009F800BF5037BD46B2
:101FB00080BD00BF003802400070004080B400AF18
:101FC00072B600BF00BFFDE780B48FB000AF78608D
:101FD0007B681A897B681B681B8A9A4201D300239D
:101FE00056E17B681B681A687B685B899B00134419
:101FF0001B68FB62FB6A1B0ADAB27B689A75FB6A94
:1020000003F00303022B5AD0022B00F29480002B22
:1020100002D0012B1FD08EE07B6801229A82FB6ADE
:102020009B089BB203F03F039AB27B681A82FB6A5B
:102030001B0E5BB203F00F0387F83330FB6A1B0CF7
:10204000DBB27B63FB6A1B0F9BB203F00F039AB2F8
:102050007B685A82B4E07B681B681A687B685B897E
:1020600001339B0013441B68FB61FB6A1B0C9BB292
:10207000C3F30B039AB27B689A82FB6A9B089BB2FC
:1020800003F03F039AB2FB691B0F9BB29B019BB20B
:1020900013439AB27B681A82FB6A1B0F5BB203F090
:1020A0000F0387F83330FB699BB27B63FB691B0C22
:1020B0009BB2C3F30B039AB27B685A8280E07B68C1
:1020C0001B681A687B685B8901339B0013441B689B
:1020D000BB627B681B681A687B685B8902339B0064
:1020E00013441B687B627B681B681A687B685B898A
:1020F00003339B0013441B683B62FB6A1B0C9AB2C0
:102100007B689A82FB6A9B089BB203F03F039AB2FA
:10211000BB6A1B0A9BB29B019BB213439AB27B68BA
:102120001A82BB6A87F833307B6A7B633B6A9AB258
:102130007B685A8244E07B681B681A687B685B890D
:1021400001339B0013441B68BB617B681B681A68E2
:102150007B685B8902339B0013441B687B617B684F
:102160001B681A687B685B8903339B0013441B68F8
:102170003B617B681B681A687B685B8904339B0042
:1021800013441B68FB60FB689AB27B689A82FB6A07
:102190009B089BB203F03F039AB2BB691B0A9BB238
:1021A0009B019BB213439AB27B681A82BB6987F882
:1021B00033307B697B633B699AB27B685A8200BF8C
:1021C0007B685B68002B06D17B6800229A617B6884
:1021D00000221A6241E07B685A687B6B1A447B6874
:1021E0009A6197F93330002B08D07B689A6997F988
:1021F00033305B421A447B681A621AE07B689B7D2D
:1022000003F03003202B11D17B689B7D03F0C003CA
:10221000002B05D07B689B7D03F0C003802B05D18C
:102220007B6803F114027B681A6202E07B6800227B
:102230001A627B689B7D03F0C003802B09D17B6809
:102240009B69002B05D07B689B691A687B68DA6103
:1022500003E07B689A697B68DA617B689B7D03F0A9
:102260000F03082B05D07B689B7D03F00F03092B20
:102270000AD17B681B685A687B68DB899B00134422
:102280001A687B685A6202E07B6800225A62012366
:1022900018463C37BD465DF8047B704780B485B076
:1022A00000AF78607B681B8901339AB27B681A8122
:1022B0007B681A897B681B681B8A9A420CD37B68EF
:1022C00000221A817B6800225A817B680022DA8111
:1022D0007B6800229A813BE07B681B681A687B68F8
:1022E0005B899B0013441B68FB60FB681B0AFB7245
:1022F000FB6803F00303012202FA03F33B817B68CE
:102300005A893B8913449AB27B685A817B689B89BE
:10231000FA7A02F03002002A0CBF01220022D2B267
:1023200013449AB27B689A817B68DA89FB7A03F05E
:102330000F03082B04D0FB7A03F00F03092B01D104
:10234000012300E000239BB213449AB27B68DA8138
:1023500000BF1437BD465DF8047B704780B584B07C
:1023600000AFF860B9607A6028220021F86808F0B0
:10237000B2F8FB68BA681A60FB687A685A60F86855
:10238000FFF722FE034618461037BD4680BD80B5D4
:1023900086B000AF786039603B681B689B683B6122
:1023A0003B691B681B68FB60FB681B0A03F0C003EA
:1023B000802B09D13B6804331A4639697868FFF7E6
:1023C000CDFF0346FB7508E03B685B681A46396938
:1023D0007868FFF7C3FF0346FB753B6803F10C0207
:1023E0007B681A62FB7D18461837BD4680BD80B5F4
:1023F00082B000AF78607868FFF750FF7868FFF729
:10240000E3FD7B681B89002B14BF01230023DBB293
:1024100018460837BD4680BD80B584B000AF7860EF
:1024200039607B681B8A1A463B68934201D10123BD
:1024300044E07B681B689B8A1A463B68934201D93B
:1024400000233BE07B681B89FB817B681B8A1A4663
:102450003B68934204D27B681B681A8A7B681A81A6
:102460007868FFF71BFF7B681B681A687B685B89CD
:102470009B0013441B68BB60BB689A083B685340D1
:1024800003F03F03002B10D17868FFF79DFD7B68B8
:102490001B8A1A463B68934207D17B689B7D03F0F9
:1024A0000F030A2B01D0012308E07B681B89FA89FE
:1024B0009A42D5D17868FFF787FD00231846103778
:1024C000BD4680BD80B584B000AF78607B689B7DE1
:1024D00003F00F030A2B01D1012322E07B681B8943
:1024E000FB817868FFF7DAFE7B681B681A687B68F7
:1024F0005B899B0013441B68BB60BB681B0A03F02D
:102500000F030A2B04D17868FFF75EFD034608E04D
:102510007B681B89FA899A42E3D17868FFF754FDFA
:10252000002318461037BD4680BD80B586B000AF89
:10253000F860B9607A60FB685B687B61FB685A6829
:102540007B681A44FB685A60BB68002B04D07A6829
:102550007969B86808F03FF8012318461837BD4676
:1025600080BD000080B588B000AFF860B9607A60C7
:102570007B68002B01D101235FE0BB68002B23D1D6
:10258000FB681B682F4A93421ED011E007F110032D
:1025900010221946F868FFF7E5FF034683F00103B0
:1025A000DBB2002B01D0002347E07B68103B7B604F
:1025B0007B68102BEAD807F110037A681946F8688F
:1025C000FFF7D0FF034638E0FB689B687A689A42C1
:1025D0000BD9FB68DB68002B02D0FB68DB6800E0EE
:1025E000194BFA68D360002327E0FB681B687A6800
:1025F000B968F8689847034683F00103DBB2002B03
:102600000BD0FB68DB68002B02D0FB68DB6800E0C6
:102610000E4BFA68D36000230FE0FB689B687A6872
:102620009A4203D9FB6800229A6005E0FB689A6829
:102630007B68D21AFB689A60012318462037BD4692
:1026400080BD00BF2B2500083CC700084CC7000810
:1026500080B582B000AF786039607B689B68002BE2
:102660000BD17B68DB68002B02D07B68DB6800E065
:10267000134B7A68D36000231DE07B681B6801223E
:10268000396878689847034683F00103DBB2002B72
:102690000BD07B68DB68002B02D07B68DB6800E036
:1026A000084B7A68D360002305E07B689B685A1E5C
:1026B0007B689A60012318460837BD4680BD00BF7D
:1026C0003CC700084CC7000890B48AB000AFF8605F
:1026D000B9607A600A4BBB61BB687B617B69FB6157
:1026E0007B683B6200237B62FB681C4607F1180392
:1026F0000FCB84E80F00F8682837BD4690BC7047C0
:102700002B25000880B588B000AFF860B9607A600A
:1027100007F115031946F868FFF79AFF034683F09F
:102720000103DBB2002B0BD0FB689B68002B05D1AB
:102730007B68002B02D07B6801221A70002384E0A2
:102740007B7D5BB2002B02DB7B7DFB6179E00723A5
:10275000BB617B7D03F07F03FB6107F11503194625
:10276000F868FFF775FF034683F00103DBB2002B27
:1027700001D0002369E0BB691F2B2FD9BB693E2B19
:1027800001D8FF2300E00123FB757B7D03F07F036D
:10279000002B06D0FB69002B05DA7B7DFA7D9A427F
:1027A00001D1012300E00023BB75BB7D03F00103D1
:1027B000BB75BB693F2B05D8BB7D83F00103DBB242
:1027C000002B37D0FB68DB68002B02D0FB68DB688E
:1027D00000E0204BFA68D360002336E0BB691C2B75
:1027E0001FD17B7D03F07003002B10D07B7D03F0A5
:1027F0007803782B0BD0FB68DB68002B02D0FB68DA
:10280000DB6800E0134BFA68D36000231DE07B7D9A
:1028100003F00F02BB6902FA03F3FA691343FB6189
:1028200008E07B7D03F07F02BB6902FA03F3FA69DB
:102830001343FB61BB690733BB617B7D5BB2002B3C
:102840008BDBBB68FA691A60012318462037BD4646
:1028500080BD00BF58C7000880B582B000AF786067
:102860003960002239687868FFF74CFF0346184644
:102870000837BD4680BD00002DE9B04F8AB000AFDB
:10288000F860B96000237B624FF000024FF0000354
:10289000C7E9062307F117031946F868FFF7D8FEC2
:1028A000034683F00103DBB2002B01D0002341E09B
:1028B0007B6A3E2B10D9FB7D03F0FE03002B0BD06F
:1028C000FB68DB68002B02D0FB68DB6800E01C4B78
:1028D000FA68D36000232DE0FB7DDBB200223B6071
:1028E0007A603B6803F07F084FF000097B6AA3F130
:1028F0002001C3F1200209FA03F508FA01F10D43A2
:1029000028FA02F2154308FA03F4D7E9062342EA4B
:10291000040A43EA050BC7E906AB7B6A07337B620F
:10292000FB7D5BB2002BB5DBB968D7E90623C1E9B3
:102930000023012318462837BD46BDE8B08F00BFED
:1029400058C7000880B584B000AF786007F10F0366
:10295000012219467868FFF705FE034683F001035C
:10296000DBB2002B01D0002304E0FB7B5BB2002B29
:10297000ECDB012318461037BD4680BD80B584B01E
:1029800000AF786007F10C0319467868FFF764FF21
:10299000034683F00103DBB2002B01D0002306E0E5
:1029A000FB681A4600217868FFF7DCFD03461846ED
:1029B0001037BD4680BD80B586B000AFF860B96005
:1029C0007A603B603B6800221A70BB6800221A7074
:1029D0007B6800221A6007F114033A681946F86808
:1029E000FFF790FE034683F00103DBB2002B01D01A
:1029F00000230BE07B69DA087B681A607B69DBB235
:102A000003F00703DAB2BB681A70012318461837BF
:102A1000BD4680BD80B582B000AF78600B46FB70CC
:102A2000FB78052B26D801A252F823F0452A00088E
:102A30004F2A00085D2A0008752A0008752A000838
:102A4000672A00087868FFF77DFF03461DE008222B
:102A500000217868FFF786FD034616E07868FFF7E7
:102A60008DFF034611E0042200217868FFF77AFD0C
:102A700003460AE07B68DB68002B02D07B68DB68DA
:102A800000E0044B7A68D360002318460837BD463F
:102A900080BD00BF68C7000880B586B000AFF86091
:102AA0007A603B600B46FB723B681B687B61FB7A7C
:102AB000052B3FD0052B47DC002B02D0012B2FD05C
:102AC00042E03B6800221A603B681B685A1C3B6866
:102AD0001A603B681B687A699A420BD2FB68DB6814
:102AE000002B02D0FB68DB6800E01F4BFA68D36064
:102AF000002334E001227968F868FFF733FD0346CC
:102B000083F00103DBB2002B01D0002327E07B68B8
:102B10005A1C7A601B785BB2002BD5DB01231EE0C8
:102B20003B6808221A6008227968F868FFF71AFDE6
:102B3000034614E03B6804221A6004227968F868AE
:102B4000FFF710FD03460AE0FB68DB68002B02D0AC
:102B5000FB68DB6800E0054BFA68D3600023184689
:102B60001837BD4680BD00BF58C7000868C70008B9
:102B700090B585B000AF7860396007F10C03194655
:102B80007868FFF769FE034683F00103DBB2002B90
:102B900001D0002320E03A687B6814460FCB84E81C
:102BA0000F003B689A68FB689A420BD27B68DB682F
:102BB000002B02D07B68DB6800E0094B7A68D360A9
:102BC000002309E0FA683B689A607B689A68FB68B2
:102BD000D21A7B689A60012318461437BD4690BD0F
:102BE0007CC7000880B582B000AF786039603B6870
:102BF0009B68002B0ED03B689B681A460021386802
:102C0000FFF7B0FC034683F00103DBB2002B01D0D9
:102C1000002308E03B685A687B685A603B68DA68C2
:102C20007B68DA60012318460837BD4680BD000086
:102C300080B584B000AFF8600B467A60FB727B68A9
:102C40009B7D03F00F030B2B00F2D48001A252F8FE
:102C500023F000BF852C0008B52C0008B52C000817
:102C6000B52C0008E52C0008192D00084D2D000892
:102C7000772D0008A12D0008A12D0008F52D0008D2
:102C8000CB2D0008FB7A002B0ED0FB7AFF2B0BD04C
:102C9000FB68DB68002B02D0FB68DB6800E05D4B63
:102CA000FA68D3600023B0E07968F86800F0F6FEB7
:102CB0000346AAE0FB7A002B0ED0FB7AFF2B0BD049
:102CC000FB68DB68002B02D0FB68DB6800E0514B3F
:102CD000FA68D360002398E07968F86800F0EEFEA7
:102CE000034692E0FB7A052B0ED0FB7AFF2B0BD02C
:102CF000FB68DB68002B02D0FB68DB6800E0454B1B
:102D0000FA68D360002380E07B68DB691946F868C5
:102D100000F08AFE034678E0FB7A012B0ED0FB7AA6
:102D2000FF2B0BD0FB68DB68002B02D0FB68DB6855
:102D300000E0384BFA68D360002366E07B68DB690B
:102D40001946F86800F08CFE03465EE0FB7A022B21
:102D50000BD0FB68DB68002B02D0FB68DB6800E06F
:102D60002C4BFA68D36000234FE07968F86800F0D4
:102D7000D1FF034649E0FB7A022B0BD0FB68DB68EE
:102D8000002B02D0FB68DB6800E0224BFA68D360BE
:102D900000233AE07968F86801F030F8034634E03F
:102DA000FB7A022B0BD0FB68DB68002B02D0FB68A0
:102DB000DB6800E0174BFA68D360002325E07968F0
:102DC000F86801F097F803461FE0FB7A022B0BD05E
:102DD000FB68DB68002B02D0FB68DB6800E00D4B72
:102DE000FA68D360002310E07968F86801F00CF904
:102DF00003460AE0FB68DB68002B02D0FB68DB6857
:102E000000E0054BFA68D360002318461037BD4632
:102E100080BD00BF94C70008A4C7000880B596B065
:102E200000AFF8600B467A60FB727B689B7D03F015
:102E30003003302B00F0C280302B00F21A81202B9F
:102E40001FD0202B00F21581002B02D0102B08D0B0
:102E50000FE1FB7A7A681946F868FFF7E9FE034646
:102E600012E17B681B6A002B03D07B681B6A01227E
:102E70001A70FB7A7A681946F868FFF7D9FE03469C
:102E800002E1FB7A022B6CD17B689B7D03F00F0380
:102E9000052B66D8012387F857307B681B6A3B6592
:102EA0007B689B697A68528A11463A6D128801FBE9
:102EB00002F21A447B68DA6107F13C031946F868AC
:102EC000FFF756FE034683F00103DBB2002B1FD051
:102ED0000023D9E007F13C037A68FF211846FFF789
:102EE000A7FE034683F00103DBB2002B03D00023CF
:102EF00087F8573015E03B6D1B8801339AB23B6D64
:102F00001A807B68DB697A68528A1A447B68DA61C6
:102F10007B6C002B05D03B6D1A887B689B8A9A429C
:102F2000D8D37B6C002B0BD0FB68DB68002B02D066
:102F3000FB68DB6800E0564BFA68D3600023A3E02F
:102F400007F13C031946F868FFF74CFE034683F08F
:102F50000103DBB2002B01D0002395E097F8573036
:102F600092E07B681B6AFB647B689B697A68528A83
:102F70001146FA6C128801FB02F21A447B68DA618E
:102F8000FB6C1B885A1C91B2FA6C11807A68928A89
:102F900093420BD3FB68DB68002B02D0FB68DB6835
:102FA00000E03B4BFA68D36000236DE0FB7A7A685F
:102FB0001946F868FFF73CFE034665E07B689B7D99
:102FC00003F00F03082B05D07B689B7D03F00F03F4
:102FD000092B41D17B681B6A1A887B681B8A9A423D
:102FE0003AD07B68D8697B685B8A1A46002107F073
:102FF00072FA7B685B6A9B68002B0AD17B685B6A0C
:10300000DB68002B05D17B685B6A5B681B68002B63
:1030100022D07B68596A7B68DA6907F11403184685
:10302000FFF79CF90346002B16D007F1140318464E
:1030300000F04DFA034683F00103DBB2002B0BD006
:10304000FB68DB68002B02D0FB68DB6800E0114BFB
:10305000FA68D360002317E07B681B6A7A68128ADB
:103060001A80FB7A7A681946F868FFF7E1FD034693
:103070000AE0FB68DB68002B02D0FB68DB6800E03D
:10308000054BFA68D360002318465837BD4680BD0B
:10309000B8C70008C8C70008A4C7000880B485B036
:1030A00000AFF8600B467A60FB72FB68DB68002BB0
:1030B00002D0FB68DB6800E0044BFA68D3600023B1
:1030C00018461437BD465DF8047B7047E0C700081A
:1030D00090B597B000AFF8610B467A61FB767B69DB
:1030E0001B68DB68002B06D1FB7E1946F869FFF7E9
:1030F00091FC034670E0FB7E022B45D107F14403AF
:103100001946F869FFF734FD034683F00103DBB28B
:10311000002B01D000235FE0FB6C7B657B691B68A3
:10312000DB6807F144007A6900219847034683F081
:103130000103DBB2002B10D0FB69DB68002B02D04F
:10314000FB69DB6805E03B6D002B01D03B6D00E0C7
:10315000234BFA69D36000233EE0FB6C002B03D0C5
:10316000FB6C7A6D9A42D7D807F144031946F86987
:10317000FFF738FD034683F00103DBB2002B01D0DB
:10318000002329E0012327E00A237B6207F12403BF
:1031900007F12802F97EF869FFF77EFC034683F009
:1031A0000103DBB2002B01D0002315E07A6A3B4615
:1031B00007F128011846FFF787FA07F134043B4668
:1031C0000FCB84E80F007B691B68DB6807F13400D4
:1031D0007A6900219847034618465C37BD4690BD82
:1031E000F4C7000880B584B000AFF8600B467A6081
:1031F000FB727B689B7D03F0C003802B0ED0802B7D
:103200001CD8002B02D0402B10D017E0FB7A7A6834
:103210001946F868FFF702FE03461AE0FB7A7A685F
:103220001946F868FFF73AFF034612E0FB7A7A681E
:103230001946F868FFF74CFF03460AE0FB68DB68B5
:10324000002B02D0FB68DB6800E0044BFA68D36017
:10325000002318461037BD4680BD00BFA4C7000834
:1032600080B58EB000AFF860B9607A60FB7007F18E
:103270001003B9681846FFF78AF8034683F0010384
:10328000DBB2002B0BD0FB68DB68002B02D0FB68A5
:10329000DB6800E00E4BFA68D360002314E03B8C3F
:1032A0001A467B68934202D17B69002B01D101232E
:1032B0000AE0BB6801221A7307F11002FB78194675
:1032C000F868FFF78FFF034618463837BD4680BDC4
:1032D00004C8000890B587B000AFF860B9603B60E3
:1032E0001346FB71FB689B683B6122E03B681B68EF
:1032F0001B68002B0AD03B681B681C68FB79BA6806
:103300003968F868A0470346FB7507E0FB79BA689F
:103310003968F868FFF7A4FF0346FB75FB7D83F06F
:103320000103DBB2002B01D000230BE03B689B685C
:103330003B603B68002B04D0FB689B683A699A426B
:10334000D4D0012318461C37BD4690BD80B58EB041
:1033500000AF78607B689B7D87F8323097F8323019
:1033600003F00F030A2B24D17B68DB691B687B63A6
:103370001BE007F10803796B1846FFF708F80346CE
:10338000002B0FD07B6B00221A7307F1080318463D
:1033900000F09DF8034683F00103DBB2002B01D05F
:1033A000002390E07B6B9B687B637B6B002BE0D101
:1033B00088E097F8323003F0C003002B66D1012378
:1033C00087F8333097F8323003F03003102B08D1F0
:1033D0007B681B6A002B04D07B681B6A00221A7072
:1033E00012E097F8323003F03003202B05D097F825
:1033F000323003F03003302B06D17B681B6A002289
:103400001A80002387F8333097F83330002B59D0D7
:103410007B689B7D03F00F03082B05D07B689B7DA9
:1034200003F00F03092B28D17B685B6A9B68002B94
:103430000AD17B685B6ADB68002B05D17B685B6A1D
:103440005B681B68002B18D07B68596A7B68DA6957
:1034500007F108031846FEF781FF0346002B30D022
:1034600007F10803184600F032F8034683F0010321
:10347000DBB2002B25D0002325E07B68D8697B6870
:103480005B8A1A46002107F026F81BE097F83230D5
:1034900003F0C003802B15D17B689B6900221A6062
:1034A00097F8323003F03003202B05D097F83230F4
:1034B00003F03003302B05D17B681B6A00221A8091
:1034C00000E000BF012318463837BD4680BD90B5E7
:1034D0008DB000AF786107F1200300221A605A60B6
:1034E0009A60DA600023FB610023FB767B691B682E
:1034F0009B68002B20D07B691B6899683B464FF086
:10350000FF321846FFF7E0F807F120043B460FCBE7
:1035100084E80F0007F11A0307F11C0207F11B01F1
:1035200007F12000FFF747FA034683F00103DBB2FF
:10353000002B01D0002343E07869FFF707FF034623
:1035400083F00103DBB2002B01D0002338E0FB69DC
:10355000002B2ED07B691B8A1A46FB699A4228D120
:10356000F97E07F120037A691846FFF73BFE034610
:1035700083F00103DBB2002B01D0002320E007F130
:103580001A0307F11C0207F11B0107F12000FFF7E6
:1035900012FA034683F00103DBB2002B01D00023B3
:1035A0000EE07B691B6A002B03D07B691B6A00223B
:1035B0001A707869FEF71BFF0346002BBCD101236C
:1035C00018463437BD4690BD80B59AB000AFF8605C
:1035D000B9607A603B6000237B6600233B664FF650
:1035E000FF73A7F85E300023A7F84A300023A7F83E
:1035F0005C3000233B6400237B644FF0FF337B652A
:1036000007F118037A68B9681846FEF7A7FE034663
:10361000002B00F002813B6803F00103002B40F017
:10362000FC8007F118031846FFF751FF034683F0AB
:103630000103DBB2002B00F0F080FB68DB68002B9D
:1036400002D0FB68DB6800E0994BFA68D360002386
:103650006DE107F1120307F1140207F11301F86895
:10366000FFF7A9F9034683F00103DBB2002B05D075
:10367000BB7C002B40F0D780002358E17B69002BF6
:1036800011D13B6803F00403002B40F0CE80FB68AF
:10369000DB68002B02D0FB68DB6800E0854BFA6832
:1036A000D360002343E17A6907F1180311461846F5
:1036B000FEF7B2FE034683F00103DBB2002B05D117
:1036C00097F82E3003F00F030A2B3CD17B6E002BB2
:1036D00012D107F118031846FEF7F4FE0346002B3B
:1036E00004D07B6B1B683B663B8D7B663B6E002B7F
:1036F00002D14FF0FF337B667B697A6E9A4215D810
:10370000FB689B68FB647969FA7C3B6EF868FFF79D
:10371000E1FD034683F00103DBB2002B01D000235F
:1037200005E1FB689B68FA6C9A4273D1FB7C1946F1
:10373000F868FFF76FF9034683F00103DBB2002B53
:103740006AD00023F3E097F82E3003F03003202BEB
:103750002ED1BA6B07F1180314339A4228D13B8C4F
:10376000B7F85E209A4220D0B7F85E304FF6FF726D
:10377000934211D0B7F84A30B7F85C209A420BD088
:10378000FB68DB68002B02D0FB68DB6800E04A4B7B
:10379000FA68D3600023CAE03B8CA7F85E300023B0
:1037A000A7F84A30BB8DA7F85C3007F14A03BB632A
:1037B00097F82E3003F03003002B1CD1BB8C3F2B2D
:1037C00019D8BB8C03F01F03012202FA03F33B65F7
:1037D000BB8C5B099BB29B0068333B4453F8282C9D
:1037E000BB8C5B099BB219463B6D1A438B00683357
:1037F0003B4443F8282CFB7C07F118021946F86873
:10380000FFF7F0FC034683F00103DBB2002B04D08A
:1038100000238CE000BF00E000BFFB689B68002B2A
:103820007FF417AF02E000BF00E000BFB7F85E30E2
:103830004FF6FF72934211D0B7F84A30B7F85C20C8
:103840009A420BD0FB68DB68002B02D0FB68DB6878
:1038500000E0194BFA68D360002368E0BB695B8A1B
:10386000A7F85A30B7F85A30002B5FD0B7F85A3063
:10387000402B02D94023A7F85A300023A7F858302C
:1038800023E0B7F858309B0068333B4453F8283C9A
:103890007A6D9A4214D0FB68DB68002B02D0FB687B
:1038A000DB6800E0054BFA68D36000233FE000BF0F
:1038B000C8C7000818C8000824C8000848C800087D
:1038C000B7F858300133A7F85830B7F85A305B09C9
:1038D0009BB2B7F858209A42D3D3B7F85A3003F0C6
:1038E0001F03002B22D0B7F85A305B099BB29B0014
:1038F00068333B4453F8282CB7F85A30DBB203F056
:103900001F03DBB2C3F12003DBB219467B6DCB4052
:103910009A420BD0FB68DB68002B02D0FB68DB68A7
:1039200000E0054BFA68D360002300E0012318464D
:103930006837BD4680BD00BF48C8000880B586B066
:1039400000AFF860B9607A6000237A68B968F868F7
:10395000FFF73AFE0346FB75FB7D18461837BD4658
:1039600080BD80B584B000AF7860396007F10C038A
:1039700019467868FEF770FF034683F00103DBB257
:10398000002B01D0002308E0FB68002B14BF0123AB
:103990000023DAB23B681A70012318461037BD467F
:1039A00080BD2DE9B04384B000AF7860396007F185
:1039B000080319467868FEF75FFF034683F00103AA
:1039C000DBB2002B01D0002329E0D7E9022302F06B
:1039D0000104002554EA050313D0D7E902014FF092
:1039E00000024FF00003420842EAC1724B086FEA3E
:1039F00002086FEA030942464B463968C1E90023D1
:103A00000CE0D7E902014FF000024FF0000342083A
:103A100042EAC1724B083968C1E900230123184604
:103A20001037BD46BDE8B08380B584B000AF786084
:103A3000396007F10C03042219467868FEF792FDFD
:103A4000034683F00103DBB2002B01D0002303E027
:103A5000FA683B681A60012318461037BD4680BDDE
:103A600080B584B000AF7860396007F108030822A0
:103A700019467868FEF776FD034683F00103DBB252
:103A8000002B01D0002305E0D7E902233968C1E902
:103A90000023012318461037BD4680BD80B582B093
:103AA00000AF786039603B68DB6919467868FFF7DA
:103AB00058FF034618460837BD4680BD2DE9B04F74
:103AC00094B000AF786239623B6A9B7D03F00F03CC
:103AD000022B79D107F138031946786AFEF7CCFE3C
:103AE000034683F00103DBB2002B01D0002307E182
:103AF0003B6A5B8A082B0AD13B6AD969D7E90E2356
:103B0000C1E90023D1E90023C7E9122346E03B6A5B
:103B10005B8A042B0ED1D7E90E013B6ADB690246B2
:103B20001A601B6800223B617A61D7E90434C7E957
:103B3000123433E03B6A5B8A022B0FD1D7E90E01C6
:103B40003B6ADB6982B21A801B889BB20022BB6091
:103B5000FA60D7E90234C7E912341FE03B6A5B8A96
:103B6000012B0FD1D7E90E013B6ADB69C2B21A7093
:103B70001B78DBB200223B607A60D7E90034C7E9EA
:103B800012340BE07B6ADB68002B02D07B6ADB68B7
:103B900000E05E4B7A6AD3600023B1E0D7E90E23E0
:103BA000D7E91201994208BF90420BD07B6ADB68CB
:103BB000002B02D07B6ADB6800E0554B7A6AD36049
:103BC00000239DE001239BE03B6A9B7D03F00F03F4
:103BD000032B0DD107F128031946786AFFF7E1FEA0
:103BE000034683F00103DBB2002B22D0002387E0E1
:103BF00007F130031946786AFEF73EFE034683F06C
:103C00000103DBB2002B01D0002379E03B6A5B8A21
:103C1000082B04D1D7E90C23C7E90A2309E0D7E927
:103C20000C231346DA17BB61FA61D7E90623C7E90B
:103C30000A233B6A5B8A082B0AD13B6AD969D7E918
:103C40000A23C1E90023D1E90023C7E9102342E098
:103C50003B6A5B8A042B0CD1D7E90A013B6ADB691A
:103C600002461A601B68DA179A469346C7E910ABFA
:103C700031E03B6A5B8A022B0ED1D7E90A013B6A2D
:103C8000DB6902B21A80B3F900301BB2DA1798462A
:103C90009146C7E910891EE03B6A5B8A012B0ED171
:103CA000D7E90A013B6ADB6942B21A7093F9003026
:103CB0005BB2DA171C461546C7E910450BE07B6A74
:103CC000DB68002B02D07B6ADB6800E00F4B7A6A6E
:103CD000D360002314E0D7E90A23D7E91001994201
:103CE00008BF90420BD07B6ADB68002B02D07B6A56
:103CF000DB6800E0064B7A6AD360002300E0012312
:103D000018465037BD46BDE8B08F00BF60C80008F8
:103D100074C8000880B586B000AF7860396007F1DC
:103D20000C0319467868FEF797FD034683F00103FC
:103D3000DBB2002B01D0002355E0FB68B3F5803FD8
:103D40000BD37B68DB68002B02D07B68DB6800E06C
:103D5000274B7A68D360002345E0FB6802337B6120
:103D6000FB687A699A420BD27B68DB68002B02D031
:103D70007B68DB6800E01F4B7A68D360002332E089
:103D80003B689B7D03F0C003802B0BD17B68DB6815
:103D9000002B02D07B68DB6800E0174B7A68D360A9
:103DA000002320E03B685B8A1A467B6993420BD96B
:103DB0007B68DB68002B02D07B68DB6800E00C4B83
:103DC0007A68D36000230EE03B68DB693B61FB68E7
:103DD0009AB23B691A803B690233FA6819467868DF
:103DE000FEF7C0FB034618461837BD4680BD00BF2E
:103DF00088C8000898C80008E0C7000880B586B0E9
:103E000000AF786039603B68DB697B6107F10C03C8
:103E100019467868FEF720FD034683F00103DBB204
:103E2000002B01D000235AE0FB68B3F1FF3F0BD118
:103E30007B68DB68002B02D07B68DB6800E02A4BE4
:103E40007A68D36000234AE0FB6801333B61FB687A
:103E50003A699A420BD27B68DB68002B02D07B6800
:103E6000DB6800E0204B7A68D360002337E03B68D2
:103E70009B7D03F0C003802B0BD17B68DB68002B9C
:103E800002D07B68DB6800E0184B7A68D3600023BF
:103E900025E03B685B8A1A463B6993420BD97B68F5
:103EA000DB68002B02D07B68DB6800E0104B7A688F
:103EB000D360002313E0FB687A69134400221A7070
:103EC000FB681A4679697868FEF74CFB034683F075
:103ED0000103DBB2002B01D0002300E001231846D0
:103EE0001837BD4680BD00BF98C80008E0C700086D
:103EF000A8C8000880B58AB000AF78603960012397
:103F000087F82730002387F8263007F10C0319467D
:103F10007868FEF72DFE034683F00103DBB2002B29
:103F200001D0002369E03B685B6A002B0BD17B6802
:103F3000DB68002B02D07B68DB6800E0314B7A68DD
:103F4000D360002359E03B689B7D03F00F03092BEE
:103F50001CD13B681B6A002B18D03B681B6A083BCE
:103F6000FB61FB691B68002B10D0FB691B68FA69B9
:103F7000043207F10C0039689847034687F8273068
:103F80007B69002B02D1012387F8263097F8273070
:103F9000002B22D097F8263083F00103DBB2002BF0
:103FA0001BD000233B623B689B7D03F0C003002BCA
:103FB00007D13B689B7D03F03003202B01D0012308
:103FC0003B623B68596A3B68DA6907F10C003B6A5F
:103FD000FFF7FAFA034687F8273007F10C03194672
:103FE0007868FEF7FFFD034683F00103DBB2002B88
:103FF00001D0002301E097F8273018462837BD4646
:1040000080BD00BFB8C8000880B584B000AF78603C
:10401000396007F10C0319467868FEF71DFC03466A
:1040200083F00103DBB2002B01D0002337E0FB68F3
:10403000B3F5803F0BD37B68DB68002B02D07B6835
:10404000DB6800E0184B7A68D360002327E0FB6848
:10405000002B09D13B68D8693B685B8A1A4600216E
:1040600006F039FA01231AE03B685B8A1A46FB68BE
:104070009A420BD07B68DB68002B02D07B68DB6840
:1040800000E00A4B7A68D360002308E03B68D969F6
:104090003B685B8A1A467868FEF764FA034618465E
:1040A0001037BD4680BD00BF88C80008D4C80008CE
:1040B00080B500AF174B184A1A60164B4FF4827246
:1040C0005A60144B00229A60124B0022DA60114BA6
:1040D00000221A610F4B00225A610E4B4FF40072FE
:1040E0009A610C4B0022DA610A4B00221A62094BDA
:1040F00000225A62074B00229A62064B0A22DA62B9
:10410000044803F093FD0346002B01D0FDF756FF52
:1041100000BF80BD040400200030014080B58AB09B
:1041200000AF786007F1140300221A605A609A60A9
:10413000DA601A617B681B68194A93422BD100230D
:104140003B61184B5B6C174A43F480535364154B27
:104150005B6C03F480533B613B690023FB60114BB4
:104160001B6B104A43F0020313630E4B1B6B03F0EF
:104170000203FB60FB6838237B610223BB610023E1
:10418000FB6103233B6205237B6207F1140319469D
:10419000054801F0EBF800BF2837BD4680BD00BFE1
:1041A00000300140003802400004024080B483B077
:1041B00000AF00237B60104B5B6C0F4A43F48043DD
:1041C00053640D4B5B6C03F480437B607B6800237E
:1041D0003B60094B1B6C084A43F080531364064B49
:1041E0001B6C03F080533B603B6800BF0C37BD463F
:1041F0005DF8047B704700BF0038024080B400AF18
:1042000000BFFDE780B400AF00BFFDE780B400AFA2
:1042100000BFFDE780B400AF00BFFDE780B400AF92
:1042200000BFFDE780B400AF00BFBD465DF8047B72
:10423000704780B400AF00BFBD465DF8047B704797
:1042400080B400AF00BFBD465DF8047B704780B509
:1042500000AF00F025FB00BF80BD000080B500AFBF
:10426000024800F00BFE00BF80BD00BF9C03002091
:1042700080B500AF024803F0F9FD00BF80BD00BF6C
:104280006004002080B500AF024801F07EFB00BF53
:1042900080BD00BF4803002080B500AF024801F098
:1042A000E5FC00BF80BD00BF4803002080B500AF23
:1042B000024804F00BFA00BF80BD00BFA804002034
:1042C00080B500AF024800F0D9FD00BF80BD00BF3F
:1042D0003805002080B500AF024804F0F7F900BFB0
:1042E00080BD00BFF004002080B400AF0123184659
:1042F000BD465DF8047B704780B582B000AF786042
:10430000396006F03BF9034616221A604FF0FF337E
:1043100018460837BD4680BD80B582B000AF7860D2
:104320004FF0FF317868FFF7E7FF00BFFDE780B58A
:1043300086B000AFF860B9607A6000237B610AE064
:10434000AFF300800146BB685A1CBA60CAB21A704B
:104350007B6901337B617A697B689A42F0DB7B6819
:1043600018461837BD4680BD80B586B000AFF860EE
:10437000B9607A6000237B6109E0BB685A1CBA60AF
:104380001B781846AFF300807B6901337B617A6943
:104390007B689A42F1DB7B6818461837BD4680BDC2
:1043A00080B483B000AF78604FF0FF3318460C370D
:1043B000BD465DF8047B704780B483B000AF786081
:1043C00039603B684FF400525A60002318460C379E
:1043D000BD465DF8047B704780B483B000AF786061
:1043E000012318460C37BD465DF8047B704780B446
:1043F00085B000AFF860B9607A60002318461437C2
:10440000BD465DF8047B704780B586B000AF78602C
:10441000144A154BD31A7B617B693B61134B1B68B4
:10442000002B02D1114B124A1A60104B1A687B689C
:1044300013443A699A4207D206F0A0F803460C22C8
:104440001A604FF0FF3309E0084B1B68FB60074B15
:104450001A687B681344054A1360FB6818461837CE
:10446000BD4680BD00000220000400005C04002066
:10447000E806002080B400AF064BD3F88830054A28
:1044800043F47003C2F8883000BFBD465DF8047B7A
:10449000704700BF00ED00E080B586B000AF07F1C7
:1044A000080300221A605A609A60DA603B460022D4
:1044B0001A605A601E4B4FF080421A601C4B40F24B
:1044C00047325A601A4B00229A60194B4FF0FF3264
:1044D000DA60174B00221A61154B00229A611448CA
:1044E00003F075FC0346002B01D0FDF767FD4FF488
:1044F0008053BB6007F1080319460D4803F0A6FD81
:104500000346002B01D0FDF759FD00233B6000233B
:104510007B603B461946064803F0D2FF0346002B5A
:1045200001D0FDF74BFD00BF1837BD4680BD00BF71
:104530006004002080B584B000AF78607B681B68A1
:10454000B3F1804F15D10023FB600C4B1B6C0B4A61
:1045500043F001031364094B1B6C03F00103FB6080
:10456000FB68002200211C2000F0B9FA1C2000F09A
:10457000D2FA00BF1037BD4680BD00BF00380240F0
:1045800080B500AF114B124A1A60104B4FF416520F
:104590005A600E4B00229A600C4B0022DA600B4BE3
:1045A00000221A61094B0C225A61084B00229A61C1
:1045B000064B0022DA61054804F012F80346002B8E
:1045C00001D0FDF7FBFC00BF80BD00BFA8040020A8
:1045D0000048004080B500AF114B124A1A60104BE2
:1045E0004FF416525A600E4B00229A600C4B002278
:1045F000DA600B4B00221A61094B0C225A61084BFE
:1046000000229A61064B0022DA61054803F0E8FFB8
:104610000346002B01D0FDF7D1FC00BF80BD00BFD9
:10462000F00400200014014080B58CB000AF786029
:1046300007F11C0300221A605A609A60DA601A615E
:104640007B681B68524A934235D10023BB61514BB2
:104650001B6C504A43F4802313644E4B1B6C03F4D1
:104660008023BB61BB6900237B614A4B1B6B494ABA
:1046700043F004031363474B1B6B03F004037B619C
:104680007B694FF44063FB6102233B6200237B6242
:104690000323BB620723FB6207F11C0319463E4854
:1046A00000F064FE00220021272000F018FA2720E5
:1046B00000F031FA67E07B681B68384A934262D1A8
:1046C00000233B61334B5B6C324A43F0200353645D
:1046D000304B5B6C03F020033B613B690023FB60C4
:1046E0002C4B1B6B2B4A43F004031363294B1B6BAE
:1046F00003F00403FB60FB68C023FB6102233B6201
:1047000000237B620323BB620823FB6207F11C03C7
:104710001946214800F02AFE214B224A1A60204BFC
:104720004FF020625A601E4B00229A601C4B002200
:10473000DA601B4B4FF480621A61194B00225A61F8
:10474000174B00229A61164B4FF48072DA61144BBA
:1047500000221A62124B00225A62114800F0F6F948
:104760000346002B01D0FDF729FC7B680C4ADA6375
:104770000B4A7B68936300220021472000F0AFF9C9
:10478000472000F0C8F900BF3037BD4680BD00BFEC
:104790000048004000380240000802400014014078
:1047A0003805002028640240DFF834D0FFF762FEAD
:1047B0000C480D490D4A002302E0D458C45004337C
:1047C000C4188C42F9D30A4A0A4C002301E0136052
:1047D0000432A242FBD305F0D7FEFDF7CDFA7047B5
:1047E0000000022000000020D4010020BC000108CD
:1047F000D4010020E8060020FEE7000080B500AFED
:104800000E4B1B680D4A43F4007313600B4B1B687F
:104810000A4A43F480631360084B1B68074A43F459
:1048200080731360032000F04FF90F2000F008F8A8
:10483000FFF7BCFC0023184680BD00BF003C0240CF
:1048400080B582B000AF7860124B1A68124B1B78AB
:1048500019464FF47A73B3FBF1F3B2FBF3F3184646
:1048600000F067F90346002B01D001230EE07B68BE
:104870000F2B0AD8002279684FF0FF3000F02FF993
:10488000064A7B681360002300E0012318460837BE
:10489000BD4680BD0000002008000020040000206C
:1048A00080B400AF064B1B781A46064B1B681344B6
:1048B000044A136000BFBD465DF8047B704700BF2B
:1048C000080000209805002080B400AF034B1B684F
:1048D0001846BD465DF8047B704700BF9805002070
:1048E00080B584B000AF7860FFF7EEFFB8607B68FA
:1048F000FB60FB68B3F1FF3F05D00A4B1B781A46FB
:10490000FB681344FB6000BFFFF7DEFF0246BB6895
:10491000D31AFA689A42F7D800BF00BF1037BD46D5
:1049200080BD00BF0800002080B485B000AF786073
:104930007B6803F00703FB600C4BDB68BB60BA6865
:104940004FF6FF031340BB60FB681A02BB681343BA
:1049500043F0BF6343F40033BB60044ABB68D360D9
:1049600000BF1437BD465DF8047B704700ED00E0E2
:1049700080B400AF044BDB681B0A03F00703184642
:10498000BD465DF8047B704700ED00E080B483B065
:1049900000AF0346FB7197F90730002B0BDBFB7967
:1049A00003F01F02074997F907305B09012000FA5D
:1049B00002F241F8232000BF0C37BD465DF8047BAE
:1049C000704700BF00E100E080B483B000AF034651
:1049D0003960FB7197F90730002B0ADB3B68DAB2CC
:1049E0000C4997F907301201D2B20B4483F8002327
:1049F0000AE03B68DAB20849FB7903F00F03043B95
:104A00001201D2B20B441A7600BF0C37BD465DF8D6
:104A1000047B704700E100E000ED00E080B489B065
:104A200000AFF860B9607A60FB6803F00703FB61D0
:104A3000FB69C3F10703042B28BF0423BB61FB6997
:104A40000433062B02D9FB69033B00E000237B61A2
:104A50004FF0FF32BB6902FA03F3DA43BB681A4036
:104A60007B699A404FF0FF317B6901FA03F3D94328
:104A70007B680B40134318462437BD465DF8047B22
:104A80007047000080B582B000AF78607B68013B62
:104A9000B3F1807F01D301230FE00A4A7B68013B19
:104AA00053600F214FF0FF30FFF78EFF054B0022C0
:104AB0009A60044B07221A60002318460837BD4647
:104AC00080BD00BF10E000E080B582B000AF78602C
:104AD0007868FFF729FF00BF0837BD4680BD80B565
:104AE00086B000AF0346B9607A60FB7300237B6138
:104AF000FFF73EFF78617A68B9687869FFF78EFF43
:104B0000024697F90F3011461846FFF75DFF00BFC8
:104B10001837BD4680BD80B582B000AF0346FB713B
:104B200097F907301846FFF731FF00BF0837BD4639
:104B300080BD80B582B000AF78607868FFF7A2FFD3
:104B4000034618460837BD4680BD000080B586B0D4
:104B500000AF786000237B61FFF7B6FE38617B68A9
:104B6000002B01D1012399E07B68022283F83520D4
:104B70007B68002283F834207B681B681A687B6896
:104B80001B6822F001021A600FE0FFF79DFE02464B
:104B90003B69D31A052B08D97B6820225A657B68AC
:104BA000032283F83520032378E07B681B681B68A9
:104BB00003F00103002BE8D17B681B681B687B6155
:104BC0007A69384B13407B617B685A687B689B68C5
:104BD0001A437B68DB681A437B681B691A437B684E
:104BE0005B691A437B689B691A437B68DB691A43DC
:104BF0007B681B6A13437A6913437B617B685B6A3A
:104C0000042B07D17B68DA6A7B681B6B13437A69D4
:104C100013437B617B681B687A691A607B681B6839
:104C20005B697B617B6923F007037B617B685B6A5F
:104C30007A6913437B617B685B6A042B17D17B68BD
:104C40009B6A7A6913437B617B68DB6A002B0ED019
:104C5000786800F00FFB0346002B08D07B684022E9
:104C60005A657B68012283F83520012316E07B68B2
:104C70001B687A695A61786800F0C6FA0346FB60DF
:104C80007B68DB6D3F229A40FB689A607B6800225C
:104C90005A657B68012283F83520002318461837AF
:104CA000BD4680BD3F8010F080B586B000AFF86093
:104CB000B9607A603B600023FB75FB689B6D3B61CC
:104CC000FB6893F83430012B01D1022340E0FB68EC
:104CD000012283F83420FB6893F83530DBB2012BD6
:104CE0002FD1FB68022283F83520FB6800225A6529
:104CF0003B687A68B968F86800F058FAFB68DB6DC1
:104D00003F229A403B699A60FB681B681A68FB68FF
:104D10001B6842F016021A60FB681B6C002B07D060
:104D2000FB681B681A68FB681B6842F008021A607F
:104D3000FB681B681A68FB681B6842F001021A6076
:104D400005E0FB68002283F834200223FB75FB7D1D
:104D500018461837BD4680BD80B584B000AF786076
:104D60007B689B6DFB60FFF7AFFDB8607B6893F8D5
:104D70003530DBB2022B08D07B6880225A657B6815
:104D8000002283F83420012352E07B681B681A68F4
:104D90007B681B6822F016021A607B681B685A69E0
:104DA0007B681B6822F080025A617B681B6C002BB9
:104DB00003D17B689B6C002B07D07B681B681A684B
:104DC0007B681B6822F008021A607B681B681A68FF
:104DD0007B681B6822F001021A6013E0FFF774FD84
:104DE0000246BB68D31A052B0CD97B6820225A6572
:104DF0007B68032283F835207B68002283F8342007
:104E0000032315E07B681B681B6803F00103002B7C
:104E1000E4D17B68DB6D3F229A40FB689A607B6837
:104E2000012283F835207B68002283F83420002398
:104E300018461037BD4680BD80B483B000AF78609F
:104E40007B6893F83530DBB2022B04D07B6880227C
:104E50005A6501230CE07B68052283F835207B68C6
:104E60001B681A687B681B6822F001021A60002325
:104E700018460C37BD465DF8047B704780B586B098
:104E800000AF78600023BB608E4B1B688E4AA2FB8C
:104E900003239B0A7B617B689B6D3B613B691B68BD
:104EA000FB607B68DB6D08229A40FB681340002B97
:104EB0001AD07B681B681B6803F00403002B13D017
:104EC0007B681B681A687B681B6822F004021A6002
:104ED0007B68DB6D08229A403B699A607B685B6D5A
:104EE00043F001027B685A657B68DB6D01229A40C2
:104EF000FB681340002B12D07B681B685B6903F0D2
:104F00008003002B0BD07B68DB6D01229A403B694C
:104F10009A607B685B6D43F002027B685A657B6830
:104F2000DB6D04229A40FB681340002B12D07B6893
:104F30001B681B6803F00203002B0BD07B68DB6D42
:104F400004229A403B699A607B685B6D43F00402DF
:104F50007B685A657B68DB6D10229A40FB681340C2
:104F6000002B43D07B681B681B6803F00803002BF1
:104F70003CD07B68DB6D10229A403B699A607B686D
:104F80001B681B6803F48023002B18D07B681B6808
:104F90001B6803F40023002B08D17B681B6C002BDB
:104FA00024D07B681B6C786898471FE07B689B6CFB
:104FB000002B1BD07B689B6C7868984716E07B6859
:104FC0001B681B6803F48073002B07D17B681B6888
:104FD0001A687B681B6822F008021A607B681B6CE9
:104FE000002B03D07B681B6C786898477B68DB6D6F
:104FF00020229A40FB681340002B00F08F807B68D2
:105000001B681B6803F01003002B00F087807B688F
:10501000DB6D20229A403B699A607B6893F83530BB
:10502000DBB2052B36D17B681B681A687B681B686E
:1050300022F016021A607B681B685A697B681B683D
:1050400022F080025A617B681B6C002B03D17B68C5
:105050009B6C002B07D07B681B681A687B681B68F9
:1050600022F008021A607B68DB6D3F229A403B69A0
:105070009A607B68012283F835207B68002283F8E0
:1050800034207B681B6D002B7ED07B681B6D78689D
:10509000984779E07B681B681B6803F48023002B2A
:1050A0001DD07B681B681B6803F40023002B0DD107
:1050B0007B685B6C002B31D07B685B6C78689847B1
:1050C0002CE000BF00000020B5814E1B7B68DB6B2D
:1050D000002B23D07B68DB6B786898471EE07B68E9
:1050E0001B681B6803F48073002B0FD17B681B685F
:1050F0001A687B681B6822F010021A607B68012224
:1051000083F835207B68002283F834207B68DB6BD2
:10511000002B03D07B68DB6B786898477B685B6DFE
:10512000002B32D07B685B6D03F00103002B22D093
:105130007B68052283F835207B681B681A687B68CA
:105140001B6822F001021A60BB680133BB607A69F8
:105150009A4207D37B681B681B6803F00103002B8E
:10516000F2D100E000BF7B68012283F835207B6824
:10517000002283F834207B68DB6C002B05D07B6831
:10518000DB6C7868984700E000BF1837BD4680BDEB
:1051900080B483B000AF78607B6893F83530DBB2C1
:1051A00018460C37BD465DF8047B704780B485B067
:1051B00000AFF860B9607A603B60FB681B681A68F2
:1051C000FB681B6822F480221A60FB681B683A683F
:1051D0005A60FB689B68402B08D1FB681B687A68A3
:1051E0009A60FB681B68BA68DA6007E0FB681B68B6
:1051F000BA689A60FB681B687A68DA6000BF143787
:10520000BD465DF8047B704780B485B000AF786020
:105210007B681B68DBB2103B144AA2FB03231B090B
:10522000FB60134AFB6813441B781A467B68DA65F7
:10523000FB68032B09D97B681B6823F47F7323F079
:1052400003031A1D7B689A6507E07B681B6823F4DB
:105250007F7323F003037A6893657B689B6D184620
:105260001437BD465DF8047B704700BFABAAAAAAFD
:1052700030FD000880B485B000AF78600023FB7378
:105280007B689B6ABB607B689B69002B1FD1BB68F6
:10529000032B56D801A252F823F000BFAD520008EC
:1052A000BF520008AD520008435300087B68DB6A18
:1052B00003F08073002B46D00123FB7343E07B682F
:1052C000DB6AB3F1C07F40D10123FB733DE07B6813
:1052D0009B69B3F5005F21D1BB68032B37D801A2CE
:1052E00052F823F0F5520008FB520008F55200086E
:1052F0000D5300080123FB7330E07B68DB6A03F089
:105300008073002B25D00123FB7322E07B68DB6ACE
:10531000B3F1C07F1FD10123FB731CE0BB68022BDC
:1053200003D9BB68032B03D018E00123FB7315E0FE
:105330007B68DB6A03F08073002B0ED00123FB73C4
:105340000BE000BF0AE000BF08E000BF06E000BFBE
:1053500004E000BF02E000BF00E000BFFB7B184696
:105360001437BD465DF8047B704700BF80B489B038
:1053700000AF7860396000237B6100233B6100232C
:10538000BB610023FB616BE10122FB6902FA03F3BD
:105390007B613B681B687A6913403B613A697B69B2
:1053A0009A4240F05A813B685B6803F00303012B8B
:1053B00005D03B685B6803F00303022B30D17B68A8
:1053C0009B68BB61FB695B00032202FA03F3DB43CA
:1053D000BA691340BB613B68DA68FB695B0002FA9B
:1053E00003F3BA691343BB617B68BA699A607B684F
:1053F0005B68BB610122FB6902FA03F3DB43BA6914
:105400001340BB613B685B681B0903F00102FB6949
:1054100002FA03F3BA691343BB617B68BA695A6045
:105420003B685B6803F00303032B17D07B68DB68E2
:10543000BB61FB695B00032202FA03F3DB43BA6939
:105440001340BB613B689A68FB695B0002FA03F397
:10545000BA691343BB617B68BA69DA603B685B6811
:1054600003F00303022B23D1FB69DA087B680832BF
:1054700053F82230BB61FB6903F007039B000F2246
:1054800002FA03F3DB43BA691340BB613B681A6954
:10549000FB6903F007039B0002FA03F3BA691343A5
:1054A000BB61FB69DA087B680832B96943F82210EE
:1054B0007B681B68BB61FB695B00032202FA03F394
:1054C000DB43BA691340BB613B685B6803F00302CE
:1054D000FB695B0002FA03F3BA691343BB617B68A3
:1054E000BA691A603B685B6803F44033002B00F034
:1054F000B4800023FB60604B5B6C5F4A43F48043E5
:1055000053645D4B5B6C03F48043FB60FB685B4A58
:10551000FB699B08023352F82330BB61FB6903F03F
:1055200003039B000F2202FA03F3DB43BA69134023
:10553000BB617B68524A93422BD07B68514A9342AD
:1055400025D07B68504A93421FD07B684F4A9342D4
:1055500019D07B684E4A934213D07B684D4A9342E0
:105560000DD07B684C4A934207D07B684B4A9342EC
:1055700001D107230EE008230CE006230AE00523EF
:1055800008E0042306E0032304E0022302E00123F1
:1055900000E00023FA6902F0030292009340BA6926
:1055A0001343BB613549FB699B080233BA6941F873
:1055B00023203B4B9B68BB613B69DB43BA691340CB
:1055C000BB613B685B6803F48013002B03D0BA69AE
:1055D0003B691343BB61324ABB699360304BDB6864
:1055E000BB613B69DB43BA691340BB613B685B68E5
:1055F00003F40013002B03D0BA693B691343BB616A
:10560000274ABB69D360264B5B68BB613B69DB43C0
:10561000BA691340BB613B685B6803F40033002B3D
:1056200003D0BA693B691343BB611D4ABB69536030
:105630001B4B1B68BB613B69DB43BA691340BB6111
:105640003B685B6803F48033002B03D0BA693B6985
:105650001343BB61124ABB691360FB690133FB61F1
:10566000FB690F2B7FF690AE00BF00BF2437BD460D
:105670005DF8047B704700BF0038024000380140ED
:10568000000002400004024000080240000C0240FA
:10569000001002400014024000180240001C0240AA
:1056A000003C014080B483B000AF78600B467B8043
:1056B00013467B707B78002B03D07A887B689A61D5
:1056C00003E07B881A047B689A6100BF0C37BD46F3
:1056D0005DF8047B7047000080B584B000AF78604F
:1056E0007B68002B01D101232BE17B6893F83D30CF
:1056F000DBB2002B06D17B68002283F83C2078685F
:10570000FBF72AFF7B68242283F83D207B681B6817
:105710001A687B681B6822F001021A607B681B68AC
:105720001A687B681B6842F400421A607B681B6839
:105730001A687B681B6822F400421A6002F04EFA75
:10574000F8607B685B68814A934207D8FB68804AAF
:10575000934294BF01230023DBB206E0FB687D4A3D
:10576000934294BF01230023DBB2002B01D001231D
:10577000E7E0FB68784AA2FB03239B0CBB607B68D5
:105780001B685B6823F03F017B681B68BA680A43AB
:105790005A607B681B681B6A23F03F017B685B686B
:1057A0006A4A934202D8BB68013309E0BB684FF4F0
:1057B000967202FB03F3694AA2FB03239B090133A0
:1057C0007A6812680B4313627B681B68DB6923F4F9
:1057D0004F4222F0FF027B685B685C498B4219D81C
:1057E000FB68591E7B685B685B00B1FBF3F3591CD7
:1057F00040F6FC730B40002B0AD0FB68591E7B68F7
:105800005B685B00B1FBF3F30133C3F30B0351E0BF
:1058100004234FE07B689B68002B11D1FB68581E66
:105820007B6859680B465B000B44B0FBF3F3013314
:10583000C3F30B03002B0CBF01230023DBB212E0E8
:10584000FB68581E7B6859680B469B000B44990007
:105850000B44B0FBF3F30133C3F30B03002B0CBF7A
:1058600001230023DBB2002B01D0012322E07B685F
:105870009B68002B0ED1FB68581E7B6859680B464D
:105880005B000B44B0FBF3F30133C3F30B0343F4AE
:1058900000430FE0FB68581E7B6859680B469B006D
:1058A0000B4499000B44B0FBF3F30133C3F30B0338
:1058B00043F44043796809681343CB617B681B68F4
:1058C0001B6823F0C0017B68DA697B681B6A1A4396
:1058D0007B681B680A431A607B681B689B6823F41B
:1058E000034323F0FF037A6811697A68D268114391
:1058F0007A6812680B4393607B681B68DB6823F04F
:10590000FF017B685A697B689B691A437B681B6847
:105910000A43DA607B681B681A687B681B6842F080
:1059200001021A607B6800221A647B68202283F8D7
:105930003D207B6800221A637B68002283F83E20AA
:10594000002318461037BD4680BD00BFA086010069
:105950007F841E00FF083D0083DE1B43D34D621091
:1059600080B483B000AF78607B681B685B6903F02C
:105970008003802B03D17B681B6800221A6100BF63
:105980000C37BD465DF8047B704780B588B000AF2A
:1059900078600023BB617B681B685B687B617B6808
:1059A000DB6A3B617B6893F83E30FB737B6893F85E
:1059B0003D30BB73FB7B102B03D0FB7B402B40F0B7
:1059C000C1807B681B689B69BB617B681B685B69E6
:1059D000FB61FB6903F00103002B0DD13B69B3F5BB
:1059E0002A0F03D03B69B3F12A4F01D1012300E014
:1059F0000023012B00F03281FB6903F00103002B2F
:105A00000CD07B695B0A03F00103002B06D0786899
:105A100001F098FC786800F09BFD92E0FB69DB08E0
:105A200003F00103002B09D07B695B0A03F001033B
:105A3000002B03D0786800F011FE82E0FB695B0860
:105A400003F00103002B09D07B695B0A03F001031B
:105A5000002B03D0786800F02BFE72E0BB699B0836
:105A600003F00103002B3BD07B681B685B6803F4E9
:105A70000063B3F5006F00F0F380FB69DB0903F00E
:105A80000103002B0FD07B699B0A03F00103002B5D
:105A900009D0FB699B0803F00103002B03D1786850
:105AA00000F0F3F94DE0FB699B0803F00103002BC4
:105AB00000F0D6807B695B0A03F00103002B00F045
:105AC000CF80BB7B212B03D1786800F07AFAC7E046
:105AD000FB7B402B40F0C480786800F0E8FABFE020
