:020000040800F2
:1000000000000220E9180008ED140008F5140008AB
:10001000FD140008051500080D150008000000007B
:10002000000000000000000000000000151500089E
:100030002315000800000000311500083F150008D6
:100040003919000839190008391900083919000848
:100050003919000839190008391900083919000838
:100060003919000839190008391900083919000828
:100070003919000839190008391900083919000818
:100080003919000839190008391900083919000808
:1000900039190008391900083919000839190008F8
:1000A00039190008391900083919000839190008E8
:1000B0004D150008391900083919000839190008C8
:1000C000391900086115000875150008391900086C
:1000D000391900083919000839190008891500086C
:1000E00039190008391900083919000839190008A8
:1000F0003919000839190008391900083919000898
:100100003919000839190008391900083919000887
:100110003919000839190008391900083919000877
:100120003919000839190008391900083919000867
:100130003919000839190008391900083919000857
:100140003919000839190008391900083919000847
:100150003919000839190008391900089D150008D7
:100160003919000839190008391900083919000827
:100170003919000839190008391900080000000071
:080180003919000839190008C3
:1001900010B5054C237833B9044B13B10448AFF3C1
:1001A00000800123237010BD5C00002000000000CF
:1001B0009C6B000808B5034B1BB103490348AFF320
:1001C000008008BD00000000600000209C6B00085B
:1001D00001F0FF01102A2BDB10F0070F08D010F8F8
:1001E000013B013A8B422DD010F0070F42B3F6D1FC
:1001F000F0B441EA012141EA014122F007047FF015
:1002000000070023F0E80256083C85EA010586EA6B
:10021000010685FA47F5A3FA87F586FA47F6A5FAA7
:1002200087F68EB9EED1F0BC01F0FF0102F00702B3
:1002300032B110F8013B013A83EA010313B1F8D15E
:100240000020704701387047002D06BF354603383F
:10025000073815F0010F07D1013015F4807F02BF78
:10026000013015F4C03F0130F0BC0138704700BFC9
:1002700053B94AB9002908BF00281CBF4FF0FF310D
:100280004FF0FF3000F088B9ADF1080C6DE904CEF5
:1002900000F006F8DDF804E0DDE9022304B0704761
:1002A0002DE9F047089D8E4604468846002B4AD12A
:1002B0008A42174662D9B2FA82F64EB1C6F12003DD
:1002C00001FA06F820FA03F3B74043EA0808B440FD
:1002D0004FEA174E1FFA87FCB8FBFEF1230C0EFB0A
:1002E000118843EA084301FB0CF29A4209D9FB1832
:1002F00001F1FF3080F0EA809A4240F2E780023953
:100300003B449A1AA3B2B2FBFEF00EFB102243EA62
:10031000024300FB0CFC9C4509D9FB1800F1FF329D
:1003200080F0D6809C4540F2D3803B44023840EABE
:100330000140A3EB0C0300211DB1F3400022C5E9ED
:100340000032BDE8F0878B4205D90DB1C5E9000147
:1003500000210846F5E7B3FA83F1002946D1734539
:1003600002D3824200F20581841A6EEB030201205F
:100370009046002DE5D0C5E90048E2E7002A00F0EC
:100380009080B2FA82F6002E40F0A4808A1A030C04
:100390004FEA174E80B2BCB20121B2FBFEFC0EFB4D
:1003A0001C2243EA024304FB0CF29A4207D9FB18D1
:1003B0000CF1FF3802D29A4200F2E080C4469B1A48
:1003C000B3FBFEF20EFB123340EA034302FB04F4DC
:1003D0009C4207D9FB1802F1FF3002D29C4200F286
:1003E000CA8002461B1B42EA0C40A5E7C1F1200669
:1003F0008B4022FA06F71F430EFA01F420FA06F3A7
:100400002EFA06FE4FEA1749234300FA01F81FFAB5
:1004100087FCBEFBF9F01C0C09FB10EE44EA0E440D
:1004200000FB0CFEA64502FA01F209D93C1900F1C5
:10043000FF3A80F09C80A64540F2998002383C4407
:10044000A4EB0E041FFA83FEB4FBF9F309FB13447B
:100450004EEA044403FB0CFCA44508D93C1903F103
:10046000FF3E80F08280A4457FD9023B3C4443EAB2
:100470000040A4EB0C04A0FB02EC64457346E1468B
:1004800062D35FD05DB1B8EB030264EB090404FAF8
:1004900006F622FA01F31E43CC40C5E900640021B0
:1004A0004FE7B1FBF2FC010C41EA0E4180B240EA99
:1004B00001423B4638463C46B846BE462026B1FB84
:1004C000F7F1A2EB080241EA0C4166E7014618E7A2
:1004D00010462CE7C6F120022EFA02F3B740B140D5
:1004E00020FA02F24FEA174E0A43B3FBFEF8BCB201
:1004F0000EFB1833110C41EA034108FB04F9B0402C
:1005000089454FEA104380B23ED9791808F1FF3C83
:1005100001D289451FD8A1EB0901B1FBFEF909FB06
:1005200004F80EFB191192B242EA0142424529D267
:10053000BA1809F1FF31C4D24245C2D2A9F1020171
:100540003A44BEE7F0459DD2BEEB02036CEB070CCC
:100550000138E14696E7A7EB09094944A8F1020CE6
:10056000B1FBFEF909FB04F8DBE773467FE7504671
:1005700066E70846FDE63B44023A33E7ACF1020C7D
:100580003B441CE749469CE7A1EB0901C446B1FB8B
:10059000FEF909FB04F8C4E7704700BF80B58EB0D0
:1005A00000AF07F11C0300221A605A609A60DA60FB
:1005B0001A615A619A613B4600221A605A609A6039
:1005C000DA601A615A619A612F4B4FF020421A602B
:1005D0002D4B2E4A5A602C4B00229A602A4B002247
:1005E000DA60294B00221A61274B10225A61264BF0
:1005F00000229A61244B0022DA61234B00221A6206
:10060000214B00225A62204B4FF480529A621E4BBB
:100610000022DA621C4B4FF480421A631A4B00220C
:100620005A63194B00229A63174B00225A640F2316
:10063000FB610F233B623C237B620023BB621023E0
:10064000FB6211233B6300237B6308233B600F2382
:100650007B600923BB600023FB6010233B611123F7
:100660007B610023BB613A4607F11C03194606482B
:1006700004F0AFF80346002B01D000F08BFE00BF62
:100680003837BD4680BD00BF78000020040100A0BF
:1006900080B586B000AF3B1D00221A605A609A6098
:1006A000DA601A611C4B1B68002B31D11A4B0122F6
:1006B0001A6000233B60194B9B6B184A43F00103FF
:1006C0009363164B9B6B03F001033B603B684FF653
:1006D00088737B600223BB600023FB6003233B61C4
:1006E0000C237B613B1D19460D4801F06FFB4CF25A
:1006F000B3737B600223BB600023FB6003233B6179
:100700000C237B613B1D1946064801F05FFB00E0AE
:1007100000BF1837BD4680BDC80000200038024029
:1007200000100240000C024080B582B000AF78603B
:10073000FFF7AEFF00BF0837BD4680BD80B58CB067
:1007400000AF07F11C0300221A605A609A60DA6059
:100750001A610023BB615A4B1B6B594A43F01003CB
:100760001363574B1B6B03F01003BB61BB69002382
:100770007B61534B1B6B524A43F004031363504B92
:100780001B6B03F004037B617B6900233B614C4BD3
:100790001B6B4B4A43F080031363494B1B6B03F005
:1007A00080033B613B690023FB60454B1B6B444A64
:1007B00043F002031363424B1B6B03F00203FB6025
:1007C000FB680023BB603E4B1B6B3D4A43F00803B4
:1007D00013633B4B1B6B03F00803BB60BB68002338
:1007E0007B60374B1B6B364A43F040031363344B3B
:1007F0001B6B03F040037B607B6800233B60304B46
:100800001B6B2F4A43F0010313632D4B1B6B03F04B
:1008100001033B603B6800224FF40051294801F07E
:1008200071FC00224021284801F06CFC00224FF4AA
:100830000141264801F066FC00220821244801F00D
:1008400061FC4FF40053FB6101233B6200237B6298
:100850000023BB6207F11C0319461A4801F0B6FADF
:100860004023FB6101233B6200237B620023BB62C8
:1008700007F11C031946144801F0A8FA4FF401438C
:10088000FB6101233B6200237B620023BB6207F113
:100890001C0319460D4801F099FA0823FB61012356
:1008A0003B6200237B620023BB6207F11C031946F5
:1008B000074801F08BFA00BF3037BD4680BD00BF4E
:1008C00000380240000802400018024000000240C8
:1008D000000C024080B582B000AF78604FF47A73AC
:1008E00001227968064804F015FC0346002B01D16B
:1008F000012300E0002318460837BD4680BD00BF35
:100900001402002080B500AF124B134A1A60114B3D
:10091000124A5A600F4B00229A600E4B6022DA6036
:100920000C4B4FF480421A610A4B00225A61094B6A
:1009300000229A61074B0022DA61064B00221A62FC
:10094000044801F013FC0346002B01D000F022FD07
:1009500000BF80BDCC00002000580040A0860100F0
:1009600080B58AB000AF786007F1140300221A60E6
:100970005A609A60DA601A617B681B68214A934268
:100980003CD100233B61204B1B6B1F4A43F0020309
:1009900013631D4B1B6B03F002033B613B694FF478
:1009A00040637B611223BB610123FB6103233B6234
:1009B00004237B6207F114031946144801F006FA78
:1009C0000023FB60104B1B6C0F4A43F4800313643D
:1009D0000D4B1B6C03F48003FB60FB6800220021BD
:1009E000212001F01CF9212001F035F9002200211D
:1009F000222001F014F9222001F02DF900BF283740
:100A0000BD4680BD0058004000380240000402404E
:100A100080B483B000AF0346FB804FF0C042FB8838
:100A2000138000BF0C37BD465DF8047B70470000A3
:100A300080B483B000AF0346FB80044AFB88138078
:100A400000BF0C37BD465DF8047B704700001060A6
:100A500080B400AF034B1B889BB21846BD465DF8BF
:100A6000047B70470000106090B583B000AF04466F
:100A7000084611461A462346FB800346BB800B46B8
:100A80007B8013463B802A20FFF7C2FFFB881B0AAE
:100A90009BB21846FFF7CCFFFB88DBB29BB218462F
:100AA000FFF7C6FF7B881B0A9BB21846FFF7C0FF03
:100AB0007B88DBB29BB21846FFF7BAFF2B20FFF70B
:100AC000A7FFBB881B0A9BB21846FFF7B1FFBB8884
:100AD000DBB29BB21846FFF7ABFF3B881B0A9BB209
:100AE0001846FFF7A5FF3B88DBB29BB21846FFF71D
:100AF0009FFF2C20FFF78CFF00BF0C37BD4690BD39
:100B000080B584B000AF0346FB80134B1B881A46A8
:100B1000114B5B8802FB03F3BB600F4B1B88013B4F
:100B20009AB20D4B5B88013B9BB200210020FFF77E
:100B30009BFF0023FB6006E0FB881846FFF778FF69
:100B4000FB680133FB60FA68BB689A42F4D300BFCC
:100B500000BF1037BD4680BD2001002090B585B094
:100B600000AF0446084611461A462346FB8003465A
:100B7000BB800B467B8013463B807A88FB88D31A68
:100B8000013319463A88BB88D31A013301FB03F3BA
:100B9000BB603B887A88B988F888FFF765FF002337
:100BA000FB6006E03B8C1846FFF742FFFB68013311
:100BB000FB60FA68BB689A42F4D300BF00BF1437E9
:100BC000BD4690BD80B582B000AF0346FB800B46AA
:100BD000BB8013467B80BB88FA88B988F888FFF70A
:100BE00043FF7B881846FFF723FF00BF0837BD4649
:100BF00080BD000090B587B000AF0446084611469E
:100C00001A462346FB800346BB800B46FB70134607
:100C10003B8000237B75FB883B8297F82C305B0878
:100C2000FB73FB7BDB08DBB21A46FB7B03F007039D
:100C3000DBB2002B14BF01230023DBB213449AB2B2
:100C400097F82C309BB212FB03F3BB81FB78203B5F
:100C5000FB70FB7B9AB2FB8813449BB2013B9CB2B6
:100C600097F82C309AB2BB8813449BB2013B9BB2DD
:100C7000B988F8882246FFF7F7FE00237B8286E0DA
:100C800097F82C300C2B0BD1FA78798A454813460B
:100C90005B0013449B0003440B441B78FB7528E066
:100CA00097F82C30102B08D1FA787B8A3E49120134
:100CB0000A4413441B78FB751BE097F82C30182B63
:100CC0000BD1FA78798A394813465B0013441B012B
:100CD00003440B441B78FB750BE097F82C30202B5A
:100CE0005BD1FA787B8A324992010A4413441B781B
:100CF000FB750023BB7544E097F83030002B20D102
:100D0000FA7DBB7D42FA03F303F00103002B04D00C
:100D10003B881846FFF78CFE03E03B8D1846FFF733
:100D200087FE7B7D01337B757B7DFA7BB3FBF2F124
:100D300001FB02F29B1ADBB2002B1FD100237B7553
:100D400022E0FA7DBB7D42FA03F303F00103002B9E
:100D500005D03A88B988FB881846FFF733FFFB882F
:100D60000133FB80FA883B8AD21AFB7B9A4205D179
:100D70003B8AFB80BB880133BB8005E0BB7D013330
:100D8000BB75BB7D072BB7D97B8A01337B827A8AFF
:100D9000BB899A42FFF474AF00E000BF1C37BD4628
:100DA00090BD00BFF86B00086C7000085C7600080E
:100DB0002C88000890B58BB004AFBA601A46034681
:100DC000FB810B46BB811346FB80FB89BB82002362
:100DD000FB7548E0FB7D002B45D1FA89264B1B882B
:100DE000194697F82C305B08DBB2CB1A9A423FDCED
:100DF000BA89214B5B88194697F82C30CB1A9A4256
:100E000036DCBB681B78802B02D90123FB752AE0F6
:100E1000BB681B780D2B0BD197F82C309AB2BB898D
:100E20001344BB81BB8AFB81BB680133BB6017E005
:100E3000BB681A78FC88B989F88997F83030029332
:100E400097F82C3001933B8D00932346FFF7D2FE99
:100E500097F82C305B08DBB21A46FB891344FB8100
:100E6000BB680133BB60BB681B78002BB2D100E0CC
:100E700000BF1C37BD4690BD2001002080B483B068
:100E800000AF0346FB71FB7903F03003DBB2002BAC
:100E900007D00A4B4FF4A0721A80084BF0225A80F8
:100EA00006E0064BF0221A80044B4FF4A0725A80E1
:100EB00000BF0C37BD465DF8047B70472001002061
:100EC00080B500AF00224FF40051AA4801F01AF992
:100ED0004FF4FA7000F0A4FD01224FF40051A54830
:100EE00001F010F94FF4FA7000F09AFD0020FFF7BE
:100EF000C5FFD320FFF78CFDFFF7AAFD03461A4676
:100F00009D4B9A80FFF7A4FD03461A469A4B9A80A0
:100F1000FFF79EFD03461A46974B9A80964B9B8897
:100F20001B029AB2944B9A80FFF792FD03461A4631
:100F3000914B9B8813439AB28F4B9A80CF20FFF737
:100F400067FD0020FFF774FDC120FFF771FD302021
:100F5000FFF76EFDED20FFF75BFD6420FFF768FDF6
:100F60000320FFF765FD1220FFF762FD8120FFF7E8
:100F70005FFDE820FFF74CFD8520FFF759FD1020AD
:100F8000FFF756FD7A20FFF753FDCB20FFF740FD1A
:100F90003920FFF74DFD2C20FFF74AFD0020FFF719
:100FA00047FD3420FFF744FD0220FFF741FDF72005
:100FB000FFF72EFD2020FFF73BFDEA20FFF728FD7D
:100FC0000020FFF735FD0020FFF732FDC020FFF7BE
:100FD0001FFD1B20FFF72CFDC120FFF719FD01208D
:100FE000FFF726FDC520FFF713FD3020FFF720FD9A
:100FF0003020FFF71DFDC720FFF70AFDB720FFF7E0
:1010000017FD3620FFF704FD0820FFF711FD3A20F9
:10101000FFF7FEFC5520FFF70BFDB120FFF7F8FCB2
:101020000020FFF705FD1A20FFF702FDB620FFF7AD
:10103000EFFC0A20FFF7FCFCA220FFF7F9FCF220EE
:10104000FFF7E6FC0020FFF7F3FC2620FFF7E0FCAB
:101050000120FFF7EDFCE020FFF7DAFC0F20FFF79F
:10106000E7FC2A20FFF7E4FC2820FFF7E1FC08203A
:10107000FFF7DEFC0E20FFF7DBFC0820FFF7D8FCB3
:101080005420FFF7D5FCA920FFF7D2FC4320FFF73F
:10109000CFFC0A20FFF7CCFC0F20FFF7C9FC002093
:1010A000FFF7C6FC0020FFF7C3FC0020FFF7C0FCE1
:1010B0000020FFF7BDFCE120FFF7AAFC0020FFF7AE
:1010C000B7FC1520FFF7B4FC1720FFF7B1FC072091
:1010D000FFF7AEFC1120FFF7ABFC0620FFF7A8FCE2
:1010E0002B20FFF7A5FC5620FFF7A2FC3C20FFF7C2
:1010F0009FFC0520FFF79CFC1020FFF799FC0F20B8
:10110000FFF796FC3F20FFF793FC3F20FFF790FC92
:101110000F20FFF78DFC2B20FFF77AFC0020FFF754
:1011200087FC0020FFF784FC0120FFF781FC3F20B3
:10113000FFF77EFC2A20FFF76BFC0020FFF778FC0E
:101140000020FFF775FC0020FFF772FCEF20FFF78F
:101150006FFC1120FFF75CFC782000F061FC292077
:10116000FFF756FC01224FF48071044800F0CAFFDB
:1011700000BF80BD000802402001002000000240A6
:1011800080B58AB004AF00F0D9FB00F099F8FFF702
:10119000D5FA00F0C9FAFFF701FA00F001F900F002
:1011A0004FFAFFF7AFFB00F0E9FAFFF789FE4FF6C1
:1011B000FF70FFF7A5FC00230293182301934FF65D
:1011C000FF7300934FF47843374A0A210A20FFF750
:1011D000F1FD00230293182301934FF6FF73009350
:1011E0001F23324A28210A20FFF7E4FD002302933F
:1011F000182301934FF6FF73009300232C4A6421B8
:101200000A20FFF7D7FD00230293182301934FF61E
:10121000FF7300930023274A82210A20FFF7CAFDAB
:101220000023FB7507F117031846FFF753FB03462E
:10123000012BF7D14FF6FF7300937C23A02264218A
:101240007820FFF78BFCFA7D00230293182301938B
:101250004FF6FF7300934FF4784364217820FFF733
:10126000C9FCFB7D1A463B461349184604F0F6FFBD
:101270004FF6FF7300939A23962282214620FFF7B0
:101280006DFC3A4600230293182301934FF6FF7337
:1012900000931F2382214620FFF78CFD4FF400515D
:1012A000064800F048FFBDE7B46B0008C86B0008B3
:1012B000DC6B0008E86B0008F06B0008000C0240D3
:1012C00080B594B000AF07F120033022002118460A
:1012D00004F0E6FF07F10C0300221A605A609A60DE
:1012E000DA601A610023BB60284B1B6C274A43F06D
:1012F00080531364254B1B6C03F08053BB60BB68A9
:1013000000237B60224B1B68214A43F48043136017
:101310001F4B1B6803F480437B607B6802233B62A6
:101320000123FB6210233B630223BB630023FB63A7
:1013300008233B64A8237B640223BB640423FB646F
:1013400007F12003184602F063FD0346002B01D08D
:1013500000F020F80F23FB6002233B6100237B6138
:101360004FF4A053BB614FF4A053FB6107F10C0392
:101370000521184602F0C4FF0346002B01D000F0FF
:1013800009F800BF5037BD4680BD00BF003802409D
:101390000070004080B400AF72B600BF00BFFDE730
:1013A00080B500AF174B184A1A60164B4FF4827283
:1013B0005A60144B00229A60124B0022DA60114BE3
:1013C00000221A610F4B00225A610E4B4FF400723B
:1013D0009A610C4B0022DA610A4B00221A62094B17
:1013E00000225A62074B00229A62064B0A22DA62F6
:1013F000044803F065F90346002B01D0FFF7CAFF4C
:1014000000BF80BD280100200030014080B58AB0B7
:1014100000AF786007F1140300221A605A609A60E6
:10142000DA601A617B681B68194A93422BD100234A
:101430003B61184B5B6C174A43F480535364154B64
:101440005B6C03F480533B613B690023FB60114BF1
:101450001B6B104A43F0020313630E4B1B6B03F02C
:101460000203FB60FB6838237B610223BB6100231E
:10147000FB6103233B6205237B6207F114031946DA
:10148000054800F0A3FC00BF2837BD4680BD00BF63
:1014900000300140003802400004024080B483B0B4
:1014A00000AF00237B60104B5B6C0F4A43F480431A
:1014B00053640D4B5B6C03F480437B607B680023BB
:1014C0003B60094B1B6C084A43F080531364064B86
:1014D0001B6C03F080533B603B6800BF0C37BD467C
:1014E0005DF8047B704700BF0038024080B400AF55
:1014F00000BFFDE780B400AF00BFFDE780B400AFE0
:1015000000BFFDE780B400AF00BFFDE780B400AFCF
:1015100000BFFDE780B400AF00BFBD465DF8047BAF
:10152000704780B400AF00BFBD465DF8047B7047D4
:1015300080B400AF00BFBD465DF8047B704780B546
:1015400000AF00F04DFA00BF80BD000080B500AFD5
:10155000024803F0D5F900BF80BD00BF8401002020
:1015600080B500AF024800F05AFF00BF80BD00BF49
:10157000CC00002080B500AF024801F0C1F800BFE8
:1015800080BD00BFCC00002080B500AF024803F052
:1015900059FE00BF80BD00BFCC01002080B500AF68
:1015A000024803F04FFE00BF80BD00BF14020020C0
:1015B00080B586B000AF7860144A154BD31A7B61B2
:1015C0007B693B61134B1B68002B02D1114B124A04
:1015D0001A60104B1A687B6813443A699A4207D222
:1015E00004F066FE03460C221A604FF0FF3309E058
:1015F000084B1B68FB60074B1A687B681344054A5D
:101600001360FB6818461837BD4680BD00000220F5
:101610000004000080010020A803002080B400AF77
:10162000064BD3F88830054A43F47003C2F888307B
:1016300000BFBD465DF8047B704700BF00ED00E0D1
:1016400080B586B000AF07F1080300221A605A6027
:101650009A60DA603B4600221A605A601E4B4FF0D7
:1016600080421A601C4B40F247325A601A4B0022EB
:101670009A60194B4FF0FF32DA60174B00221A6163
:10168000154B00229A61144803F0EBF80346002B37
:1016900001D0FFF77FFE4FF48053BB6007F10803D2
:1016A00019460D4803F01CFA0346002B01D0FFF742
:1016B00071FE00233B6000237B603B4619460648D1
:1016C00003F048FC0346002B01D0FFF763FE00BF88
:1016D0001837BD4680BD00BF8401002080B584B0AE
:1016E00000AF78607B681B68B3F1804F15D1002391
:1016F000FB600C4B1B6C0B4A43F001031364094B5A
:101700001B6C03F00103FB60FB68002200211C201E
:1017100000F085FA1C2000F09EFA00BF1037BD468D
:1017200080BD00BF0038024080B500AF114B124AA7
:101730001A60104B4FF416525A600E4B00229A60FA
:101740000C4B0022DA600B4B00221A61094B0C2271
:101750005A61084B00229A61064B0022DA61054863
:1017600003F088FC0346002B01D0FFF713FE00BFF7
:1017700080BD00BFCC0100200048004080B500AF14
:10178000114B124A1A60104B4FF416525A600E4B0E
:1017900000229A600C4B0022DA600B4B00221A6187
:1017A000094B0C225A61084B00229A61064B002219
:1017B000DA61054803F05EFC0346002B01D0FFF719
:1017C000E9FD00BF80BD00BF1402002000140140ED
:1017D00080B58CB000AF786007F11C0300221A605E
:1017E0005A609A60DA601A617B681B683A4A9342D1
:1017F00035D10023BB61394B1B6C384A43F480233D
:101800001364364B1B6C03F48023BB61BB6900235C
:101810007B61324B1B6B314A43F0040313632F4B44
:101820001B6B03F004037B617B694FF44063FB6136
:1018300002233B6200237B620323BB620723FB621C
:1018400007F11C031946264800F0C0FA00220021C7
:10185000272000F0E4F9272000F0FDF938E07B684C
:101860001B68204A934233D100233B611B4B5B6CC6
:101870001A4A43F020035364184B5B6C03F02003B7
:101880003B613B690023FB60144B1B6B134A43F025
:1018900004031363114B1B6B03F00403FB60FB6831
:1018A000C023FB6102233B6200237B620323BB62F4
:1018B0000823FB6207F11C031946094800F086FA69
:1018C00000220021472000F0AAF9472000F0C3F9C8
:1018D00000BF3037BD4680BD0048004000380240A0
:1018E0000008024000140140DFF834D0FFF796FEF4
:1018F0000C480D490D4A002302E0D458C45004336B
:10190000C4188C42F9D30A4A0A4C002301E0136040
:101910000432A242FBD304F0D1FCFFF731FC704744
:1019200000000220000000205C00002048A0000809
:101930005C000020A8030020FEE7000080B500AF97
:101940000E4B1B680D4A43F4007313600B4B1B686E
:101950000A4A43F480631360084B1B68074A43F448
:1019600080731360032000F04FF90F2000F008F897
:10197000FFF794FD0023184680BD00BF003C0240E5
:1019800080B582B000AF7860124B1A68124B1B789A
:1019900019464FF47A73B3FBF1F3B2FBF3F3184635
:1019A00000F067F90346002B01D001230EE07B68AD
:1019B0000F2B0AD8002279684FF0FF3000F02FF982
:1019C000064A7B681360002300E0012318460837AD
:1019D000BD4680BD0000002008000020040000205B
:1019E00080B400AF064B1B781A46064B1B681344A5
:1019F000044A136000BFBD465DF8047B704700BF1A
:101A0000080000205C02002080B400AF034B1B687C
:101A10001846BD465DF8047B704700BF5C0200209D
:101A200080B584B000AF7860FFF7EEFFB8607B68E8
:101A3000FB60FB68B3F1FF3F05D00A4B1B781A46E9
:101A4000FB681344FB6000BFFFF7DEFF0246BB6884
:101A5000D31AFA689A42F7D800BF00BF1037BD46C4
:101A600080BD00BF0800002080B485B000AF786062
:101A70007B6803F00703FB600C4BDB68BB60BA6854
:101A80004FF6FF031340BB60FB681A02BB681343A9
:101A900043F0BF6343F40033BB60044ABB68D360C8
:101AA00000BF1437BD465DF8047B704700ED00E0D1
:101AB00080B400AF044BDB681B0A03F00703184631
:101AC000BD465DF8047B704700ED00E080B483B054
:101AD00000AF0346FB7197F90730002B0BDBFB7956
:101AE00003F01F02074997F907305B09012000FA4C
:101AF00002F241F8232000BF0C37BD465DF8047B9D
:101B0000704700BF00E100E080B483B000AF03463F
:101B10003960FB7197F90730002B0ADB3B68DAB2BA
:101B20000C4997F907301201D2B20B4483F8002315
:101B30000AE03B68DAB20849FB7903F00F03043B83
:101B40001201D2B20B441A7600BF0C37BD465DF8C5
:101B5000047B704700E100E000ED00E080B489B054
:101B600000AFF860B9607A60FB6803F00703FB61BF
:101B7000FB69C3F10703042B28BF0423BB61FB6986
:101B80000433062B02D9FB69033B00E000237B6191
:101B90004FF0FF32BB6902FA03F3DA43BB681A4025
:101BA0007B699A404FF0FF317B6901FA03F3D94317
:101BB0007B680B40134318462437BD465DF8047B11
:101BC0007047000080B582B000AF78607B68013B51
:101BD000B3F1807F01D301230FE00A4A7B68013B08
:101BE00053600F214FF0FF30FFF78EFF054B0022AF
:101BF0009A60044B07221A60002318460837BD4636
:101C000080BD00BF10E000E080B582B000AF78601A
:101C10007868FFF729FF00BF0837BD4680BD80B553
:101C200086B000AF0346B9607A60FB7300237B6126
:101C3000FFF73EFF78617A68B9687869FFF78EFF31
:101C4000024697F90F3011461846FFF75DFF00BFB7
:101C50001837BD4680BD80B582B000AF0346FB712A
:101C600097F907301846FFF731FF00BF0837BD4628
:101C700080BD80B582B000AF78607868FFF7A2FFC2
:101C8000034618460837BD4680BD80B584B000AF16
:101C900078607B689B6DFB60FFF7B6FEB8607B6881
:101CA00093F83530DBB2022B08D07B6880225A656E
:101CB0007B68002283F83420012352E07B681B6894
:101CC0001A687B681B6822F016021A607B681B6822
:101CD0005A697B681B6822F080025A617B681B6C22
:101CE000002B03D17B689B6C002B07D07B681B68A3
:101CF0001A687B681B6822F008021A607B681B6800
:101D00001A687B681B6822F001021A6013E0FFF773
:101D10007BFE0246BB68D31A052B0CD97B682022B8
:101D20005A657B68032283F835207B68002283F89C
:101D30003420032315E07B681B681B6803F0010354
:101D4000002BE4D17B68DB6D3F229A40FB689A60F0
:101D50007B68012283F835207B68002283F83420D9
:101D6000002318461037BD4680BD80B483B000AF55
:101D700078607B6893F83530DBB2022B04D07B6847
:101D800080225A6501230CE07B68052283F8352008
:101D90007B681B681A687B681B6822F001021A6066
:101DA000002318460C37BD465DF8047B704780B4AD
:101DB00083B000AF78607B6893F83530DBB21846AB
:101DC0000C37BD465DF8047B7047000080B489B0D5
:101DD00000AF7860396000237B6100233B61002302
:101DE000BB610023FB616BE10122FB6902FA03F393
:101DF0007B613B681B687A6913403B613A697B6988
:101E00009A4240F05A813B685B6803F00303012B60
:101E100005D03B685B6803F00303022B30D17B687D
:101E20009B68BB61FB695B00032202FA03F3DB439F
:101E3000BA691340BB613B68DA68FB695B0002FA70
:101E400003F3BA691343BB617B68BA699A607B6824
:101E50005B68BB610122FB6902FA03F3DB43BA69E9
:101E60001340BB613B685B681B0903F00102FB691F
:101E700002FA03F3BA691343BB617B68BA695A601B
:101E80003B685B6803F00303032B17D07B68DB68B8
:101E9000BB61FB695B00032202FA03F3DB43BA690F
:101EA0001340BB613B689A68FB695B0002FA03F36D
:101EB000BA691343BB617B68BA69DA603B685B68E7
:101EC00003F00303022B23D1FB69DA087B68083295
:101ED00053F82230BB61FB6903F007039B000F221C
:101EE00002FA03F3DB43BA691340BB613B681A692A
:101EF000FB6903F007039B0002FA03F3BA6913437B
:101F0000BB61FB69DA087B680832B96943F82210C3
:101F10007B681B68BB61FB695B00032202FA03F369
:101F2000DB43BA691340BB613B685B6803F00302A3
:101F3000FB695B0002FA03F3BA691343BB617B6878
:101F4000BA691A603B685B6803F44033002B00F009
:101F5000B4800023FB60604B5B6C5F4A43F48043BA
:101F600053645D4B5B6C03F48043FB60FB685B4A2E
:101F7000FB699B08023352F82330BB61FB6903F015
:101F800003039B000F2202FA03F3DB43BA691340F9
:101F9000BB617B68524A93422BD07B68514A934283
:101FA00025D07B68504A93421FD07B684F4A9342AA
:101FB00019D07B684E4A934213D07B684D4A9342B6
:101FC0000DD07B684C4A934207D07B684B4A9342C2
:101FD00001D107230EE008230CE006230AE00523C5
:101FE00008E0042306E0032304E0022302E00123C7
:101FF00000E00023FA6902F0030292009340BA69FC
:102000001343BB613549FB699B080233BA6941F848
:1020100023203B4B9B68BB613B69DB43BA691340A0
:10202000BB613B685B6803F48013002B03D0BA6983
:102030003B691343BB61324ABB699360304BDB6839
:10204000BB613B69DB43BA691340BB613B685B68BA
:1020500003F40013002B03D0BA693B691343BB613F
:10206000274ABB69D360264B5B68BB613B69DB4396
:10207000BA691340BB613B685B6803F40033002B13
:1020800003D0BA693B691343BB611D4ABB69536006
:102090001B4B1B68BB613B69DB43BA691340BB61E7
:1020A0003B685B6803F48033002B03D0BA693B695B
:1020B0001343BB61124ABB691360FB690133FB61C7
:1020C000FB690F2B7FF690AE00BF00BF2437BD46E3
:1020D0005DF8047B704700BF0038024000380140C3
:1020E000000002400004024000080240000C0240D0
:1020F000001002400014024000180240001C024080
:10210000003C014080B483B000AF78600B467B8018
:1021100013467B707B78002B03D07A887B689A61AA
:1021200003E07B881A047B689A6100BF0C37BD46C8
:102130005DF8047B704780B485B000AF78600B46D3
:102140007B807B685B69FB607A88FB6813401A04BC
:10215000FB68D9437B880B401A437B689A6100BFB8
:102160001437BD465DF8047B7047000080B584B02D
:1021700000AF78607B68002B01D101232BE17B68E5
:1021800093F83D30DBB2002B06D17B68002283F848
:102190003C207868FEF7E4FB7B68242283F83D202E
:1021A0007B681B681A687B681B6822F001021A6052
:1021B0007B681B681A687B681B6842F400421A60DF
:1021C0007B681B681A687B681B6822F400421A60EF
:1021D00002F04EFAF8607B685B68814A934207D848
:1021E000FB68804A934294BF01230023DBB206E0E0
:1021F000FB687D4A934294BF01230023DBB2002B8E
:1022000001D00123E7E0FB68784AA2FB03239B0C83
:10221000BB607B681B685B6823F03F017B681B68C1
:10222000BA680A435A607B681B681B6A23F03F0147
:102230007B685B686A4A934202D8BB68013309E055
:10224000BB684FF4967202FB03F3694AA2FB0323B7
:102250009B0901337A6812680B4313627B681B6821
:10226000DB6923F44F4222F0FF027B685B685C4924
:102270008B4219D8FB68591E7B685B685B00B1FB19
:10228000F3F3591C40F6FC730B40002B0AD0FB689B
:10229000591E7B685B685B00B1FBF3F30133C3F34A
:1022A0000B0351E004234FE07B689B68002B11D1A6
:1022B000FB68581E7B6859680B465B000B44B0FBFB
:1022C000F3F30133C3F30B03002B0CBF01230023F3
:1022D000DBB212E0FB68581E7B6859680B469B0016
:1022E0000B4499000B44B0FBF3F30133C3F30B032E
:1022F000002B0CBF01230023DBB2002B01D00123F4
:1023000022E07B689B68002B0ED1FB68581E7B681F
:1023100059680B465B000B44B0FBF3F30133C3F386
:102320000B0343F400430FE0FB68581E7B685968B9
:102330000B469B000B4499000B44B0FBF3F30133B5
:10234000C3F30B0343F44043796809681343CB613B
:102350007B681B681B6823F0C0017B68DA697B68B7
:102360001B6A1A437B681B680A431A607B681B68F8
:102370009B6823F4034323F0FF037A6811697A68AA
:10238000D26811437A6812680B4393607B681B68BC
:10239000DB6823F0FF017B685A697B689B691A43FD
:1023A0007B681B680A43DA607B681B681A687B6875
:1023B0001B6842F001021A607B6800221A647B6885
:1023C000202283F83D207B6800221A637B6800226C
:1023D00083F83E20002318461037BD4680BD00BF5D
:1023E000A08601007F841E00FF083D0083DE1B43A2
:1023F000D34D621080B483B000AF78607B681B68F7
:102400005B6903F08003802B03D17B681B6800228B
:102410001A6100BF0C37BD465DF8047B704780B57C
:1024200088B000AF78600023BB617B681B685B6885
:102430007B617B68DB6A3B617B6893F83E30FB73B2
:102440007B6893F83D30BB73FB7B102B03D0FB7B89
:10245000402B40F0C1807B681B689B69BB617B6837
:102460001B685B69FB61FB6903F00103002B0DD165
:102470003B69B3F52A0F03D03B69B3F12A4F01D171
:10248000012300E00023012B00F03281FB6903F0FF
:102490000103002B0CD07B695B0A03F00103002BC6
:1024A00006D0786801F098FC786800F09BFD92E017
:1024B000FB69DB0803F00103002B09D07B695B0A91
:1024C00003F00103002B03D0786800F011FE82E0D6
:1024D000FB695B0803F00103002B09D07B695B0AF1
:1024E00003F00103002B03D0786800F02BFE72E0AC
:1024F000BB699B0803F00103002B3BD07B681B6882
:102500005B6803F40063B3F5006F00F0F380FB69D0
:10251000DB0903F00103002B0FD07B699B0A03F05A
:102520000103002B09D0FB699B0803F00103002B7A
:1025300003D1786800F0F3F94DE0FB699B0803F0E4
:102540000103002B00F0D6807B695B0A03F00103D6
:10255000002B00F0CF80BB7B212B03D1786800F0EB
:102560007AFAC7E0FB7B402B40F0C480786800F02B
:10257000E8FABFE07B681B685B6803F40063B3F5AF
:10258000006F00F0B780FB699B0903F00103002B8B
:102590000FD07B699B0A03F00103002B09D0FB6974
:1025A0009B0803F00103002B03D1786800F061FB66
:1025B00011E0FB699B0803F00103002B00F09A80F7
:1025C0007B695B0A03F00103002B00F093807868BD
:1025D00000F017FC8EE08DE07B681B6C002B04D0B4
:1025E0007B681B685B69FB6107E07B681B689B6914
:1025F000BB617B681B685B69FB61FB695B0803F07F
:102600000103002B12D07B695B0A03F00103002B4E
:102610000CD07B681B6C002B03D07B681B689B690C
:10262000BB61B969786800F0DCFF66E0FB691B09F3
:1026300003F00103002B09D07B695B0A03F001035F
:10264000002B03D0786801F017F856E0BB7B212BF4
:1026500002D0BB7B292B25D1FB69DB0903F00103E9
:10266000002B0FD07B699B0A03F00103002B09D0DC
:10267000FB699B0803F00103002B03D1786800F08D
:10268000F2FE39E0FB699B0803F00103002B33D015
:102690007B695B0A03F00103002B2DD0786800F002
:1026A0001FFF29E0FB699B0903F00103002B0FD0FA
:1026B0007B699B0A03F00103002B09D0FB699B088F
:1026C00003F00103002B03D1786800F02AFF14E027
:1026D000FB699B0803F00103002B0ED07B695B0AAA
:1026E00003F00103002B08D0786800F058FF04E0E5
:1026F00000BF02E000BF00E000BF2037BD4680BD44
:1027000080B58AB000AF78607B681B685B693B620C
:102710007B681B685B68FB6100237B627B6893F8C6
:102720003E30FB763B6A1B0A03F00103002B0ED000
:10273000FB691B0A03F00103002B08D07B6A43F0FE
:1027400001037B627B681B686FF480725A613B6A8D
:102750005B0A03F00103002B0ED0FB691B0A03F098
:102760000103002B08D07B6A43F002037B627B6885
:102770001B686FF400725A613B6A9B0A03F0010305
:10278000002B3FD0FB691B0A03F00103002B39D05B
:10279000FB7EBB767B685B8D9BB27B617B6893F82D
:1027A0003D30FB747B681B6BFB60BB7E202B12D122
:1027B0007B69002B0FD1FB7C212B08D0FB7C292BC4
:1027C00005D0FB7C282B06D1FB68212B03D1786830
:1027D00001F082F816E07B681B686FF480625A6132
:1027E0007B6A43F004037B62FB7E102B02D0FB7EEE
:1027F000402B07D17B681B681A687B681B6842F412
:1028000000721A603B6ADB0A03F00103002B0ED052
:10281000FB691B0A03F00103002B08D07B6A43F01D
:1028200008037B627B681B686FF400625A617B6AF5
:10283000002B08D07B681A6C7B6A1A437B681A6489
:10284000786801F0BDF800BF2837BD4680BD80B470
:1028500083B000AF786000BF0C37BD465DF8047BE5
:10286000704780B483B000AF786000BF0C37BD46BE
:102870005DF8047B704780B483B000AF786000BF20
:102880000C37BD465DF8047B704780B483B000AF61
:10289000786000BF0C37BD465DF8047B704780B49C
:1028A00083B000AF78600B46FB7013463B8000BFDF
:1028B0000C37BD465DF8047B704780B483B000AF31
:1028C000786000BF0C37BD465DF8047B704780B46C
:1028D00083B000AF786000BF0C37BD465DF8047B65
:1028E000704780B483B000AF786000BF0C37BD463E
:1028F0005DF8047B704780B483B000AF786000BFA0
:102900000C37BD465DF8047B704780B483B000AFE0
:10291000786000BF0C37BD465DF8047B704780B51A
:1029200084B000AF78607B6893F83D30FB737B68C0
:1029300093F83E30BB737B68DB6ABB607B681B8DA2
:10294000002B50D1FB7B212B4DD1BB68082B1DD018
:10295000BB68202B1AD0BB6813F5803F16D07B686C
:102960001B685A687B681B6822F4E0625A607B68C7
:1029700011221A637B68002283F83E207B682022A4
:1029800083F83D207868FFF762FF60E07B681B6892
:102990005A687B681B6822F4E0625A607B681B6897
:1029A0001A687B681B6842F400721A607B68002218
:1029B0001A637B68202283F83D207B6893F83E30C1
:1029C000DBB2402B07D17B68002283F83E20786879
:1029D000FFF77DFF3BE07B68002283F83E207868AC
:1029E000FFF735FF33E0FB7B212B05D0BB7B402B72
:1029F0002DD1FB7B222B2AD17B685B8D9BB2002BD8
:102A000008D17B681B685A687B681B6822F4806267
:102A10005A601CE07B6893F83E30DBB2402B03D158
:102A2000786800F08EF812E07B685B6A1A787B6841
:102A30001B681A617B685B6A5A1C7B685A627B68F8
:102A40005B8D9BB2013B9AB27B685A85FFE700BF62
:102A50001037BD4680BD80B584B000AF78607B681C
:102A6000DB6AFB607B6893F83D30DBB2212B64D1DD
:102A70007B685B8D9BB2002B12D07B685B6A1A78F7
:102A80007B681B681A617B685B6A5A1C7B685A62A8
:102A90007B685B8D9BB2013B9AB27B685A854CE0A8
:102AA000FB68082B1DD0FB68202B1AD0FB6813F5A0
:102AB000803F16D07B681B685A687B681B6822F4CD
:102AC000E0625A607B6811221A637B68002283F8F7
:102AD0003E207B68202283F83D207868FFF7B7FE10
:102AE0002BE07B681B685A687B681B6822F4E062F5
:102AF0005A607B681B681A687B681B6842F4007226
:102B00001A607B6800221A637B68202283F83D20CC
:102B10007B6893F83E30DBB2402B07D17B68002204
:102B200083F83E207868FFF7D2FE06E07B6800223B
:102B300083F83E207868FFF78AFE00BF1037BD4655
:102B400080BD80B584B000AF78607B6893F83D307D
:102B5000FB737B681B6D002B1DD17B68DB6C012B2D
:102B60000BD17B689B6CDAB27B681B681A617B684F
:102B70001B6D9A1C7B681A6577E07B689B6C9BB227
:102B80001B12DAB27B681B681A617B681B6D5A1CCA
:102B90007B681A6569E07B681B6D012B0BD17B6834
:102BA0009B6CDAB27B681B681A617B681B6D5A1CD0
:102BB0007B681A6559E07B681B6D022B52D1FB7B49
:102BC000222B0DD17B681B681A687B681B6842F456
:102BD00080721A607B681B6D5A1C7B681A6544E022
:102BE0007B685B8D9BB2002B15D0FB7B212B12D118
:102BF0007B685B6A1A787B681B681A617B685B6A12
:102C00005A1C7B685A627B685B8D9BB2013B9AB20F
:102C10007B685A8529E07B685B8D9BB2002B24D1B1
:102C2000FB7B212B21D17B681B685A687B681B6862
:102C300022F4E0625A607B681B681A687B681B6834
:102C400042F400721A607B6800221A637B682022BB
:102C500083F83D207B68002283F83E207868FFF7E8
:102C600036FE02E07868FFF7C5FB00BF1037BD46AF
:102C700080BD80B584B000AF78607B6893F83D304C
:102C8000DBB2222B40F0B9807B68DB6AFB607B689B
:102C90005B8D9BB2BB60BB68032B21D97B681B6833
:102CA0001A697B685B6AD2B21A707B685B6A5A1CCD
:102CB0007B685A627B685B8D9BB2013B9AB27B68F2
:102CC0005A857B685B8D9BB2032B40F096807B68B6
:102CD0001B685A687B681B6822F480625A608CE02B
:102CE0007B68DB6A022B7FD0BB68012B02D0BB68FC
:102CF000002B79D1786801F03DF80346002B4CD1C8
:102D00007B681B681A687B681B6822F480621A6003
:102D10007B681B685A687B681B6822F4E0625A6013
:102D20007B681B681A697B685B6AD2B21A707B6821
:102D30005B6A5A1C7B685A627B685B8D9BB2013B65
:102D40009AB27B685A857B68202283F83D207B6895
:102D500093F83E30DBB2402B0AD17B68002283F827
:102D60003E207B6800221A637868FFF7BAFD44E0D2
:102D70007B68002283F83E20FB68082B02D0FB68AA
:102D8000202B03D17B6800221A6302E07B681222A9
:102D90001A637868FFF765FD2FE07B681B685A6847
:102DA0007B681B6822F4E0625A607B681B681A69C2
:102DB0007B685B6AD2B21A707B685B6A5A1C7B685C
:102DC0005A627B685B8D9BB2013B9AB27B685A85E5
:102DD0007B68202283F83D207B68002283F83E2018
:102DE0007868FFF788FD08E07B681B685A687B6895
:102DF0001B6822F480625A60FFE700BF1037BD46AF
:102E000080BD80B584B000AF78607B68DB6AFB6012
:102E10007B685B8D9BB2042B1BD17B681B685A6857
:102E20007B681B6822F480625A607B681B681A69A1
:102E30007B685B6AD2B21A707B685B6A5A1C7B68DB
:102E40005A627B685B8D9BB2013B9AB27B685A8564
:102E5000C4E07B685B8D9BB2032B29D17B681B6828
:102E60005A687B681B6822F480625A60FB68042BF6
:102E70000AD0FB68022B07D07B681B681A687B6846
:102E80001B6822F480621A607B681B681A697B6881
:102E90005B6AD2B21A707B685B6A5A1C7B685A62A2
:102EA0007B685B8D9BB2013B9AB27B685A8595E04B
:102EB0007B685B8D9BB2022B7DD1FB68012B02D01E
:102EC000FB68102B08D17B681B681A687B681B683D
:102ED00022F480621A6016E0FB68042B02D0FB68C3
:102EE000022B08D17B681B681A687B681B6842F458
:102EF00080621A6007E07B681B681A687B681B6841
:102F000042F400721A607B681B681A697B685B6A0E
:102F1000D2B21A707B685B6A5A1C7B685A627B6803
:102F20005B8D9BB2013B9AB27B685A857B681B68BC
:102F30001A697B685B6AD2B21A707B685B6A5A1C3A
:102F40007B685A627B685B8D9BB2013B9AB27B685F
:102F50005A857B681B685A687B681B6822F440723C
:102F60005A607B68202283F83D207B6893F83E30CE
:102F7000DBB2402B0AD17B68002283F83E207B68BD
:102F800000221A637868FFF7ACFC27E07B68002218
:102F900083F83E20FB68082B02D0FB68202B03D16E
:102FA0007B6800221A6302E07B6812221A63786849
:102FB000FFF757FC12E07B681B681A697B685B6A45
:102FC000D2B21A707B685B6A5A1C7B685A627B6853
:102FD0005B8D9BB2013B9AB27B685A8500BF10376C
:102FE000BD4680BD80B483B000AF78607B6893F845
:102FF0003E30DBB2402B17D17B681B6D002B09D113
:103000007B685B6CDBB21A467B681B6802F0FE02D1
:103010001A6167E07B685B6CDBB243F00103DAB2F4
:103020007B681B681A615DE07B681B69B3F5804FA4
:1030300033D17B6893F83D30DBB2212B09D17B681B
:103040005B6CDBB21A467B681B6802F0FE021A61F9
:1030500008E07B685B6CDBB243F00103DAB27B68AB
:103060001B681A617B685B6B002B04D07B685B6B11
:10307000DB6B002B08D17B689B6B002B32D07B680D
:103080009B6BDB6B002B2DD07B681B685A687B68C1
:103090001B6842F400625A6024E07B681B6D002BC1
:1030A0000ED17B685B6C9BB2DB11DBB203F00603D5
:1030B000DBB263F00F03DAB27B681B681A6111E0C0
:1030C0007B681B6D012B0DD17B685B6C9BB2DB11A8
:1030D000DBB203F00603DBB263F00E03DAB27B6807
:1030E0001B681A6100BF0C37BD465DF8047B704752
:1030F00080B483B000AF78607B685B6CDAB27B68C9
:103100001B681A617B685B6B002B04D07B685B6B70
:10311000DB6B002B08D17B689B6B002B0CD07B6892
:103120009B6BDB6B002B07D07B681B685A687B6846
:103130001B6842F400625A6000BF0C37BD465DF860
:10314000047B704780B491B000AF78607B6893F8DF
:103150003E3087F83F307B68DB6ABB637B681B6B64
:103160007B637B6893F83D30DBB2222B40F06981B2
:103170007B681B6D002B0FD197F83F30402B0BD194
:1031800000233B637B681B685B693B637B681B6850
:103190009B693B633B6B60E17B681B6D002B1DD122
:1031A0007B681B69B3F5404F18D10023FB627B6835
:1031B0001B685B69FB627B681B689B69FB62FB6A3F
:1031C0007B681B681A687B681B6842F480721A600F
:1031D0007B681B6D5A1C7B681A653EE17B685B8DC2
:1031E0009BB2002B13D10023BB627B681B685B6919
:1031F000BB627B681B689B69BB62BB6A7B681B68A0
:103200001A687B681B6842F400721A6015E17B68DB
:103210005B8D9BB2012B40F08A80BB6B13F5803F26
:1032200037D17B681B681A687B681B6822F4806250
:103230001A607B681B685B6803F40063B3F5006F7A
:1032400013D17B681B681A687B681B6822F4806254
:103250001A6000237B627B681B685B697B627B680A
:103260001B689B697B627B6AE7E000233B627B68AB
:103270001B685B693B627B681B689B693B623B6ABE
:103280007B681B681A687B681B6842F400721A60CE
:10329000D3E0BB6B082B2ED0BB6B202B2BD07B6BD2
:1032A000122B02D1BB6B012B25D1BB6B042B0ED093
:1032B000BB6B022B0BD0BB6B102B08D07B681B6841
:1032C0001A687B681B6822F480621A6007E07B68DA
:1032D0001B681A687B681B6842F480621A600023CE
:1032E000FB617B681B685B69FB617B681B689B6992
:1032F000FB61FB69A1E07B681B681A687B681B683F
:1033000022F480621A600023BB617B681B685B69E2
:10331000BB617B681B689B69BB61BB697B681B6881
:103320001A687B681B6842F400721A6085E07B684B
:103330005B8D9BB2022B4DD1BB6B042B16D0BB6BAC
:10334000022B13D0BB6B102B10D07B681B681A6844
:103350007B681B6822F480621A607B681B681A68AD
:103360007B681B6842F400621A6007E07B681B6898
:103370001A687B681B6842F480621A607B681B686D
:103380005B6803F40063B3F5006F17D1BB6B13F5F3
:10339000803F0BD0BB6B012B08D0BB6B082B05D03B
:1033A000BB6B102B02D0BB6B202B07D17B681B683B
:1033B0005A687B681B6842F480525A6000237B6124
:1033C0007B681B685B697B617B681B689B697B61B1
:1033D0007B6932E07B681B681A687B681B6842F473
:1033E00080621A607B681B685B6803F40063B3F556
:1033F000006F17D1BB6B13F5803F0BD0BB6B012B5C
:1034000008D0BB6B082B05D0BB6B102B02D0BB6B5D
:10341000202B07D17B681B685A687B681B6842F4C5
:1034200080525A6000233B617B681B685B693B618B
:103430007B681B689B693B613B697B6800221A655E
:103440000BE00023FB607B681B685B69FB607B68AB
:103450001B689B69FB60FB68FFE700BF4437BD4604
:103460005DF8047B704780B584B000AF78607B68FE
:1034700093F83D30FB737B685B8D9BB2002B2BD0A8
:103480007B685B6A1A787B681B681A617B685B6A79
:103490005A1C7B685A627B685B8D9BB2013B9AB277
:1034A0007B685A857B685B8D9BB2002B14D1FB7BBC
:1034B000292B11D17B681B685A687B681B6822F432
:1034C00080625A607B6821221A637B68282283F815
:1034D0003D207868FFF7CFF900BF1037BD4680BDAB
:1034E00080B483B000AF78607B685B8D9BB2002BAB
:1034F00011D07B685B6A1A787B681B681A617B68ED
:103500005B6A5A1C7B685A627B685B8D9BB2013B8D
:103510009AB27B685A8500BF0C37BD465DF8047BC4
:10352000704780B584B000AF78607B6893F83D3019
:10353000FB737B685B8D9BB2002B2CD07B681B6878
:103540001A697B685B6AD2B21A707B685B6A5A1C24
:103550007B685A627B685B8D9BB2013B9AB27B6849
:103560005A857B685B8D9BB2002B14D1FB7B2A2B89
:1035700011D17B681B685A687B681B6822F48062E3
:103580005A607B6822221A637B68282283F83D20D8
:103590007868FFF77AF900BF1037BD4680BD80B468
:1035A00083B000AF78607B685B8D9BB2002B12D03C
:1035B0007B681B681A697B685B6AD2B21A707B6889
:1035C0005B6A5A1C7B685A627B685B8D9BB2013BCD
:1035D0009AB27B685A8500BF0C37BD465DF8047B04
:1035E000704780B584B000AF786039600023FB730A
:1035F0007B6893F83D30DBB203F02803282B27D1FA
:103600007B681B685A687B681B6822F480625A607A
:103610003B689B0803F00103002B01D10123FB73DE
:103620003B68DB0903F00103002B03D17B68DB68F7
:10363000BB8102E07B689B69BB817B68002283F8C9
:103640003C20BA89FB7B19467868FFF728F90EE021
:103650000023BB607B681B685B69BB607B681B6881
:103660009B69BB60BB687B68002283F83C2000BF7D
:103670001037BD4680BD000080B584B000AF7860D3
:103680007B6893F83D30FB737B681B685A687B68E6
:103690001B6822F4E0625A600023BB607B681B68F1
:1036A0005B69BB607B681B681A687B681B6842F0BB
:1036B00001021A60BB687B681B681A687B681B681C
:1036C00022F480621A607B681B685B6803F4006305
:1036D000B3F5006F72D1FB7B222B02D0FB7B2A2B30
:1036E00035D17B689B6B1B685B689AB27B685A8597
:1036F0007B685B8D9BB2002B05D07B681B6C43F015
:1037000004027B681A647B681B685A687B681B68C4
:1037100022F400625A607B689B6B1846FEF747FBF9
:103720000346012B49D07B689B6B694A1A657B680D
:103730009B6B1846FEF719FB0346002B3DD07B68B8
:103740009B6B1B6D7A68926B1046984735E07B68DF
:103750005B6B1B685B689AB27B685A857B685B8D84
:103760009BB2002B05D07B681B6C43F004027B6886
:103770001A647B681B685A687B681B6822F40062C5
:103780005A607B685B6B1846FEF711FB0346012B02
:1037900014D07B685B6B4E4A1A657B685B6B18467E
:1037A000FEF7E3FA0346002B08D07B685B6B1B6DCA
:1037B0007A68526B1046984700E000BF7B685B8DCB
:1037C0009BB2002B3ED07B681B685B6903F004034F
:1037D000042B12D17B681B681A697B685B6AD2B2C2
:1037E0001A707B685B6A5A1C7B685A627B685B8DC7
:1037F0009BB2013B9AB27B685A857B681B685B6908
:1038000003F04003402B12D17B681B681A697B6868
:103810005B6AD2B21A707B685B6A5A1C7B685A6218
:103820007B685B8D9BB2013B9AB27B685A857B6853
:103830005B8D9BB2002B05D07B681B6C43F00402B0
:103840007B681A647B681B6C002B03D0786800F0DF
:10385000B7F839E0FB7B2A2B09D17B6800221A6379
:103860007B68282283F83D207868FFF70EF87B6894
:1038700093F83D30DBB2282B11D17B68154ADA6210
:103880007B6800221A637B68202283F83D207B68D6
:10389000002283F83E207868FFF70FF814E07B6879
:1038A0001B6B222B02D0FB7B222B0DD17B680022CD
:1038B0001A637B68202283F83D207B68002283F80E
:1038C0003E207868FEF7E1FF00BF1037BD4680BD9F
:1038D000253C00080000FFFF80B584B000AF786091
:1038E0007B6893F83D30FB737B68DB6ABB60BB6829
:1038F000082B02D0BB68202B29D1FB7B282B26D19B
:103900007B682E4ADA627B681B685A687B681B6892
:1039100022F4E0625A607B681B686FF480625A612F
:103920007B681B681A687B681B6822F480621A60D7
:103930007B6800221A637B68202283F83D207B6825
:10394000002283F83E207868FEF7B7FF31E0FB7B6A
:10395000212B29D17B68194ADA627B6821221A63FC
:103960007B68202283F83D207B68002283F83E207C
:103970007B681B685A687B681B6822F4E0625A60A7
:103980007B681B686FF480625A617B681B681A68E9
:103990007B681B6822F480621A607868FEF72AFD53
:1039A0007868FEF768FF04E07B681B686FF480624C
:1039B0005A6100BF1037BD4680BD00BF0000FFFF49
:1039C00080B584B000AF78607B6893F83D30FB73BE
:1039D0007B6893F83E30BB73BB7B102B02D0BB7B64
:1039E000402B0AD1FB7B222B07D17B681B681A680E
:1039F0007B681B6822F400621A60FB7B03F02803DB
:103A0000282B07D17B6800221A637B68282283F861
:103A10003D2015E07B681B685B6803F40063B3F529
:103A2000006F0AD0FB7B602B07D07B68202283F8D5
:103A30003D207B68002283F83E207B6800221A63C9
:103A40007B681B685B6803F40063B3F5006F62D1A9
:103A50007B681B685A687B681B6822F400625A60A6
:103A60007B685B6B93F83530DBB2012B20D07B6831
:103A70005B6B6A4A1A657B685B6B1846FEF775F9E3
:103A80000346002B00F089807B681B681A687B68FE
:103A90001B6822F001021A607B68202283F83D2017
:103AA0007B685B6B1B6D7A68526B1046984774E0BD
:103AB0007B689B6B594A1A657B689B6B1846FEF7BF
:103AC00054F90346002B68D07B681B685B6903F0E0
:103AD0004003402B0BD17B681B681A697B685B6ACB
:103AE000D2B21A707B685B6A5A1C7B685A627B6828
:103AF0001B681A687B681B6822F001021A607B68E9
:103B0000202283F83D207B689B6B1B6D7A68926B4B
:103B10001046984741E07B6893F83D30DBB2602B5C
:103B200025D17B68202283F83D207B6800221A641F
:103B30007B681B685B6903F04003402B0BD17B68FB
:103B40001B681A697B685B6AD2B21A707B685B6A11
:103B50005A1C7B685A627B681B681A687B681B6802
:103B600022F001021A607868FEF7CFFE15E07B684C
:103B70001B685B6903F04003402B0BD17B681B681B
:103B80001A697B685B6AD2B21A707B685B6A5A1CDE
:103B90007B685A627868FEF7AEFE7B681B6CBB6080
:103BA000BB6803F00103002B0ED1BB6803F00203D6
:103BB000002B09D1BB6803F00403002B04D1BB68C0
:103BC00003F00803002B07D07B681B685A687B68EA
:103BD0001B6822F4E0625A607B6893F83D30FB7307
:103BE0007B681B6C03F00403042B13D1FB7B282B95
:103BF00010D17B680A4ADA627B6800221A637B680C
:103C0000202283F83D207B68002283F83E207868DC
:103C1000FEF753FE00BF1037BD4680BD253C0008AF
:103C20000000FFFF80B586B000AF78600023FB6026
:103C30007B689B6B7B617B6993F83D30FB744B4BDE
:103C40001B68DB084A4AA2FB03231A0A13469B009F
:103C50001344DA00D31AFB60FB68002B06D17B69A2
:103C60001B6C43F020027B691A640AE0FB68013B8D
:103C7000FB607B691B681B6803F40073B3F5007F6E
:103C8000EAD07B695B6B002B03D07B695B6B002206
:103C9000DA637B699B6B002B03D07B699B6B0022F3
:103CA000DA637B691B681A687B691B6822F480628F
:103CB0001A607B6900225A857B695B6B002B03D0FD
:103CC0007B695B6B00221A657B699B6B002B03D0C1
:103CD0007B699B6B00221A657B691B681A687B698C
:103CE0001B6822F001021A607B6993F83D30DBB259
:103CF000602B0ED17B69202283F83D207B69002256
:103D000083F83E207B6900221A647869FEF7FDFD86
:103D100027E0FB7C03F02803282B17D17B691B6865
:103D20001A687B691B6842F001021A607B691B6894
:103D30001A687B691B6842F480621A607B69002202
:103D40001A637B69282283F83D2007E07B692022E3
:103D500083F83D207B69002283F83E207869FEF7D6
:103D6000CAFD00BF1837BD4680BD00BF000000205F
:103D700089B5F81480B485B000AF78600023FB608B
:103D8000134B1B68DB08134AA2FB03231A0A1346D2
:103D90009B001344FB60FB68013BFB60FB68002B4E
:103DA00007D17B681B6C43F020027B681A640123F7
:103DB00008E07B681B681B6803F40073B3F5007FA1
:103DC000E9D0002318461437BD465DF8047B7047E0
:103DD0000000002089B5F81480B483B000AF78608B
:103DE0007B68DB6AB3F52A0F03D17B680122DA62B4
:103DF00007E07B68DB6AB3F12A4F02D17B680822B7
:103E0000DA6200BF0C37BD465DF8047B70470000E6
:103E100080B586B000AF78607B68002B01D10123AC
:103E200067E27B681B6803F00103002B75D0884BA9
:103E30009B6803F00C03042B0CD0854B9B6803F0AC
:103E40000C03082B12D1824B5B6803F48003B3F59B
:103E5000800F0BD17E4B1B6803F40033002B5BD02B
:103E60007B685B68002B57D1012342E27B685B686B
:103E7000B3F5803F06D1764B1B68754A43F4803317
:103E800013601DE07B685B68B3F5A02F0CD1704B0D
:103E90001B686F4A43F4802313606D4B1B686C4AA8
:103EA00043F4803313600BE0694B1B68684A23F4CA
:103EB00080331360664B1B68654A23F480231360CC
:103EC0007B685B68002B13D0FDF79EFD386108E02E
:103ED000FDF79AFD02463B69D31A642B01D90323EF
:103EE00007E25B4B1B6803F40033002BF0D014E0B7
:103EF000FDF78AFD386108E0FDF786FD02463B6963
:103F0000D31A642B01D90323F3E1514B1B6803F44B
:103F10000033002BF0D100E000BF7B681B6803F08A
:103F20000203002B63D04A4B9B6803F00C03002B69
:103F30000BD0474B9B6803F00C03082B1CD1444B60
:103F40005B6803F48003002B16D1414B1B6803F020
:103F50000203002B05D07B68DB68012B01D0012315
:103F6000C7E13B4B1B6823F0F8027B681B69DB0051
:103F7000374913430B603AE07B68DB68002B20D0A5
:103F8000344B01221A60FDF73FFD386108E0FDF770
:103F90003BFD02463B69D31A022B01D90323A8E15A
:103FA0002B4B1B6803F00203002BF0D0284B1B683F
:103FB00023F0F8027B681B69DB00254913430B6083
:103FC00015E0244B00221A60FDF71EFD386108E061
:103FD000FDF71AFD02463B69D31A022B01D90323D0
:103FE00087E11B4B1B6803F00203002BF0D17B68B9
:103FF0001B6803F00803002B36D07B685B69002B3D
:1040000016D0154B01221A60FDF7FEFC386108E05E
:10401000FDF7FAFC02463B69D31A022B01D90323B0
:1040200067E10B4B5B6F03F00203002BF0D01BE04A
:10403000094B00221A60FDF7E7FC38610EE0FDF73E
:10404000E3FC02463B69D31A022B07D9032350E154
:104050000038024000004742800E4742884B5B6FA9
:1040600003F00203002BEAD17B681B6803F0040312
:10407000002B00F097800023FB75814B1B6C03F035
:104080008053002B0FD10023BB607D4B1B6C7C4AFF
:1040900043F0805313647A4B1B6C03F08053BB6076
:1040A000BB680123FB75774B1B6803F48073002BFF
:1040B00018D1744B1B68734A43F480731360FDF787
:1040C000A3FC386108E0FDF79FFC02463B69D31A68
:1040D000022B01D903230CE16A4B1B6803F48073A4
:1040E000002BF0D07B689B68012B06D1644B1B6FC3
:1040F000634A43F0010313671CE07B689B68052B50
:104100000CD15F4B1B6F5E4A43F0040313675C4B9B
:104110001B6F5B4A43F0010313670BE0584B1B6FA7
:10412000574A23F001031367554B1B6F544A23F082
:10413000040313677B689B68002B15D0FDF764FCB4
:1041400038610AE0FDF760FC02463B69D31A41F290
:104150008832934201D90323CBE0494B1B6F03F014
:104160000203002BEED014E0FDF74EFC38610AE0AC
:10417000FDF74AFC02463B69D31A41F2883293426A
:1041800001D90323B5E03E4B1B6F03F00203002B64
:10419000EED1FB7D012B05D1394B1B6C384A23F046
:1041A000805313647B689B69002B00F0A180344B23
:1041B0009B6803F00C03082B5CD07B689B69022B87
:1041C00041D1314B00221A60FDF71EFC386108E036
:1041D000FDF71AFC02463B69D31A022B01D90323CF
:1041E00087E0274B1B6803F00073002BF0D17B683E
:1041F000DA697B681B6A1A437B685B6A9B011A4316
:104200007B689B6A5B08013B1B041A437B68DB6A83
:104210001B061B4913434B601B4B01221A60FDF721
:10422000F3FB386108E0FDF7EFFB02463B69D31A68
:10423000022B01D903235CE0114B1B6803F00073D0
:10424000002BF0D054E0104B00221A60FDF7DCFB8D
:10425000386108E0FDF7D8FB02463B69D31A022B10
:1042600001D9032345E0064B1B6803F00073002BC4
:10427000F0D13DE07B689B69012B07D1012338E039
:104280000038024000700040600047421B4B5B68F2
:10429000FB607B689B69012B28D0FB6803F48002DC
:1042A0007B68DB699A4221D1FB6803F03F027B689F
:1042B0001B6A9A421AD1FA6847F6C07313407A68AB
:1042C000526A9201934211D1FB6803F440327B6839
:1042D0009B6A5B08013B1B049A4207D1FB6803F011
:1042E00070627B68DB6A1B069A4201D0012300E002
:1042F000002318461837BD4680BD00BF0038024075
:1043000080B584B000AF786039607B68002B01D144
:104310000123CCE0684B1B6803F007033A689A421C
:104320000CD9654B3A68D2B21A70634B1B6803F024
:1043300007033A689A4201D00123B8E07B681B6802
:1043400003F00203002B20D07B681B6803F00403FA
:10435000002B05D0594B9B68584A43F4E0539360B7
:104360007B681B6803F00803002B05D0534B9B6848
:10437000524A43F460439360504B9B6823F0F00231
:104380007B689B684D4913438B607B681B6803F017
:104390000103002B44D07B685B68012B07D1474B9E
:1043A0001B6803F40033002B19D101237FE07B68E5
:1043B0005B68022B03D07B685B68032B07D13F4B04
:1043C0001B6803F00073002B09D101236FE03B4B06
:1043D0001B6803F00203002B01D1012367E0374B78
:1043E0009B6823F003027B685B68344913438B604E
:1043F000FDF70AFBF8600AE0FDF706FB0246FB68E2
:10440000D31A41F28832934201D903234FE02B4B58
:104410009B6803F00C027B685B689B009A42EBD1BF
:10442000254B1B6803F007033A689A420CD2224BD3
:104430003A68D2B21A70204B1B6803F007033A683F
:104440009A4201D0012332E07B681B6803F0040329
:10445000002B08D0194B9B6823F4E0527B68DB6883
:10446000164913438B607B681B6803F00803002B1D
:1044700009D0124B9B6823F460427B681B69DB0008
:104480000E4913438B6000F021F802460B4B9B68EA
:104490001B0903F00F030A49CB5C22FA03F3094A14
:1044A0001360094B1B681846FDF76AFA002318468B
:1044B0001037BD4680BD00BF003C024000380240BE
:1044C000EC9F000800000020040000202DE9B04F00
:1044D00090B000AF00237B630023FB6300233B63AA
:1044E0000023BB63594B9B6803F00C03082B0DD0D2
:1044F000082B00F2A180002B02D0042B03D09BE0FC
:10450000534BBB639BE0534BBB6398E04F4B5B68E3
:1045100003F03F037B634D4B5B6803F48003002B88
:1045200028D04A4B5B689B0900223B627A623B6A57
:10453000C3F308000021474B03FB01F2002300FBFB
:1045400003F31344434AA0FB0212FA620A46BA621A
:10455000FA6A1344FB627B6B0022BB61FA61D7E904
:104560000623D7E90A01FBF783FE02460B461346F2
:10457000FB6353E0354B5B689B0900223B617A612A
:104580003B69C3F3080A4FF0000B52465B464FF0FD
:1045900000004FF00001590141EAD261500102468A
:1045A0000B46B2EB0A0863EB0B094FF000024FF029
:1045B00000034FEA891343EA98634FEA8812B2EB8B
:1045C000080463EB09054FF000024FF00003EB0015
:1045D00043EA5473E20014461D4614EB0A033B60A1
:1045E00045EB0B037B604FF000024FF00003D7E96F
:1045F000004529468B02214643EA915321468A020F
:10460000104619467B6B0022BB60FA60D7E9022393
:10461000FBF72EFE02460B461346FB630B4B5B6813
:104620001B0C03F0030301335B003B63FA6B3B6B32
:10463000B2FBF3F3BB6302E0054BBB6300BFBB6B94
:1046400018464037BD46BDE8B08F00BF0038024075
:104650000024F40040787D0180B400AF034B1B6858
:104660001846BD465DF8047B704700BF000000207F
:1046700080B500AFFFF7F0FF0246054B9B689B0A31
:1046800003F007030349CB5C22FA03F3184680BD0D
:1046900000380240FC9F000880B500AFFFF7DCFF48
:1046A0000246054B9B685B0B03F007030349CB5C99
:1046B00022FA03F3184680BD00380240FC9F000830
:1046C00080B582B000AF78607B68002B01D10123F8
:1046D0007BE07B685B6A002B08D17B685B68B3F585
:1046E000827F09D07B680022DA6105E07B680022C6
:1046F0001A617B6800225A617B6800229A627B689B
:1047000093F85130DBB2002B06D17B68002283F88E
:1047100050207868FCF77AFE7B68022283F85120EB
:104720007B681B681A687B681B6822F040021A606D
:104730007B685B6803F482727B689B6803F40443C4
:104740001A437B68DB6803F400631A437B681B69C8
:1047500003F002031A437B685B6903F001031A4309
:104760007B689B6903F400731A437B68DB6903F081
:1047700038031A437B681B6A03F0800342EA030193
:104780007B689B6A03F400527B681B680A431A60CB
:104790007B689B691B0C03F004017B685B6A03F078
:1047A00010027B681B680A435A607B681B68DA69E1
:1047B0007B681B6822F40062DA617B6800225A651C
:1047C0007B68012283F85120002318460837BD4634
:1047D00080BD80B584B000AFF860B9607A60FB68D6
:1047E000002B01D1012338E0FB6893F84930DBB29C
:1047F000002B06D1FB68002283F84820F868FBF7FD
:1048000093FFFB681A68FB6808331946104601F0ED
:1048100055FCFB681868FB689B681A46B96801F08C
:10482000B7FCFB685868FB689A68FB681B6B796883
:1048300001F0DCFCFB681B68FA68926853F82210F0
:10484000FB681B68FA68926841F0010143F8221086
:10485000FB68012283F84920002318461037BD4623
:1048600080BD80B582B000AF78607B68002B01D13D
:10487000012341E07B6893F83D30DBB2002B06D189
:104880007B68002283F83C207868FCF727FF7B6870
:10489000022283F83D207B681A687B68043319463E
:1048A000104600F017FA7B68012283F846207B68E7
:1048B000012283F83E207B68012283F83F207B6839
:1048C000012283F840207B68012283F841207B6825
:1048D000012283F842207B68012283F843207B6811
:1048E000012283F844207B68012283F845207B68FD
:1048F000012283F83D20002318460837BD4680BDBD
:1049000080B584B000AF78607B681B68DB68FB60B3
:104910007B681B681B69BB60BB6803F00203002B4C
:1049200020D0FB6803F00203002B1BD07B681B68C0
:104930006FF002021A617B6801221A777B681B689C
:104940009B6903F00303002B03D0786800F0A3F900
:1049500005E0786800F095F9786800F0A6F97B68C2
:1049600000221A77BB6803F00403002B20D0FB68F9
:1049700003F00403002B1BD07B681B686FF004025C
:104980001A617B6802221A777B681B689B6903F4B3
:104990004073002B03D0786800F07DF905E078685B
:1049A00000F06FF9786800F080F97B6800221A77D0
:1049B000BB6803F00803002B20D0FB6803F008035A
:1049C000002B1BD07B681B686FF008021A617B68A4
:1049D00004221A777B681B68DB6903F00303002B52
:1049E00003D0786800F057F905E0786800F049F9DD
:1049F000786800F05AF97B6800221A77BB6803F0E8
:104A00001003002B20D0FB6803F01003002B1BD0F9
:104A10007B681B686FF010021A617B6808221A77A6
:104A20007B681B68DB6903F44073002B03D0786854
:104A300000F031F905E0786800F023F9786800F0BB
:104A400034F97B6800221A77BB6803F00103002B5E
:104A50000CD0FB6803F00103002B07D07B681B68B8
:104A60006FF001021A61786800F001F9BB6803F089
:104A70008003002B0CD0FB6803F08003002B07D0D1
:104A80007B681B686FF080021A61786800F0E8FAB2
:104A9000BB6803F04003002B0CD0FB6803F040031D
:104AA000002B07D07B681B686FF040021A617868A2
:104AB00000F005F9BB6803F02003002B0CD0FB6865
:104AC00003F02003002B07D07B681B686FF02002E7
:104AD0001A61786800F0BAFA00BF1037BD4680BD91
:104AE00080B584B000AF786039600023FB737B68C9
:104AF00093F83C30012B01D10223B4E07B68012202
:104B000083F83C207B68022283F83D207B681B6889
:104B10009B68BB60BB6823F07703BB60BB6823F472
:104B20007F43BB607B681B68BA689A603B681B6800
:104B3000B3F5005F3ED0B3F5005F00F28780B3F5B8
:104B4000805F00F08680B3F5805F7FD8702B1AD02D
:104B5000702B7BD8602B50D0602B77D8502B3CD05B
:104B6000502B73D8402B58D0402B6FD8302B64D0AB
:104B7000302B6BD8202B60D0202B67D8002B5CD03B
:104B8000102B5AD062E07B6818683B6899683B68D4
:104B90005A683B68DB6800F0BDF97B681B689B685E
:104BA000BB60BB6843F07703BB607B681B68BA6877
:104BB0009A604FE07B6818683B6899683B685A6860
:104BC0003B68DB6800F0A6F97B681B689A687B6825
:104BD0001B6842F480429A603CE07B6818683B683E
:104BE00059683B68DB681A4600F01AF97B681B6855
:104BF0005021184600F073F92CE07B6818683B6878
:104C000059683B68DB681A4600F039F97B681B6815
:104C10006021184600F063F91CE07B6818683B6867
:104C200059683B68DB681A4600F0FAF87B681B6835
:104C30004021184600F053F90CE07B681A683B6885
:104C40001B681946104600F04AF903E00123FB7384
:104C500000E000BF7B68012283F83D207B680022D2
:104C600083F83C20FB7B18461037BD4680BD80B4DE
:104C700083B000AF786000BF0C37BD465DF8047BA1
:104C8000704780B483B000AF786000BF0C37BD467A
:104C90005DF8047B704780B483B000AF786000BFDC
:104CA0000C37BD465DF8047B704780B483B000AF1D
:104CB000786000BF0C37BD465DF8047B704780B458
:104CC00083B000AF786000BF0C37BD465DF8047B51
:104CD0007047000080B485B000AF786039607B68B1
:104CE0001B68FB607B68434A934213D07B68B3F137
:104CF000804F0FD07B68404A93420BD07B683F4A7D
:104D0000934207D07B683E4A934203D07B683D4A7A
:104D1000934208D1FB6823F07003FB603B685B683B
:104D2000FA681343FB607B68324A93422BD07B685E
:104D3000B3F1804F27D07B682F4A934223D07B6802
:104D40002E4A93421FD07B682D4A93421BD07B682A
:104D50002C4A934217D07B682B4A934213D07B682E
:104D60002A4A93420FD07B68294A93420BD07B6832
:104D7000284A934207D07B68274A934203D07B6836
:104D8000264A934208D1FB6823F44073FB603B68DA
:104D9000DB68FA681343FB60FB6823F080023B6822
:104DA0005B691343FB603B689A687B68DA623B6827
:104DB0001A687B689A627B680E4A934203D07B68CC
:104DC000104A934203D13B681A697B681A637B6877
:104DD0001B6843F004027B681A607B6801225A61F9
:104DE0007B68FA681A6000BF1437BD465DF8047B23
:104DF000704700BF00000140000400400008004070
:104E0000000C00400004014000400140004401400B
:104E10000048014000180040001C004000200040F5
:104E200080B487B000AFF860B9607A60FB681B6A35
:104E30007B61FB681B6A23F00102FB681A62FB6856
:104E40009B693B613B6923F0F0033B617B681B017D
:104E50003A6913433B617B6923F00A037B617A69FA
:104E6000BB6813437B61FB683A699A61FB687A69A6
:104E70001A6200BF1C37BD465DF8047B704780B4E2
:104E800087B000AFF860B9607A60FB681B6A7B612D
:104E9000FB681B6A23F01002FB681A62FB689B69BF
:104EA0003B613B6923F470433B617B681B033A69B8
:104EB00013433B617B6923F0A0037B61BB681B014B
:104EC0007A6913437B61FB683A699A61FB687A6986
:104ED0001A6200BF1C37BD465DF8047B704780B482
:104EE00085B000AF786039607B689B68FB60FB68C9
:104EF00023F07003FB603A68FB68134343F0070339
:104F0000FB607B68FA689A6000BF1437BD465DF8A5
:104F1000047B704780B487B000AFF860B9607A60F6
:104F20003B60FB689B687B617B6923F47F437B610B
:104F30003B681A027B681A43BB6813437A691343C0
:104F40007B61FB687A699A6000BF1C37BD465DF8DB
:104F5000047B704780B485B000AF786039607B68AF
:104F600093F83C30012B01D102235AE07B680122E7
:104F700083F83C207B68022283F83D207B681B6815
:104F80005B68FB607B681B689B68BB60FB6823F009
:104F90007003FB603B681B68FA681343FB607B6827
:104FA0001B68FA685A607B681B68214A934222D0CA
:104FB0007B681B68B3F1804F1DD07B681B681D4A5E
:104FC000934218D07B681B681B4A934213D07B68BE
:104FD0001B681A4A93420ED07B681B68184A93429A
:104FE00009D07B681B68174A934204D07B681B6812
:104FF000154A93420CD1BB6823F08003BB603B6829
:105000005B68BA681343BB607B681B68BA689A60C8
:105010007B68012283F83D207B68002283F83C20D6
:10502000002318461437BD465DF8047B704700BF67
:10503000000001400004004000080040000C004057
:1050400000040140004001400018004080B483B0DB
:1050500000AF786000BF0C37BD465DF8047B704739
:1050600080B483B000AF786000BF0C37BD465DF8F8
:10507000047B704780B582B000AF78607B68002BFE
:1050800001D1012342E07B6893F84130DBB2002B71
:1050900006D17B68002283F840207868FCF798FBF3
:1050A0007B68242283F841207B681B68DA687B6870
:1050B0001B6822F40052DA60786800F08BFD7B6890
:1050C0001B681A697B681B6822F490421A617B682E
:1050D0001B685A697B681B6822F02A025A617B6848
:1050E0001B68DA687B681B6842F40052DA607B68F0
:1050F00000225A647B68202283F841207B682022AA
:1051000083F842207B6800225A6300231846083740
:10511000BD4680BD80B58AB002AFF860B9603B6023
:105120001346FB8000237B61FB6893F84230DBB2BF
:10513000202B40F08180BB68002B02D0FB88002B25
:1051400001D1012379E0FB6800225A64FB68222226
:1051500083F84220FB6800221A63FCF755FC786153
:10516000FB68FA889A85FB68FA88DA85FB689B6891
:10517000B3F5805F08D1FB681B69002B04D10023C5
:10518000FB61BB68BB6103E0BB68FB610023BB61E3
:1051900047E03B6800937B6900222021F86800F01B
:1051A00025FB0346002B05D0FB68202283F8422014
:1051B000032342E0FB69002B0CD1FB681B685B6892
:1051C0009BB2C3F308039AB2BB691A80BB6902336E
:1051D000BB611FE0FB689B68B3F5805F07D0FB688D
:1051E0009B68002B0AD1FB681B69002B06D1FB686A
:1051F0001B685B68DAB2FB691A7008E0FB681B6821
:105200005B68DBB203F07F03DAB2FB691A70FB69FB
:105210000133FB61FB68DB8D9BB2013B9AB2FB68FB
:10522000DA85FB68DB8D9BB2002BB2D1FB682022B4
:1052300083F84220002300E0022318462037BD46B1
:1052400080BD000080B5BAB000AF78607B681B6895
:105250001B68C7F8E4307B681B68DB68C7F8E03080
:105260007B681B685B69C7F8DC300023C7F8D8305F
:105270000023C7F8D430D7F8E43003F00F03C7F8A1
:10528000D830D7F8D830002B0FD1D7F8E43003F05E
:105290002003002B09D0D7F8E03003F02003002BC7
:1052A00003D0786800F0D7FB73E2D7F8D830002B32
:1052B00000F0DE80D7F8DC3003F00103002B06D1CC
:1052C000D7F8E03003F49073002B00F0D180D7F8CA
:1052D000E43003F00103002B0BD0D7F8E03003F4E7
:1052E0008073002B05D07B685B6C43F001027B6808
:1052F0005A64D7F8E43003F00403002B0BD0D7F83E
:10530000DC3003F00103002B05D07B685B6C43F0BD
:1053100002027B685A64D7F8E43003F00203002BE2
:105320000BD0D7F8DC3003F00103002B05D07B68ED
:105330005B6C43F004027B685A64D7F8E43003F0F6
:105340000803002B11D0D7F8E03003F02003002B26
:1053500005D1D7F8DC3003F00103002B05D07B68C2
:105360005B6C43F008027B685A647B685B6C002BC3
:1053700000F00A82D7F8E43003F02003002B08D0B5
:10538000D7F8E03003F02003002B02D0786800F05B
:1053900062FB7B681B685B6903F04003402B0CBF1A
:1053A00001230023DBB2C7F8D4307B685B6C03F0C9
:1053B0000803002B03D1D7F8D430002B4FD07868E6
:1053C00000F06DFA7B681B685B6903F04003402BBB
:1053D00041D17B681B681433C7F89C30D7F89C30E8
:1053E00053E8003FC7F89830D7F8983023F04003CF
:1053F000C7F8D0307B681B681433D7F8D020C7F8C3
:10540000A820C7F8A430D7F8A410D7F8A82041E8FE
:105410000023C7F8A030D7F8A030002BD9D17B6883
:10542000DB6B002B13D07B68DB6B8A4A1A657B68C9
:10543000DB6B1846FCF799FC0346002B16D07B6803
:10544000DB6B1B6D7A68D26B104698470EE078686C
:1054500000F0B6F90AE0786800F0B2F906E0786882
:1054600000F0AEF97B6800225A648DE100BF8BE149
:105470007B681B6B012B40F06781D7F8E43003F0A9
:105480001003002B00F06081D7F8E03003F0100328
:10549000002B00F059810023BB607B681B681B68F0
:1054A000BB607B681B685B68BB60BB687B681B6814
:1054B0005B6903F04003402B40F0CE807B68DB6BE0
:1054C0001B685B68A7F8BE30B7F8BE30002B00F051
:1054D000A9807B689B8DB7F8BE209A4280F0A2809D
:1054E0007B68B7F8BE20DA857B68DB6BDB69B3F5D8
:1054F000807F00F088807B681B680C33C7F8883099
:10550000D7F8883053E8003FC7F88430D7F88430A4
:1055100023F48073C7F8B8307B681B680C33D7F866
:10552000B820C7F89420C7F89030D7F89010D7F873
:10553000942041E80023C7F88C30D7F88C30002B3A
:10554000D9D17B681B6814337B677B6F53E8003FBE
:105550003B673B6F23F00103C7F8B4307B681B68DF
:105560001433D7F8B420C7F88020FB67F96FD7F859
:10557000802041E80023BB67BB6F002BE1D17B6833
:105580001B6814333B663B6E53E8003FFB65FB6DC5
:1055900023F04003C7F8B0307B681B681433D7F89A
:1055A000B020FA66BB66B96EFA6E41E800237B66EE
:1055B0007B6E002BE3D17B68202283F842207B683E
:1055C00000221A637B681B680C33FB64FB6C53E896
:1055D000003FBB64BB6C23F01003C7F8AC307B68A2
:1055E0001B680C33D7F8AC20BA657B65796DBA6D52
:1055F00041E800233B653B6D002BE3D17B68DB6B0F
:105600001846FCF742FB7B6802225A637B689A8D3E
:105610007B68DB8D9BB2D31A9BB21946786800F089
:10562000D9F8B3E07B689B8DB7F8BE209A4240F072
:10563000AD807B68DB6BDB69B3F5807F40F0A680D3
:105640007B6802225A637B689B8D1946786800F05C
:10565000C1F89BE0655900087B689A8D7B68DB8DFB
:105660009BB2D31AA7F8CE307B68DB8D9BB2002BA0
:1056700000F08E80B7F8CE30002B00F089807B6878
:105680001B680C33BB63BB6B53E8003F7B637B6BD6
:1056900023F49073C7F8C8307B681B680C33D7F8C5
:1056A000C8207A643B64396C7A6C41E80023FB6360
:1056B000FB6B002BE3D17B681B6814337B627B6A36
:1056C00053E8003F3B623B6A23F00103C7F8C43054
:1056D0007B681B681433D7F8C4203A63FB62F96A0D
:1056E0003A6B41E80023BB62BB6A002BE3D17B68C5
:1056F000202283F842207B6800221A637B681B68A3
:105700000C333B613B6953E8003FFB60FB6823F0CF
:105710001003C7F8C0307B681B680C33D7F8C02073
:10572000FA61BB61B969FA6941E800237B617B6971
:10573000002BE3D17B6802225A63B7F8CE301946BA
:10574000786800F047F823E0D7F8E43003F08003EE
:10575000002B09D0D7F8E03003F08003002B03D0F2
:10576000786800F010F914E0D7F8E43003F0400353
:10577000002B0ED0D7F8E03003F04003002B08D008
:10578000786800F050F904E000BF02E000BF00E0DC
:1057900000BFE837BD4680BD80B483B000AF7860FD
:1057A00000BF0C37BD465DF8047B704780B483B002
:1057B00000AF786000BF0C37BD465DF8047B7047D2
:1057C00080B483B000AF786000BF0C37BD465DF891
:1057D000047B704780B483B000AF78600B467B8059
:1057E00000BF0C37BD465DF8047B704780B586B0BE
:1057F00000AFF860B9603B601346FB713BE03B6A69
:10580000B3F1FF3F37D0FCF7FFF802463B68D31AED
:105810003A6A9A4202D33B6A002B01D103233AE051
:10582000FB681B68DB6803F00403002B23D0BB6814
:10583000802B20D0BB68402B1DD0FB681B681B68E9
:1058400003F00803082B16D100237B61FB681B685B
:105850001B687B61FB681B685B687B617B69F86820
:1058600000F01DF8FB6808225A64FB68002283F8E8
:10587000402001230FE0FB681B681A68BB681340D7
:10588000BA689A420CBF01230023DBB21A46FB79A7
:105890009A42B4D0002318461837BD4680BD80B464
:1058A00095B000AF78607B681B680C337B637B6BC3
:1058B00053E8003F3B633B6B23F49073FB647B68CE
:1058C0001B680C33FA6C3A64FB63F96B3A6C41E881
:1058D0000023BB63BB6B002BE5D17B681B681433D3
:1058E0003B623B6A53E8003FFB61FB6923F0010325
:1058F000BB647B681B681433BA6CFA62BB62B96A1A
:10590000FA6A41E800237B627B6A002BE5D17B6861
:105910001B6B012B19D17B681B680C33FB60FB6888
:1059200053E8003FBB60BB6823F010037B647B68D7
:105930001B680C337A6CBA617B617969BA6941E89A
:1059400000233B613B69002BE5D17B68202283F873
:1059500042207B6800221A6300BF5437BD465DF8C1
:10596000047B704780B584B000AF78607B689B6B28
:10597000FB60FB680022DA85F868FFF721FF00BFB3
:105980001037BD4680BD80B485B000AF78607B68BD
:1059900093F84130DBB2212B3ED17B689B68B3F595
:1059A000805F14D17B681B69002B10D17B681B6A58
:1059B000FB60FB681B881A467B681B68C2F3080201
:1059C0005A607B681B6A9A1C7B681A6208E07B68D5
:1059D0001B6A591C7A6811621A787B681B685A60C6
:1059E0007B68DB8C9BB2013B9BB27A681946D18401
:1059F000002B0FD17B681B68DA687B681B6822F07C
:105A00008002DA607B681B68DA687B681B6842F09A
:105A10004002DA60002300E0022318461437BD4636
:105A20005DF8047B704780B582B000AF78607B681A
:105A30001B68DA687B681B6822F04002DA607B68CA
:105A4000202283F841207868FFF7A6FE002318463D
:105A50000837BD4680BD80B58CB000AF78600023AC
:105A6000FB620023BB627B6893F84230DBB2222BDF
:105A700040F0AA807B689B68B3F5805F15D17B6896
:105A80001B69002B11D17B689B6ABB627B681B681A
:105A90005B689BB2C3F308039AB2BB6A1A807B6847
:105AA0009B6A9A1C7B689A6224E07B689B6AFB6213
:105AB0007B689B68B3F5805F07D07B689B68002B91
:105AC0000AD17B681B69002B06D17B681B685B6869
:105AD000DAB2FB6A1A7008E07B681B685B68DBB2AD
