:020000040800F2
:10000000000002207D5A0008E5540008ED54000865
:10001000F5540008FD5400080555000800000000D4
:100020000000000000000000000000000D55000866
:100030001B5500080000000029550008375500082E
:10004000CD5A0008CD5A0008CD5A0008CD5A0008F4
:10005000CD5A0008CD5A0008CD5A0008CD5A0008E4
:10006000CD5A0008CD5A0008CD5A0008CD5A0008D4
:10007000CD5A0008CD5A0008CD5A0008CD5A0008C4
:10008000CD5A0008CD5A0008CD5A0008CD5A0008B4
:10009000CD5A0008CD5A0008CD5A0008CD5A0008A4
:1000A000CD5A0008CD5A0008CD5A0008CD5A000894
:1000B00045550008CD5A0008CD5A0008CD5A000811
:1000C000CD5A0008595500086D550008CD5A000852
:1000D000CD5A0008CD5A0008CD5A000881550008B5
:1000E000CD5A0008CD5A0008CD5A0008CD5A000854
:1000F000CD5A0008CD5A0008CD5A0008CD5A000844
:10010000CD5A0008CD5A0008CD5A0008CD5A000833
:10011000CD5A0008CD5A0008CD5A0008CD5A000823
:10012000CD5A000895550008CD5A0008CD5A000850
:10013000CD5A0008CD5A0008CD5A0008CD5A000803
:10014000CD5A0008CD5A0008CD5A0008CD5A0008F3
:10015000CD5A0008CD5A0008CD5A0008A95500080C
:10016000CD5A0008CD5A0008CD5A0008CD5A0008D3
:10017000CD5A0008CD5A0008CD5A000800000000F2
:08018000CD5A0008CD5A000819
:1001900010B5054C237833B9044B13B10448AFF3C1
:1001A00000800123237010BDD40100200000000056
:1001B0000CDB000808B5034B1BB103490348AFF340
:1001C000008008BD00000000D80100200CDB000802
:1001D00001F0FF01102A2BDB10F0070F08D010F8F8
:1001E000013B013A8B422DD010F0070F42B3F6D1FC
:1001F000F0B441EA012141EA014122F007047FF015
:1002000000070023F0E80256083C85EA010586EA6B
:10021000010685FA47F5A3FA87F586FA47F6A5FAA7
:1002200087F68EB9EED1F0BC01F0FF0102F00702B3
:1002300032B110F8013B013A83EA010313B1F8D15E
:100240000020704701387047002D06BF354603383F
:10025000073815F0010F07D1013015F4807F02BF78
:10026000013015F4C03F0130F0BC0138704700BFC9
:10027000034613F8012B002AFBD1181A01387047E6
:1002800081F0004102E000BF83F0004330B54FEA47
:1002900041044FEA430594EA050F08BF90EA020FB4
:1002A0001FBF54EA000C55EA020C7FEA645C7FEA47
:1002B000655C00F0E2804FEA5454D4EB5555B8BF6A
:1002C0006D420CDD2C4480EA020281EA030382EADB
:1002D000000083EA010180EA020281EA0303362D6D
:1002E00088BF30BD11F0004F4FEA01314FF4801C40
:1002F0004CEA113102D0404261EB410113F0004F52
:100300004FEA03334CEA133302D0524263EB430308
:1003100094EA050F00F0A780A4F10104D5F1200EA6
:100320000DDB02FA0EFC22FA05F2801841F1000101
:1003300003FA0EF2801843FA05F359410EE0A5F1D5
:1003400020050EF1200E012A03FA0EFC28BF4CF006
:10035000020C43FA05F3C01851EBE37101F00045BC
:1003600007D54FF0000EDCF1000C7EEB00006EEBC9
:100370000101B1F5801F1BD3B1F5001F0CD3490853
:100380005FEA30004FEA3C0C04F101044FEA4452AA
:1003900012F5800F80F09A80BCF1004F08BF5FEA31
:1003A000500C50F1000041EB045141EA050130BD11
:1003B0005FEA4C0C404141EB0101013C28BFB1F523
:1003C000801FE9D291F0000F04BF01460020B1FA6E
:1003D00081F308BF2033A3F10B03B3F120020CDA41
:1003E0000C3208DD02F1140CC2F10C0201FA0CF01F
:1003F00021FA02F10CE002F11402D8BFC2F1200C84
:1004000001FA02F120FA0CFCDCBF41EA0C01904039
:10041000E41AA2BF01EB0451294330BD6FEA040482
:100420001F3C1CDA0C340EDC04F11404C4F120026D
:1004300020FA04F001FA02F340EA030021FA04F37F
:1004400045EA030130BDC4F10C04C4F1200220FAD6
:1004500002F001FA04F340EA0300294630BD21FA14
:1004600004F0294630BD94F0000F83F4801306BFDA
:1004700081F480110134013D4EE77FEA645C18BFCE
:100480007FEA655C29D094EA050F08BF90EA020F65
:1004900005D054EA000C04BF1946104630BD91EA5D
:1004A000030F1EBF0021002030BD5FEA545C05D160
:1004B0004000494128BF41F0004130BD14F580049F
:1004C0003CBF01F5801130BD01F0004545F0FE4113
:1004D00041F470014FF0000030BD7FEA645C1ABF48
:1004E000194610467FEA655C1CBF0B46024650EA7F
:1004F000013406BF52EA033591EA030F41F40021AB
:1005000030BD00BF90F0000F04BF0021704730B530
:100510004FF4806404F132044FF000054FF0000105
:1005200050E700BF90F0000F04BF0021704730B5C6
:100530004FF4806404F1320410F0004548BF40429B
:100540004FF000013EE700BF42004FEAE2014FEAF0
:1005500031014FEA02701FBF12F07F4393F07F4FCB
:1005600081F06051704732F07F4208BF704793F0CE
:100570007F4F04BF41F40021704730B54FF46074E1
:1005800001F0004521F000411CE700BF50EA0102E4
:1005900008BF704730B54FF000050AE050EA01028D
:1005A00008BF704730B511F0004502D5404261EBFD
:1005B00041014FF4806404F132045FEA915C3FF43E
:1005C000D8AE4FF003025FEADC0C18BF03325FEADB
:1005D000DC0C18BF033202EBDC02C2F1200300FA8C
:1005E00003FC20FA02F001FA03FE40EA0E0021FAB1
:1005F00002F11444BDE600BF70B54FF0FF0C4CF49F
:10060000E06C1CEA11541DBF1CEA135594EA0C0F50
:1006100095EA0C0F00F0DEF82C4481EA030621EA8B
:100620004C5123EA4C5350EA013518BF52EA0335C6
:1006300041F4801143F4801338D0A0FB02CE4FF078
:100640000005E1FB02E506F00042E0FB03E54FF0A8
:100650000006E1FB03569CF0000F18BF4EF0010EA0
:10066000A4F1FF04B6F5007F64F5407404D25FEA9C
:100670004E0E6D4146EB060642EAC62141EA55514F
:100680004FEAC52040EA5E504FEACE2EB4F1FD0C91
:1006900088BFBCF5E06F1ED8BEF1004F08BF5FEA0F
:1006A000500E50F1000041EB045170BD06F00046C1
:1006B00046EA010140EA020081EA0301B4EB5C046E
:1006C000C2BFD4EB0C0541EA045170BD41F4801166
:1006D0004FF0000E013C00F3AB8014F1360FDEBF8B
:1006E000002001F0004170BDC4F10004203C35DA67
:1006F0000C341BDC04F11404C4F1200500FA05F3EA
:1007000020FA04F001FA05F240EA020001F000428A
:1007100021F0004110EBD37021FA04F642EB060100
:100720005EEA430E08BF20EAD37070BDC4F10C042A
:10073000C4F1200500FA04F320FA05F001FA04F2EE
:1007400040EA020001F0004110EBD37041F10001DA
:100750005EEA430E08BF20EAD37070BDC4F12005E5
:1007600000FA05F24EEA020E20FA04F301FA05F24D
:1007700043EA020321FA04F001F0004121FA04F2F5
:1007800020EA020000EBD3705EEA430E08BF20EAC5
:10079000D37070BD94F0000F0FD101F000464000FF
:1007A00041EB010111F4801F08BF013CF7D041EA81
:1007B000060195F0000F18BF704703F00046520085
:1007C00043EB030313F4801F08BF013DF7D043EA56
:1007D0000603704794EA0C0F0CEA135518BF95EA0C
:1007E0000C0F0CD050EA410618BF52EA4306D1D193
:1007F00081EA030101F000414FF0000070BD50EAB2
:10080000410606BF1046194652EA430619D094EA3B
:100810000C0F02D150EA013613D195EA0C0F05D125
:1008200052EA03361CBF104619460AD181EA030179
:1008300001F0004141F0FE4141F470014FF0000031
:1008400070BD41F0FE4141F4780170BD70B54FF0CC
:10085000FF0C4CF4E06C1CEA11541DBF1CEA13554C
:1008600094EA0C0F95EA0C0F00F0A7F8A4EB05042E
:1008700081EA030E52EA03354FEA013100F0888025
:100880004FEA03334FF0805545EA131343EA1263EE
:100890004FEA022245EA111545EA10654FEA0026A3
:1008A0000EF000419D4208BF964244F1FD0404F55C
:1008B000407402D25B084FEA3202B61A65EB0305B8
:1008C0005B084FEA32024FF480104FF4002CB6EB75
:1008D000020E75EB030E22BFB61A754640EA0C00F5
:1008E0005B084FEA3202B6EB020E75EB030E22BF35
:1008F000B61A754640EA5C005B084FEA3202B6EB76
:10090000020E75EB030E22BFB61A754640EA9C0034
:100910005B084FEA3202B6EB020E75EB030E22BF04
:10092000B61A754640EADC0055EA060E18D04FEAC2
:10093000051545EA16754FEA06164FEAC30343EA62
:1009400052734FEAC2025FEA1C1CC0D111F4801F2F
:100950000BD141EA00014FF000004FF0004CB6E728
:1009600011F4801F04BF01430020B4F1FD0C88BFC7
:10097000BCF5E06F3FF6AFAEB5EB030C04BFB6EBD2
:10098000020C5FEA500C50F1000041EB045170BDC5
:100990000EF0004E4EEA113114EB5C04C2BFD4EBF2
:1009A0000C0541EA045170BD41F480114FF0000E76
:1009B000013C90E645EA060E8DE60CEA135594EAF2
:1009C0000C0F08BF95EA0C0F3FF43BAF94EA0C0FF5
:1009D0000AD150EA01347FF434AF95EA0C0F7FF46A
:1009E00025AF104619462CE795EA0C0F06D152EABE
:1009F00003353FF4FDAE1046194622E750EA4106A2
:100A000018BF52EA43067FF4C5AE50EA41047FF4B2
:100A10000DAF52EA43057FF4EBAE12E74FF0FF3C17
:100A200006E000BF4FF0010C02E000BF4FF0010CE8
:100A30004DF804CD4FEA410C7FEA6C5C4FEA430C61
:100A400018BF7FEA6C5C1BD001B050EA410C0CBFB0
:100A500052EA430C91EA030F02BF90EA020F002012
:100A6000704710F1000F91EA030F58BF994208BF79
:100A700090422CBFD8176FEAE37040F00100704736
:100A80004FEA410C7FEA6C5C02D150EA013C07D18D
:100A90004FEA430C7FEA6C5CD6D152EA033CD3D0D8
:100AA0005DF8040B704700BF8446104662468C46D2
:100AB0001946634600E000BF01B5FFF7B7FF002805
:100AC00048BF10F1000F01BD4DF808EDFFF7F4FF2E
:100AD0000CBF012000205DF808FB00BF4DF808EDB9
:100AE000FFF7EAFF34BF012000205DF808FB00BFDC
:100AF0004DF808EDFFF7E0FF94BF012000205DF8FE
:100B000008FB00BF4DF808EDFFF7CEFF94BF0120B2
:100B100000205DF808FB00BF4DF808EDFFF7C4FFAB
:100B200034BF012000205DF808FB00BF4FEA410CF4
:100B30007FEA6C5C02D150EA013C0AD14FEA430CD7
:100B40007FEA6C5C02D152EA033C02D14FF0000014
:100B500070474FF0010070474FEA410212F5001252
:100B600015D211D56FF47873B3EB625212D94FEAF4
:100B7000C12343F0004343EA505311F0004F23FADE
:100B800002F018BF404270474FF00000704750EA33
:100B9000013005D111F0004008BF6FF000407047F0
:100BA0004FF00000704700BF53B94AB9002908BF91
:100BB00000281CBF4FF0FF314FF0FF3000F088B924
:100BC000ADF1080C6DE904CE00F006F8DDF804E0A4
:100BD000DDE9022304B070472DE9F047089D8E46F9
:100BE00004468846002B4AD18A42174662D9B2FA97
:100BF00082F64EB1C6F1200301FA06F820FA03F39B
:100C0000B74043EA0808B4404FEA174E1FFA87FC82
:100C1000B8FBFEF1230C0EFB118843EA084301FBED
:100C20000CF29A4209D9FB1801F1FF3080F0EA80FA
:100C30009A4240F2E78002393B449A1AA3B2B2FBCF
:100C4000FEF00EFB102243EA024300FB0CFC9C4525
:100C500009D9FB1800F1FF3280F0D6809C4540F2A4
:100C6000D3803B44023840EA0140A3EB0C0300214F
:100C70001DB1F3400022C5E90032BDE8F0878B4288
:100C800005D90DB1C5E9000100210846F5E7B3FA21
:100C900083F1002946D1734502D3824200F20581D7
:100CA000841A6EEB030201209046002DE5D0C5E9C1
:100CB0000048E2E7002A00F09080B2FA82F6002EA7
:100CC00040F0A4808A1A030C4FEA174E80B2BCB2DF
:100CD0000121B2FBFEFC0EFB1C2243EA024304FB93
:100CE0000CF29A4207D9FB180CF1FF3802D29A4253
:100CF00000F2E080C4469B1AB3FBFEF20EFB1233F7
:100D000040EA034302FB04F49C4207D9FB1802F1BA
:100D1000FF3002D29C4200F2CA8002461B1B42EA0C
:100D20000C40A5E7C1F120068B4022FA06F71F43CD
:100D30000EFA01F420FA06F32EFA06FE4FEA1749DE
:100D4000234300FA01F81FFA87FCBEFBF9F01C0CE4
:100D500009FB10EE44EA0E4400FB0CFEA64502FA25
:100D600001F209D93C1900F1FF3A80F09C80A645B8
:100D700040F2998002383C44A4EB0E041FFA83FE33
:100D8000B4FBF9F309FB13444EEA044403FB0CFCE7
:100D9000A44508D93C1903F1FF3E80F08280A445A8
:100DA0007FD9023B3C4443EA0040A4EB0C04A0FB87
:100DB00002EC64457346E14662D35FD05DB1B8EBA7
:100DC000030264EB090404FA06F622FA01F31E4357
:100DD000CC40C5E9006400214FE7B1FBF2FC010CF7
:100DE00041EA0E4180B240EA01423B4638463C4669
:100DF000B846BE462026B1FBF7F1A2EB080241EA55
:100E00000C4166E7014618E710462CE7C6F12002C0
:100E10002EFA02F3B740B14020FA02F24FEA174E21
:100E20000A43B3FBFEF8BCB20EFB1833110C41EAC7
:100E3000034108FB04F9B04089454FEA104380B2F2
:100E40003ED9791808F1FF3C01D289451FD8A1EBA2
:100E50000901B1FBFEF909FB04F80EFB191192B26E
:100E600042EA0142424529D2BA1809F1FF31C4D2FF
:100E70004245C2D2A9F102013A44BEE7F0459DD2F3
:100E8000BEEB02036CEB070C0138E14696E7A7EBDB
:100E900009094944A8F1020CB1FBFEF909FB04F869
:100EA000DBE773467FE7504666E70846FDE63B44CE
:100EB000023A33E7ACF1020C3B441CE749469CE79D
:100EC000A1EB0901C446B1FBFEF909FB04F8C4E734
:100ED000704700BF80B582B000AF7860786800F0DE
:100EE0005DF80346002B01D0012300E000231846E3
:100EF0000837BD4680BD80B582B000AF78607868A5
:100F000000F0AAF80346002B01D0012300E00023E3
:100F100018460837BD4680BD80B485B000AF786004
:100F20000B467B804FF6FF73FB810023BB8129E0DA
:100F3000BB897A6813441B781BB21B021AB2B7F93B
:100F40000E3053401BB2FB810023FB7214E0B7F953
:100F50000E30002B0ADAB7F90E305B001BB283F4B7
:100F6000815383F001031BB2FB8102E0FB895B002C
:100F7000FB81FB7A0133FB72FB7A072BE7D9BB8934
:100F80000133BB81BA897B889A42D1D3FB89184649
:100F90001437BD465DF8047B7047000080B59EB0F5
:100FA00000AF786007F1140307F1280140221846CA
:100FB00003F02EF907F114037A682649184603F066
:100FC00094FD034683F00103DBB2002B01D0002324
:100FD0003CE03B6AA7F86E307E233B73B7F86E3077
:100FE000A7F80D30B7F86E2007F128031146184610
:100FF000FFF792FF0346A7F80F3000237B7407F139
:101000000C03BB6600237B6709E07B6FBA6E134459
:101010001B78184600F064FA7B6F01337B677B6FA7
:10102000052BF2D900233B670AE007F128023B6F4A
:1010300013441B78184600F053FA3B6F01333B67AB
:10104000B7F86E303A6F9A42EFDB012318467837D3
:10105000BD4680BD8012010880B59CB000AF7860AD
:1010600007F16303184600F04DFA0346002B03D046
:1010700097F863307E2B01D0002360E07E2387F851
:101080005C3007F15C030133FB660023BB660DE0B7
:10109000FB6E5A1CFA66184600F034FA0346002B21
:1010A00001D100234BE0BB6E0133BB66BB6E042B4A
:1010B000EEDD00237B660EE007F11C027B6E13441D
:1010C000184600F01FFA0346002B01D1002336E03A
:1010D0007B6E01337B66B7F85D309BB21A467B6E40
:1010E0009342E9DBB7F85D309AB207F11C03114671
:1010F0001846FFF711FF03461A46B7F85F309BB258
:101100009A4201D000231AE0B7F85D309BB21A462C
:1011100007F10C0307F11C01184601F06DFB07F104
:101120000C037A680849184602F0A0FC034683F0D5
:101130000103DBB2002B01D0002300E0012318469D
:101140007037BD4680BD00BF8012010880B582B0F7
:1011500000AF00237B600C4B1B6B0B4A43F48003F6
:101160001363094B1B6B03F480037B607B680022D5
:101170000021392004F01DFE392004F036FE00BFA6
:101180000837BD4680BD00BF0038024080B58EB034
:1011900000AF07F11C0300221A605A609A60DA60FF
:1011A0001A615A619A613B4600221A605A609A603D
:1011B000DA601A615A619A612F4B4FF020421A602F
:1011C0002D4B2E4A5A602C4B00229A602A4B00224B
:1011D000DA60294B00221A61274B10225A61264BF4
:1011E00000229A61244B0022DA61234B00221A620A
:1011F000214B00225A62204B4FF480529A621E4BC0
:101200000022DA621C4B4FF480421A631A4B002210
:101210005A63194B00229A63174B00225A640F231A
:10122000FB610F233B623C237B620023BB621023E4
:10123000FB6211233B6300237B6308233B600F2386
:101240007B600923BB600023FB6010233B611123FB
:101250007B610023BB613A4607F11C03194606482F
:1012600007F0D7FE0346002B01D000F0D7FE00BFE9
:101270003837BD4680BD00BFF0010020040100A04A
:1012800080B586B000AF3B1D00221A605A609A609C
:10129000DA601A611C4B1B68002B31D11A4B0122FA
:1012A0001A6000233B60194B9B6B184A43F0010303
:1012B0009363164B9B6B03F001033B603B684FF657
:1012C00088737B600223BB600023FB6003233B61C8
:1012D0000C237B613B1D19460D4805F0B1F94CF21A
:1012E000B3737B600223BB600023FB6003233B617D
:1012F0000C237B613B1D1946064805F0A1F900E06F
:1013000000BF1837BD4680BD4002002000380240B3
:1013100000100240000C024080B582B000AF78603F
:10132000FFF7AEFF00BF0837BD4680BD80B58CB06B
:1013300000AF07F11C0300221A605A609A60DA605D
:101340001A610023BB615A4B1B6B594A43F01003CF
:101350001363574B1B6B03F01003BB61BB69002386
:101360007B61534B1B6B524A43F004031363504B96
:101370001B6B03F004037B617B6900233B614C4BD7
:101380001B6B4B4A43F080031363494B1B6B03F009
:1013900080033B613B690023FB60454B1B6B444A68
:1013A00043F002031363424B1B6B03F00203FB6029
:1013B000FB680023BB603E4B1B6B3D4A43F00803B8
:1013C00013633B4B1B6B03F00803BB60BB6800233C
:1013D0007B60374B1B6B364A43F040031363344B3F
:1013E0001B6B03F040037B607B6800233B60304B4A
:1013F0001B6B2F4A43F0010313632D4B1B6B03F050
:1014000001033B603B6800224FF40051294805F07E
:10141000B3FA00224021284805F0AEFA00224FF42A
:101420000141264805F0A8FA00220821244805F0C9
:10143000A3FA4FF40053FB6101233B6200237B625C
:101440000023BB6207F11C0319461A4805F0F8F89F
:101450004023FB6101233B6200237B620023BB62CC
:1014600007F11C031946144805F0EAF84FF401434C
:10147000FB6101233B6200237B620023BB6207F117
:101480001C0319460D4805F0DBF80823FB61012316
:101490003B6200237B620023BB6207F11C031946F9
:1014A000074805F0CDF800BF3037BD4680BD00BF0E
:1014B00000380240000802400018024000000240CC
:1014C000000C024080B500AF4FF48072024903481F
:1014D00008F0CBFA00BF80BD440200209004002039
:1014E00080B582B000AF0346FB71F91D6423012271
:1014F000034808F02FFA00BF0837BD4680BD00BF83
:101500009004002080B485B000AF7860154BDB6B91
:101510001B685B689BB2C3F58073FB81124B1B8811
:101520009BB2FA899A4201D1002315E00E4B1B8829
:101530009BB21A460D4B9B5CDAB27B681A700A4B61
:101540001B889BB201335A42DBB2D2B258BF53421E
:101550009AB2054B1A80012318461437BD465DF830
:10156000047B7047900400204403002044020020C4
:1015700080B500AF124B134A1A60114B124A5A60E1
:101580000F4B00229A600E4B0022DA600C4B4FF496
:1015900080421A610A4B00225A61094B00229A616B
:1015A000074B0022DA61064B00221A62044805F05C
:1015B000FDF90346002B01D000F030FD00BF80BDD7
:1015C0004803002000580040A086010080B58AB082
:1015D00000AF786007F1140300221A605A609A6025
:1015E000DA601A617B681B68214A93423CD1002370
:1015F0003B61204B1B6B1F4A43F0020313631D4BDF
:101600001B6B03F002033B613B694FF440637B615A
:101610001223BB610123FB6103233B6204237B6232
:1016200007F114031946144805F00AF80023FB607B
:10163000104B1B6C0F4A43F4800313640D4B1B6C5F
:1016400003F48003FB60FB6800220021212004F0EA
:10165000B0FB212004F0C9FB00220021222004F06D
:10166000A8FB222004F0C1FB00BF2837BD4680BD87
:1016700000580040003802400004024080B483B0AB
:1016800000AF0346FB804FF0C042FB88138000BFD1
:101690000C37BD465DF8047B7047000080B483B012
:1016A00000AF0346FB80044AFB88138000BF0C3761
:1016B000BD465DF8047B70470000106080B400AF49
:1016C000034B1B889BB21846BD465DF8047B7047F0
:1016D0000000106090B583B000AF04460846114684
:1016E0001A462346FB800346BB800B467B8013468D
:1016F0003B802A20FFF7C2FFFB881B0A9BB21846DB
:10170000FFF7CCFFFB88DBB29BB21846FFF7C6FFA2
:101710007B881B0A9BB21846FFF7C0FF7B88DBB2B1
:101720009BB21846FFF7BAFF2B20FFF7A7FFBB8835
:101730001B0A9BB21846FFF7B1FFBB88DBB29BB216
:101740001846FFF7ABFF3B881B0A9BB21846FFF712
:10175000A5FF3B88DBB29BB21846FFF79FFF2C200A
:10176000FFF78CFF00BF0C37BD4690BD80B584B03D
:1017700000AF0346FB80134B1B881A46114B5B8856
:1017800002FB03F3BB600F4B1B88013B9AB20D4B6E
:101790005B88013B9BB200210020FFF79BFF0023E9
:1017A000FB6006E0FB881846FFF778FFFB68013313
:1017B000FB60FA68BB689A42F4D300BF00BF1037E1
:1017C000BD4680BD9C03002080B582B000AF0346BB
:1017D000FB800B46BB8013467B80BB88FA88B988A8
:1017E000F888FFF777FF7B881846FFF757FF00BFA1
:1017F0000837BD4680BD000090B587B000AF0446F5
:10180000084611461A462346FB800346BB800B461A
:10181000FB7013463B8000237B75FB883B8297F867
:101820002C305B08FB73FB7BDB08DBB21A46FB7BCF
:1018300003F00703DBB2002B14BF01230023DBB24C
:1018400013449AB297F82C309BB212FB03F3BB817E
:10185000FB78203BFB70FB7B9AB2FB8813449BB266
:10186000013B9CB297F82C309AB2BB8813449BB2D0
:10187000013B9BB2B988F8882246FFF72BFF002373
:101880007B8286E097F82C300C2B0BD1FA78798A82
:10189000454813465B0013449B0003440B441B78EC
:1018A000FB7528E097F82C30102B08D1FA787B8A4A
:1018B0003E4912010A4413441B78FB751BE097F85C
:1018C0002C30182B0BD1FA78798A394813465B00F3
:1018D00013441B0103440B441B78FB750BE097F882
:1018E0002C30202B5BD1FA787B8A324992010A4452
:1018F00013441B78FB750023BB7544E097F8303028
:10190000002B20D1FA7DBB7D42FA03F303F00103E3
:10191000002B04D03B881846FFF7C0FE03E03B8D48
:101920001846FFF7BBFE7B7D01337B757B7DFA7B21
:10193000B3FBF2F101FB02F29B1ADBB2002B1FD1C9
:1019400000237B7522E0FA7DBB7D42FA03F303F0AE
:101950000103002B05D03A88B988FB881846FFF7A9
:1019600033FFFB880133FB80FA883B8AD21AFB7B6A
:101970009A4205D13B8AFB80BB880133BB8005E0DE
:10198000BB7D0133BB75BB7D072BB7D97B8A013388
:101990007B827A8ABB899A42FFF474AF00E000BF71
:1019A0001C37BD4690BD00BF78DE0008ECE20008A1
:1019B000DCE80008ACFA000890B58BB004AFBA6060
:1019C0001A460346FB810B46BB811346FB80FB890D
:1019D000BB820023FB7548E0FB7D002B45D1FA89D3
:1019E000264B1B88194697F82C305B08DBB2CB1AC4
:1019F0009A423FDCBA89214B5B88194697F82C3014
:101A0000CB1A9A4236DCBB681B78802B02D90123A3
:101A1000FB752AE0BB681B780D2B0BD197F82C3097
:101A20009AB2BB891344BB81BB8AFB81BB6801337B
:101A3000BB6017E0BB681A78FC88B989F88997F809
:101A40003030029397F82C3001933B8D009323465E
:101A5000FFF7D2FE97F82C305B08DBB21A46FB8901
:101A60001344FB81BB680133BB60BB681B78002B50
:101A7000B2D100E000BF1C37BD4690BD9C030020E2
:101A800080B483B000AF0346FB71FB7903F03003F1
:101A9000DBB2002B07D00A4B4FF4A0721A80084B20
:101AA000F0225A8006E0064BF0221A80044B4FF4D5
:101AB000A0725A8000BF0C37BD465DF8047B7047AA
:101AC0009C03002080B500AF00224FF40051AA48CB
:101AD00004F052FF4FF4FA7004F06CF801224FF456
:101AE0000051A54804F048FF4FF4FA7004F062F882
:101AF0000020FFF7C5FFD320FFF7C0FDFFF7DEFD95
:101B000003461A469D4B9A80FFF7D8FD03461A46B6
:101B10009A4B9A80FFF7D2FD03461A46974B9A805C
:101B2000964B9B881B029AB2944B9A80FFF7C6FD96
:101B300003461A46914B9B8813439AB28F4B9A8067
:101B4000CF20FFF79BFD0020FFF7A8FDC120FFF786
:101B5000A5FD3020FFF7A2FDED20FFF78FFD6420EB
:101B6000FFF79CFD0320FFF799FD1220FFF796FD7C
:101B70008120FFF793FDE820FFF780FD8520FFF728
:101B80008DFD1020FFF78AFD7A20FFF787FDCB201F
:101B9000FFF774FD3920FFF781FD2C20FFF77EFD54
:101BA0000020FFF77BFD3420FFF778FD0220FFF7D0
:101BB00075FDF720FFF762FD2020FFF76FFDEA209B
:101BC000FFF75CFD0020FFF769FD0020FFF766FDD1
:101BD000C020FFF753FD1B20FFF760FDC120FFF77A
:101BE0004DFD0120FFF75AFDC520FFF747FD3020CE
:101BF000FFF754FD3020FFF751FDC720FFF73EFDF2
:101C0000B720FFF74BFD3620FFF738FD0820FFF720
:101C100045FD3A20FFF732FD5520FFF73FFDB1208B
:101C2000FFF72CFD0020FFF739FD1A20FFF736FDE6
:101C3000B620FFF723FD0A20FFF730FDA220FFF7B3
:101C40002DFDF220FFF71AFD0020FFF727FD2620CB
:101C5000FFF714FD0120FFF721FDE020FFF70EFD47
:101C60000F20FFF71BFD2A20FFF718FD2820FFF7A4
:101C700015FD0820FFF712FD0E20FFF70FFD0820CD
:101C8000FFF70CFD5420FFF709FDA920FFF706FD23
:101C90004320FFF703FD0A20FFF700FD0F20FFF7A9
:101CA000FDFC0020FFF7FAFC0020FFF7F7FC002006
:101CB000FFF7F4FC0020FFF7F1FCE120FFF7DEFC6A
:101CC0000020FFF7EBFC1520FFF7E8FC1720FFF7DB
:101CD000E5FC0720FFF7E2FC1120FFF7DFFC062000
:101CE000FFF7DCFC2B20FFF7D9FC5620FFF7D6FCD2
:101CF0003C20FFF7D3FC0520FFF7D0FC1020FFF7B6
:101D0000CDFC0F20FFF7CAFC3F20FFF7C7FC3F20A8
:101D1000FFF7C4FC0F20FFF7C1FC2B20FFF7AEFC40
:101D20000020FFF7BBFC0020FFF7B8FC0120FFF705
:101D3000B5FC3F20FFF7B2FC2A20FFF79FFC0020F4
:101D4000FFF7ACFC0020FFF7A9FC0020FFF7A6FC82
:101D5000EF20FFF7A3FC1120FFF790FC782003F0A1
:101D600029FF2920FFF78AFC01224FF480710448E3
:101D700004F002FE00BF80BD000802409C0300206A
:101D80000000024080B59CB004AF03F0A1FE00F05B
:101D9000DBF8FFF7CBFAFFF7D9F903F05BFDFFF7AC
:101DA000F5F903F0F9FA03F0E1FCFFF7E1FB03F0CA
:101DB0007BFDFFF787FBFFF785FE0020FFF7D6FCD2
:101DC0000023029318230193002300934FF6E0733E
:101DD000554A0A210A20FFF7EFFD0023029318233A
:101DE00001930023009347F6FF73504A2D210A20E8
:101DF000FFF7E2FD002302931023019300230093D9
:101E00004FF6FF734A4A50210A20FFF7D5FD002301
:101E1000FB650023BB6503F0C1FE0246FB6DD31AD0
:101E2000B3F57A7F64D303F0B9FEF86501233B6410
:101E300003F0B4FE02463F4BA3FB02135B0964218F
:101E400001FB03F3D31A07EE903AB8EE677AF2EE8D
:101E5000046AC7EE267AB3EE097A77EE877AC7ED81
:101E6000117A03F09BFE0346BB6407F1400318465A
:101E7000FFF730F80346002B2DD0BB6D0133BB6557
:101E80007B6C1846FEF760FB02460B4638462A4933
:101E900009F00AFD3A460023029318230193002318
:101EA000009347F67C536E210A20FFF785FD3B46E1
:101EB000BA6D2249184609F0F7FC3A46002302930E
:101EC00010230193002300934FF4FC638C210A201C
:101ED000FFF772FD0CE0002302931023019300230F
:101EE00000934FF47843164A8C210A20FFF764FDD3
:101EF00007F14C031846FEF7FEFF0346002B8AD07D
:101F0000FA6C3B460F49184609F0CEFC3A460023CE
:101F1000029310230193002300931F23AA210A2078
:101F2000FFF74AFD77E700BF28DB00083CDB00082D
:101F30004CDB00081F85EB5160DB000874DB0008F8
:101F400088DB00089CDB000880B594B000AF07F187
:101F5000200330220021184609F00BFD07F10C0385
:101F600000221A605A609A60DA601A610023BB602E
:101F7000284B1B6C274A43F080531364254B1B6C82
:101F800003F08053BB60BB6800237B60224B1B685F
:101F9000214A43F4804313601F4B1B6803F48043C2
:101FA0007B607B6802233B620123FB6210233B635F
:101FB0000223BB630023FB6308233B64A8237B64E9
:101FC0000223BB640423FB6407F12003184606F0D8
:101FD0003FFB0346002B01D000F020F80F23FB60ED
:101FE00002233B6100237B614FF4A053BB614FF49C
:101FF000A053FB6107F10C030521184606F0A0FD74
:102000000346002B01D000F009F800BF5037BD4651
:1020100080BD00BF003802400070004080B400AFB7
:1020200072B600BF00BFFDE780B48FB000AF78602C
:102030007B681A897B681B681B8A9A4201D300233C
:1020400056E17B681B681A687B685B899B001344B8
:102050001B68FB62FB6A1B0ADAB27B689A75FB6A33
:1020600003F00303022B5AD0022B00F29480002BC2
:1020700002D0012B1FD08EE07B6801229A82FB6A7E
:102080009B089BB203F03F039AB27B681A82FB6AFB
:102090001B0E5BB203F00F0387F83330FB6A1B0C97
:1020A000DBB27B63FB6A1B0F9BB203F00F039AB298
:1020B0007B685A82B4E07B681B681A687B685B891E
:1020C00001339B0013441B68FB61FB6A1B0C9BB232
:1020D000C3F30B039AB27B689A82FB6A9B089BB29C
:1020E00003F03F039AB2FB691B0F9BB29B019BB2AB
:1020F00013439AB27B681A82FB6A1B0F5BB203F030
:102100000F0387F83330FB699BB27B63FB691B0CC1
:102110009BB2C3F30B039AB27B685A8280E07B6860
:102120001B681A687B685B8901339B0013441B683A
:10213000BB627B681B681A687B685B8902339B0003
:1021400013441B687B627B681B681A687B685B8929
:1021500003339B0013441B683B62FB6A1B0C9AB25F
:102160007B689A82FB6A9B089BB203F03F039AB29A
:10217000BB6A1B0A9BB29B019BB213439AB27B685A
:102180001A82BB6A87F833307B6A7B633B6A9AB2F8
:102190007B685A8244E07B681B681A687B685B89AD
:1021A00001339B0013441B68BB617B681B681A6882
:1021B0007B685B8902339B0013441B687B617B68EF
:1021C0001B681A687B685B8903339B0013441B6898
:1021D0003B617B681B681A687B685B8904339B00E2
:1021E00013441B68FB60FB689AB27B689A82FB6AA7
:1021F0009B089BB203F03F039AB2BB691B0A9BB2D8
:102200009B019BB213439AB27B681A82BB6987F821
:1022100033307B697B633B699AB27B685A8200BF2B
:102220007B685B68002B06D17B6800229A617B6823
:1022300000221A6241E07B685A687B6B1A447B6813
:102240009A6197F93330002B08D07B689A6997F927
:1022500033305B421A447B681A621AE07B689B7DCC
:1022600003F03003202B11D17B689B7D03F0C0036A
:10227000002B05D07B689B7D03F0C003802B05D12C
:102280007B6803F114027B681A6202E07B6800221B
:102290001A627B689B7D03F0C003802B09D17B68A9
:1022A0009B69002B05D07B689B691A687B68DA61A3
:1022B00003E07B689A697B68DA617B689B7D03F049
:1022C0000F03082B05D07B689B7D03F00F03092BC0
:1022D0000AD17B681B685A687B68DB899B001344C2
:1022E0001A687B685A6202E07B6800225A62012306
:1022F00018463C37BD465DF8047B704780B485B016
:1023000000AF78607B681B8901339AB27B681A81C1
:102310007B681A897B681B681B8A9A420CD37B688E
:1023200000221A817B6800225A817B680022DA81B0
:102330007B6800229A813BE07B681B681A687B6897
:102340005B899B0013441B68FB60FB681B0AFB72E4
:10235000FB6803F00303012202FA03F33B817B686D
:102360005A893B8913449AB27B685A817B689B895E
:10237000FA7A02F03002002A0CBF01220022D2B207
:1023800013449AB27B689A817B68DA89FB7A03F0FE
:102390000F03082B04D0FB7A03F00F03092B01D1A4
:1023A000012300E000239BB213449AB27B68DA81D8
:1023B00000BF1437BD465DF8047B704780B584B01C
:1023C00000AFF860B9607A6028220021F86809F04F
:1023D000D0FAFB68BA681A60FB687A685A60F868D5
:1023E000FFF722FE034618461037BD4680BD80B574
:1023F00086B000AF786039603B681B689B683B61C2
:102400003B691B681B68FB60FB681B0A03F0C00389
:10241000802B09D13B6804331A4639697868FFF785
:10242000CDFF0346FB7508E03B685B681A463969D7
:102430007868FFF7C3FF0346FB753B6803F10C02A6
:102440007B681A62FB7D18461837BD4680BD80B593
:1024500082B000AF78607868FFF750FF7868FFF7C8
:10246000E3FD7B681B89002B14BF01230023DBB233
:1024700018460837BD4680BD80B584B000AF78608F
:1024800039607B681B8A1A463B68934201D101235D
:1024900044E07B681B689B8A1A463B68934201D9DB
:1024A00000233BE07B681B89FB817B681B8A1A4603
:1024B0003B68934204D27B681B681A8A7B681A8146
:1024C0007868FFF71BFF7B681B681A687B685B896D
:1024D0009B0013441B68BB60BB689A083B68534071
:1024E00003F03F03002B10D17868FFF79DFD7B6858
:1024F0001B8A1A463B68934207D17B689B7D03F099
:102500000F030A2B01D0012308E07B681B89FA899D
:102510009A42D5D17868FFF787FD00231846103717
:10252000BD4680BD80B584B000AF78607B689B7D80
:1025300003F00F030A2B01D1012322E07B681B89E2
:10254000FB817868FFF7DAFE7B681B681A687B6896
:102550005B899B0013441B68BB60BB681B0A03F0CC
:102560000F030A2B04D17868FFF75EFD034608E0ED
:102570007B681B89FA899A42E3D17868FFF754FD9A
:10258000002318461037BD4680BD80B485B000AF2B
:1025900078607B68FB60FB6818461437BD465DF8C1
:1025A000047B704780B584B000AFF860B9607A6092
:1025B0007868FFF7EAFF03461A46B968F868FFF73C
:1025C000FDFE034618461037BD4680BD80B582B07B
:1025D00000AF786039603868FFF7D7FF03461946C7
:1025E0007868FFF704FF034618460837BD4680BDEC
:1025F00080B586B000AFF860B9607A607B685B8AAE
:10260000082B25D17B68DB697B617B69002B1FD0A0
:10261000FB68002B0CD07B691B68002B08D07B6902
:102620001B687A6904327968F8689847034610E0B5
:10263000BB68002B0CD07B691B68002B08D07B6922
:102640001B687A6904327968B8689847034600E0E5
:10265000012318461837BD4680BD80B586B000AF4F
:10266000F860B9607A60FB685B687B61FB685A68F8
:102670007B681A44FB685A60BB68002B04D07A68F8
:102680007969B86809F0F5F9012318461837BD468D
:1026900080BD000080B588B000AFF860B9607A6096
:1026A0007B68002B01D101235FE0BB68002B23D1A5
:1026B000FB681B682F4A93421ED011E007F11003FC
:1026C00010221946F868FFF7E5FF034683F001037F
:1026D000DBB2002B01D0002347E07B68103B7B601E
:1026E0007B68102BEAD807F110037A681946F8685E
:1026F000FFF7D0FF034638E0FB689B687A689A4290
:102700000BD9FB68DB68002B02D0FB68DB6800E0BC
:10271000194BFA68D360002327E0FB681B687A68CE
:10272000B968F8689847034683F00103DBB2002BD1
:102730000BD0FB68DB68002B02D0FB68DB6800E095
:102740000E4BFA68D36000230FE0FB689B687A6841
:102750009A4203D9FB6800229A6005E0FB689A68F8
:102760007B68D21AFB689A60012318462037BD4661
:1027700080BD00BF5B260008B4DB0008C4DB000896
:1027800080B582B000AF786039607B689B68002BB1
:102790000BD17B68DB68002B02D07B68DB6800E034
:1027A000134B7A68D36000231DE07B681B6801220D
:1027B000396878689847034683F00103DBB2002B41
:1027C0000BD07B68DB68002B02D07B68DB6800E005
:1027D000084B7A68D360002305E07B689B685A1E2B
:1027E0007B689A60012318460837BD4680BD00BF4C
:1027F000B4DB0008C4DB000890B48AB000AFF86016
:10280000B9607A600A4BBB61BB687B617B69FB6125
:102810007B683B6200237B62FB681C4607F1180360
:102820000FCB84E80F00F8682837BD4690BC70478E
:102830005B26000880B588B000AFF860B9607A60A8
:1028400007F115031946F868FFF79AFF034683F06E
:102850000103DBB2002B0BD0FB689B68002B05D17A
:102860007B68002B02D07B6801221A70002384E071
:102870007B7D5BB2002B02DB7B7DFB6179E0072374
:10288000BB617B7D03F07F03FB6107F115031946F4
:10289000F868FFF775FF034683F00103DBB2002BF6
:1028A00001D0002369E0BB691F2B2FD9BB693E2BE8
:1028B00001D8FF2300E00123FB757B7D03F07F033C
:1028C000002B06D0FB69002B05DA7B7DFA7D9A424E
:1028D00001D1012300E00023BB75BB7D03F00103A0
:1028E000BB75BB693F2B05D8BB7D83F00103DBB211
:1028F000002B37D0FB68DB68002B02D0FB68DB685D
:1029000000E0204BFA68D360002336E0BB691C2B43
:102910001FD17B7D03F07003002B10D07B7D03F073
:102920007803782B0BD0FB68DB68002B02D0FB68A8
:10293000DB6800E0134BFA68D36000231DE07B7D69
:1029400003F00F02BB6902FA03F3FA691343FB6158
:1029500008E07B7D03F07F02BB6902FA03F3FA69AA
:102960001343FB61BB690733BB617B7D5BB2002B0B
:102970008BDBBB68FA691A60012318462037BD4615
:1029800080BD00BFD0DB000880B582B000AF7860AA
:102990003960002239687868FFF74CFF0346184613
:1029A0000837BD4680BD00002DE9B04F8AB000AFAA
:1029B000F860B96000237B624FF000024FF0000323
:1029C000C7E9062307F117031946F868FFF7D8FE91
:1029D000034683F00103DBB2002B01D0002341E06A
:1029E0007B6A3E2B10D9FB7D03F0FE03002B0BD03E
:1029F000FB68DB68002B02D0FB68DB6800E01C4B47
:102A0000FA68D36000232DE0FB7DDBB200223B603F
:102A10007A603B6803F07F084FF000097B6AA3F1FE
:102A20002001C3F1200209FA03F508FA01F10D4370
:102A300028FA02F2154308FA03F4D7E9062342EA1A
:102A4000040A43EA050BC7E906AB7B6A07337B62DE
:102A5000FB7D5BB2002BB5DBB968D7E90623C1E982
:102A60000023012318462837BD46BDE8B08F00BFBC
:102A7000D0DB000880B584B000AF786007F10F03A9
:102A8000012219467868FFF705FE034683F001032B
:102A9000DBB2002B01D0002304E0FB7B5BB2002BF8
:102AA000ECDB012318461037BD4680BD80B584B0ED
:102AB00000AF786007F10C0319467868FFF764FFF0
:102AC000034683F00103DBB2002B01D0002306E0B4
:102AD000FB681A4600217868FFF7DCFD03461846BC
:102AE0001037BD4680BD80B586B000AFF860B960D4
:102AF0007A603B603B6800221A70BB6800221A7043
:102B00007B6800221A6007F114033A681946F868D6
:102B1000FFF790FE034683F00103DBB2002B01D0E8
:102B200000230BE07B69DA087B681A607B69DBB203
:102B300003F00703DAB2BB681A700123184618378E
:102B4000BD4680BD80B582B000AF78600B46FB709B
:102B5000FB78052B26D801A252F823F0752B00082C
:102B60007F2B00088D2B0008A52B0008A52B000843
:102B7000972B00087868FFF77DFF03461DE00822C9
:102B800000217868FFF786FD034616E07868FFF7B6
:102B90008DFF034611E0042200217868FFF77AFDDB
:102BA00003460AE07B68DB68002B02D07B68DB68A9
:102BB00000E0044B7A68D360002318460837BD460E
:102BC00080BD00BFE0DB000880B586B000AFF860D4
:102BD0007A603B600B46FB723B681B687B61FB7A4B
:102BE000052B3FD0052B47DC002B02D0012B2FD02B
:102BF00042E03B6800221A603B681B685A1C3B6835
:102C00001A603B681B687A699A420BD2FB68DB68E2
:102C1000002B02D0FB68DB6800E01F4BFA68D36032
:102C2000002334E001227968F868FFF733FD03469A
:102C300083F00103DBB2002B01D0002327E07B6887
:102C40005A1C7A601B785BB2002BD5DB01231EE097
:102C50003B6808221A6008227968F868FFF71AFDB5
:102C6000034614E03B6804221A6004227968F8687D
:102C7000FFF710FD03460AE0FB68DB68002B02D07B
:102C8000FB68DB6800E0054BFA68D3600023184658
:102C90001837BD4680BD00BFD0DB0008E0DB000870
:102CA00090B585B000AF7860396007F10C03194624
:102CB0007868FFF769FE034683F00103DBB2002B5F
:102CC00001D0002320E03A687B6814460FCB84E8EB
:102CD0000F003B689A68FB689A420BD27B68DB68FE
:102CE000002B02D07B68DB6800E0094B7A68D36078
:102CF000002309E0FA683B689A607B689A68FB6881
:102D0000D21A7B689A60012318461437BD4690BDDD
:102D1000F4DB000880B582B000AF786039603B68B2
:102D20009B68002B0ED03B689B681A4600213868D0
:102D3000FFF7B0FC034683F00103DBB2002B01D0A8
:102D4000002308E03B685A687B685A603B68DA6891
:102D50007B68DA60012318460837BD4680BD000055
:102D600080B584B000AFF8600B467A60FB727B6878
:102D70009B7D03F00F030B2B00F2D48001A252F8CD
:102D800023F000BFB52D0008E52D0008E52D000853
:102D9000E52D0008152E0008492E00087D2E00089C
:102DA000A72E0008D12E0008D12E0008252F0008DC
:102DB000FB2E0008FB7A002B0ED0FB7AFF2B0BD0EA
:102DC000FB68DB68002B02D0FB68DB6800E05D4B32
:102DD000FA68D3600023B0E07968F86800F0F6FE86
:102DE0000346AAE0FB7A002B0ED0FB7AFF2B0BD018
:102DF000FB68DB68002B02D0FB68DB6800E0514B0E
:102E0000FA68D360002398E07968F86800F0EEFE75
:102E1000034692E0FB7A052B0ED0FB7AFF2B0BD0FA
:102E2000FB68DB68002B02D0FB68DB6800E0454BE9
:102E3000FA68D360002380E07B68DB691946F86894
:102E400000F08AFE034678E0FB7A012B0ED0FB7A75
:102E5000FF2B0BD0FB68DB68002B02D0FB68DB6824
:102E600000E0384BFA68D360002366E07B68DB69DA
:102E70001946F86800F08CFE03465EE0FB7A022BF0
:102E80000BD0FB68DB68002B02D0FB68DB6800E03E
:102E90002C4BFA68D36000234FE07968F86800F0A3
:102EA000D1FF034649E0FB7A022B0BD0FB68DB68BD
:102EB000002B02D0FB68DB6800E0224BFA68D3608D
:102EC00000233AE07968F86801F030F8034634E00E
:102ED000FB7A022B0BD0FB68DB68002B02D0FB686F
:102EE000DB6800E0174BFA68D360002325E07968BF
:102EF000F86801F097F803461FE0FB7A022B0BD02D
:102F0000FB68DB68002B02D0FB68DB6800E00D4B40
:102F1000FA68D360002310E07968F86801F00CF9D2
:102F200003460AE0FB68DB68002B02D0FB68DB6825
:102F300000E0054BFA68D360002318461037BD4601
:102F400080BD00BF0CDC00081CDC000880B596B01A
:102F500000AFF8600B467A60FB727B689B7D03F0E4
:102F60003003302B00F0C280302B00F21A81202B6E
:102F70001FD0202B00F21581002B02D0102B08D07F
:102F80000FE1FB7A7A681946F868FFF7E9FE034615
:102F900012E17B681B6A002B03D07B681B6A01224D
:102FA0001A70FB7A7A681946F868FFF7D9FE03466B
:102FB00002E1FB7A022B6CD17B689B7D03F00F034F
:102FC000052B66D8012387F857307B681B6A3B6561
:102FD0007B689B697A68528A11463A6D128801FBB8
:102FE00002F21A447B68DA6107F13C031946F8687B
:102FF000FFF756FE034683F00103DBB2002B1FD020
:103000000023D9E007F13C037A68FF211846FFF757
:10301000A7FE034683F00103DBB2002B03D000239D
:1030200087F8573015E03B6D1B8801339AB23B6D32
:103030001A807B68DB697A68528A1A447B68DA6195
:103040007B6C002B05D03B6D1A887B689B8A9A426B
:10305000D8D37B6C002B0BD0FB68DB68002B02D035
:10306000FB68DB6800E0564BFA68D3600023A3E0FE
:1030700007F13C031946F868FFF74CFE034683F05E
:103080000103DBB2002B01D0002395E097F8573005
:1030900092E07B681B6AFB647B689B697A68528A52
:1030A0001146FA6C128801FB02F21A447B68DA615D
:1030B000FB6C1B885A1C91B2FA6C11807A68928A58
:1030C00093420BD3FB68DB68002B02D0FB68DB6804
:1030D00000E03B4BFA68D36000236DE0FB7A7A682E
:1030E0001946F868FFF73CFE034665E07B689B7D68
:1030F00003F00F03082B05D07B689B7D03F00F03C3
:10310000092B41D17B681B6A1A887B681B8A9A420B
:103110003AD07B68D8697B685B8A1A46002108F040
:1031200028FC7B685B6A9B68002B0AD17B685B6A22
:10313000DB68002B05D17B685B6A5B681B68002B32
:1031400022D07B68596A7B68DA6907F11403184654
:10315000FFF734F90346002B16D007F11403184685
:1031600000F04DFA034683F00103DBB2002B0BD0D5
:10317000FB68DB68002B02D0FB68DB6800E0114BCA
:10318000FA68D360002317E07B681B6A7A68128AAA
:103190001A80FB7A7A681946F868FFF7E1FD034662
:1031A0000AE0FB68DB68002B02D0FB68DB6800E00C
:1031B000054BFA68D360002318465837BD4680BDDA
:1031C00030DC000840DC00081CDC000880B485B05E
:1031D00000AFF8600B467A60FB72FB68DB68002B7F
:1031E00002D0FB68DB6800E0044BFA68D360002380
:1031F00018461437BD465DF8047B704758DC00085C
:1032000090B597B000AFF8610B467A61FB767B69A9
:103210001B68DB68002B06D1FB7E1946F869FFF7B7
:1032200091FC034670E0FB7E022B45D107F144037D
:103230001946F869FFF734FD034683F00103DBB25A
:10324000002B01D000235FE0FB6C7B657B691B6872
:10325000DB6807F144007A6900219847034683F050
:103260000103DBB2002B10D0FB69DB68002B02D01E
:10327000FB69DB6805E03B6D002B01D03B6D00E096
:10328000234BFA69D36000233EE0FB6C002B03D094
:10329000FB6C7A6D9A42D7D807F144031946F86956
:1032A000FFF738FD034683F00103DBB2002B01D0AA
:1032B000002329E0012327E00A237B6207F124038E
:1032C00007F12802F97EF869FFF77EFC034683F0D8
:1032D0000103DBB2002B01D0002315E07A6A3B46E4
:1032E00007F128011846FFF787FA07F134043B4637
:1032F0000FCB84E80F007B691B68DB6807F13400A3
:103300007A6900219847034618465C37BD4690BD50
:103310006CDC000880B584B000AFF8600B467A60C2
:10332000FB727B689B7D03F0C003802B0ED0802B4B
:103330001CD8002B02D0402B10D017E0FB7A7A6803
:103340001946F868FFF702FE03461AE0FB7A7A682E
:103350001946F868FFF73AFF034612E0FB7A7A68ED
:103360001946F868FFF74CFF03460AE0FB68DB6884
:10337000002B02D0FB68DB6800E0044BFA68D360E6
:10338000002318461037BD4680BD00BF1CDC000876
:1033900080B58EB000AFF860B9607A60FB7007F15D
:1033A0001003B9681846FFF722F8034683F00103BB
:1033B000DBB2002B0BD0FB68DB68002B02D0FB6874
:1033C000DB6800E00E4BFA68D360002314E03B8C0E
:1033D0001A467B68934202D17B69002B01D10123FD
:1033E0000AE0BB6801221A7307F11002FB78194644
:1033F000F868FFF78FFF034618463837BD4680BD93
:103400007CDC000890B587B000AFF860B9603B6025
:103410001346FB71FB689B683B6122E03B681B68BD
:103420001B68002B0AD03B681B681C68FB79BA68D4
:103430003968F868A0470346FB7507E0FB79BA686E
:103440003968F868FFF7A4FF0346FB75FB7D83F03E
:103450000103DBB2002B01D000230BE03B689B682B
:103460003B603B68002B04D0FB689B683A699A423A
:10347000D4D0012318461C37BD4690BD80B58EB010
:1034800000AF78607B689B7D87F8323097F83230E8
:1034900003F00F030A2B24D17B68DB691B687B6375
:1034A0001BE007F10803796B1846FEF7A0FF0346FF
:1034B000002B0FD07B6B00221A7307F1080318460C
:1034C00000F09DF8034683F00103DBB2002B01D02E
:1034D000002390E07B6B9B687B637B6B002BE0D1D0
:1034E00088E097F8323003F0C003002B66D1012347
:1034F00087F8333097F8323003F03003102B08D1BF
:103500007B681B6A002B04D07B681B6A00221A7040
:1035100012E097F8323003F03003202B05D097F8F3
:10352000323003F03003302B06D17B681B6A002257
:103530001A80002387F8333097F83330002B59D0A6
:103540007B689B7D03F00F03082B05D07B689B7D78
:1035500003F00F03092B28D17B685B6A9B68002B63
:103560000AD17B685B6ADB68002B05D17B685B6AEC
:103570005B681B68002B18D07B68596A7B68DA6926
:1035800007F108031846FEF719FF0346002B30D059
:1035900007F10803184600F032F8034683F00103F0
:1035A000DBB2002B25D0002325E07B68D8697B683F
:1035B0005B8A1A46002108F0DCF91BE097F83230EC
:1035C00003F0C003802B15D17B689B6900221A6031
:1035D00097F8323003F03003202B05D097F83230C3
:1035E00003F03003302B05D17B681B6A00221A8060
:1035F00000E000BF012318463837BD4680BD90B5B6
:103600008DB000AF786107F1200300221A605A6084
:103610009A60DA600023FB610023FB767B691B68FC
:103620009B68002B20D07B691B6899683B464FF054
:10363000FF321846FFF7E0F807F120043B460FCBB6
:1036400084E80F0007F11A0307F11C0207F11B01C0
:1036500007F12000FFF747FA034683F00103DBB2CE
:10366000002B01D0002343E07869FFF707FF0346F2
:1036700083F00103DBB2002B01D0002338E0FB69AB
:10368000002B2ED07B691B8A1A46FB699A4228D1EF
:10369000F97E07F120037A691846FFF73BFE0346DF
:1036A00083F00103DBB2002B01D0002320E007F1FF
:1036B0001A0307F11C0207F11B0107F12000FFF7B5
:1036C00012FA034683F00103DBB2002B01D0002382
:1036D0000EE07B691B6A002B03D07B691B6A00220A
:1036E0001A707869FEF7B3FE0346002BBCD10123A4
:1036F00018463437BD4690BD80B59AB000AFF8602B
:10370000B9607A603B6000237B6600233B664FF61E
:10371000FF73A7F85E300023A7F84A300023A7F80C
:103720005C3000233B6400237B644FF0FF337B65F8
:1037300007F118037A68B9681846FEF73FFE03469A
:10374000002B00F002813B6803F00103002B40F0E6
:10375000FC8007F118031846FFF751FF034683F07A
:103760000103DBB2002B00F0F080FB68DB68002B6C
:1037700002D0FB68DB6800E0994BFA68D360002355
:103780006DE107F1120307F1140207F11301F86864
:10379000FFF7A9F9034683F00103DBB2002B05D044
:1037A000BB7C002B40F0D780002358E17B69002BC5
:1037B00011D13B6803F00403002B40F0CE80FB687E
:1037C000DB68002B02D0FB68DB6800E0854BFA6801
:1037D000D360002343E17A6907F1180311461846C4
:1037E000FEF74AFE034683F00103DBB2002B05D14E
:1037F00097F82E3003F00F030A2B3CD17B6E002B81
:1038000012D107F118031846FEF78CFE0346002B71
:1038100004D07B6B1B683B663B8D7B663B6E002B4D
:1038200002D14FF0FF337B667B697A6E9A4215D8DE
:10383000FB689B68FB647969FA7C3B6EF868FFF76C
:10384000E1FD034683F00103DBB2002B01D000232E
:1038500005E1FB689B68FA6C9A4273D1FB7C1946C0
:10386000F868FFF76FF9034683F00103DBB2002B22
:103870006AD00023F3E097F82E3003F03003202BBA
:103880002ED1BA6B07F1180314339A4228D13B8C1E
:10389000B7F85E209A4220D0B7F85E304FF6FF723C
:1038A000934211D0B7F84A30B7F85C209A420BD057
:1038B000FB68DB68002B02D0FB68DB6800E04A4B4A
:1038C000FA68D3600023CAE03B8CA7F85E3000237F
:1038D000A7F84A30BB8DA7F85C3007F14A03BB63F9
:1038E00097F82E3003F03003002B1CD1BB8C3F2BFC
:1038F00019D8BB8C03F01F03012202FA03F33B65C6
:10390000BB8C5B099BB29B0068333B4453F8282C6B
:10391000BB8C5B099BB219463B6D1A438B00683325
:103920003B4443F8282CFB7C07F118021946F86841
:10393000FFF7F0FC034683F00103DBB2002B04D059
:1039400000238CE000BF00E000BFFB689B68002BF9
:103950007FF417AF02E000BF00E000BFB7F85E30B1
:103960004FF6FF72934211D0B7F84A30B7F85C2097
:103970009A420BD0FB68DB68002B02D0FB68DB6847
:1039800000E0194BFA68D360002368E0BB695B8AEA
:10399000A7F85A30B7F85A30002B5FD0B7F85A3032
:1039A000402B02D94023A7F85A300023A7F85830FB
:1039B00023E0B7F858309B0068333B4453F8283C69
:1039C0007A6D9A4214D0FB68DB68002B02D0FB684A
:1039D000DB6800E0054BFA68D36000233FE000BFDE
:1039E00040DC000890DC00089CDC0008C0DC00081B
:1039F000B7F858300133A7F85830B7F85A305B0998
:103A00009BB2B7F858209A42D3D3B7F85A3003F094
:103A10001F03002B22D0B7F85A305B099BB29B00E2
:103A200068333B4453F8282CB7F85A30DBB203F024
:103A30001F03DBB2C3F12003DBB219467B6DCB4021
:103A40009A420BD0FB68DB68002B02D0FB68DB6876
:103A500000E0054BFA68D360002300E0012318461C
:103A60006837BD4680BD00BFC0DC000880B586B0A9
:103A700000AFF860B9607A6000237A68B968F868C6
:103A8000FFF73AFE0346FB75FB7D18461837BD4627
:103A900080BD80B584B000AF7860396007F10C0359
:103AA00019467868FEF770FF034683F00103DBB226
:103AB000002B01D0002308E0FB68002B14BF01237A
:103AC0000023DAB23B681A70012318461037BD464E
:103AD00080BD2DE9B04384B000AF7860396007F154
:103AE000080319467868FEF75FFF034683F0010379
:103AF000DBB2002B01D0002329E0D7E9022302F03A
:103B00000104002554EA050313D0D7E902014FF060
:103B100000024FF00003420842EAC1724B086FEA0C
:103B200002086FEA030942464B463968C1E900239F
:103B30000CE0D7E902014FF000024FF00003420809
:103B400042EAC1724B083968C1E9002301231846D3
:103B50001037BD46BDE8B08380B584B000AF786053
:103B6000396007F10C03042219467868FEF792FDCC
:103B7000034683F00103DBB2002B01D0002303E0F6
:103B8000FA683B681A60012318461037BD4680BDAD
:103B900080B584B000AF7860396007F1080308226F
:103BA00019467868FEF776FD034683F00103DBB221
:103BB000002B01D0002305E0D7E902233968C1E9D1
:103BC0000023012318461037BD4680BD80B582B062
:103BD00000AF786039603B68DB6919467868FFF7A9
:103BE00058FF034618460837BD4680BD2DE9B04F43
:103BF00094B000AF786239623B6A9B7D03F00F039B
:103C0000022B79D107F138031946786AFEF7CCFE0A
:103C1000034683F00103DBB2002B01D0002307E150
:103C20003B6A5B8A082B0AD13B6AD969D7E90E2324
:103C3000C1E90023D1E90023C7E9122346E03B6A2A
:103C40005B8A042B0ED1D7E90E013B6ADB69024681
:103C50001A601B6800223B617A61D7E90434C7E926
:103C6000123433E03B6A5B8A022B0FD1D7E90E0195
:103C70003B6ADB6982B21A801B889BB20022BB6060
:103C8000FA60D7E90234C7E912341FE03B6A5B8A65
:103C9000012B0FD1D7E90E013B6ADB69C2B21A7062
:103CA0001B78DBB200223B607A60D7E90034C7E9B9
:103CB00012340BE07B6ADB68002B02D07B6ADB6886
:103CC00000E05E4B7A6AD3600023B1E0D7E90E23AF
:103CD000D7E91201994208BF90420BD07B6ADB689A
:103CE000002B02D07B6ADB6800E0554B7A6AD36018
:103CF00000239DE001239BE03B6A9B7D03F00F03C3
:103D0000032B0DD107F128031946786AFFF7E1FE6E
:103D1000034683F00103DBB2002B22D0002387E0AF
:103D200007F130031946786AFEF73EFE034683F03A
:103D30000103DBB2002B01D0002379E03B6A5B8AF0
:103D4000082B04D1D7E90C23C7E90A2309E0D7E9F6
:103D50000C231346DA17BB61FA61D7E90623C7E9DA
:103D60000A233B6A5B8A082B0AD13B6AD969D7E9E7
:103D70000A23C1E90023D1E90023C7E9102342E067
:103D80003B6A5B8A042B0CD1D7E90A013B6ADB69E9
:103D900002461A601B68DA179A469346C7E910ABC9
:103DA00031E03B6A5B8A022B0ED1D7E90A013B6AFC
:103DB000DB6902B21A80B3F900301BB2DA179846F9
:103DC0009146C7E910891EE03B6A5B8A012B0ED140
:103DD000D7E90A013B6ADB6942B21A7093F90030F5
:103DE0005BB2DA171C461546C7E910450BE07B6A43
:103DF000DB68002B02D07B6ADB6800E00F4B7A6A3D
:103E0000D360002314E0D7E90A23D7E910019942CF
:103E100008BF90420BD07B6ADB68002B02D07B6A24
:103E2000DB6800E0064B7A6AD360002300E00123E0
:103E300018465037BD46BDE8B08F00BFD8DC00083B
:103E4000ECDC000880B586B000AF7860396007F11F
:103E50000C0319467868FEF797FD034683F00103CB
:103E6000DBB2002B01D0002355E0FB68B3F5803FA7
:103E70000BD37B68DB68002B02D07B68DB6800E03B
:103E8000274B7A68D360002345E0FB6802337B61EF
:103E9000FB687A699A420BD27B68DB68002B02D000
:103EA0007B68DB6800E01F4B7A68D360002332E058
:103EB0003B689B7D03F0C003802B0BD17B68DB68E4
:103EC000002B02D07B68DB6800E0174B7A68D36078
:103ED000002320E03B685B8A1A467B6993420BD93A
:103EE0007B68DB68002B02D07B68DB6800E00C4B52
:103EF0007A68D36000230EE03B68DB693B61FB68B6
:103F00009AB23B691A803B690233FA6819467868AD
:103F1000FEF7C0FB034618461837BD4680BD00BFFC
:103F200000DD000810DD000858DC000880B586B010
:103F300000AF786039603B68DB697B6107F10C0397
:103F400019467868FEF720FD034683F00103DBB2D3
:103F5000002B01D000235AE0FB68B3F1FF3F0BD1E7
:103F60007B68DB68002B02D07B68DB6800E02A4BB3
:103F70007A68D36000234AE0FB6801333B61FB6849
:103F80003A699A420BD27B68DB68002B02D07B68CF
:103F9000DB6800E0204B7A68D360002337E03B68A1
:103FA0009B7D03F0C003802B0BD17B68DB68002B6B
:103FB00002D07B68DB6800E0184B7A68D36000238E
:103FC00025E03B685B8A1A463B6993420BD97B68C4
:103FD000DB68002B02D07B68DB6800E0104B7A685E
:103FE000D360002313E0FB687A69134400221A703F
:103FF000FB681A4679697868FEF74CFB034683F044
:104000000103DBB2002B01D0002300E0012318469E
:104010001837BD4680BD00BF10DD000858DC000821
:1040200020DD000880B58AB000AF786039600123D8
:1040300087F82730002387F8263007F10C0319464C
:104040007868FEF72DFE034683F00103DBB2002BF8
:1040500001D0002369E03B685B6A002B0BD17B68D1
:10406000DB68002B02D07B68DB6800E0314B7A68AC
:10407000D360002359E03B689B7D03F00F03092BBD
:104080001CD13B681B6A002B18D03B681B6A083B9D
:10409000FB61FB691B68002B10D0FB691B68FA6988
:1040A000043207F10C0039689847034687F8273037
:1040B0007B69002B02D1012387F8263097F827303F
:1040C000002B22D097F8263083F00103DBB2002BBF
:1040D0001BD000233B623B689B7D03F0C003002B99
:1040E00007D13B689B7D03F03003202B01D00123D7
:1040F0003B623B68596A3B68DA6907F10C003B6A2E
:10410000FFF7FAFA034687F8273007F10C03194640
:104110007868FEF7FFFD034683F00103DBB2002B56
:1041200001D0002301E097F8273018462837BD4614
:1041300080BD00BF30DD000880B584B000AF78607E
:10414000396007F10C0319467868FEF71DFC034639
:1041500083F00103DBB2002B01D0002337E0FB68C2
:10416000B3F5803F0BD37B68DB68002B02D07B6804
:10417000DB6800E0184B7A68D360002327E0FB6817
:10418000002B09D13B68D8693B685B8A1A4600213D
:1041900007F0EFFB01231AE03B685B8A1A46FB68D5
:1041A0009A420BD07B68DB68002B02D07B68DB680F
:1041B00000E00A4B7A68D360002308E03B68D969C5
:1041C0003B685B8A1A467868FEF764FA034618462D
:1041D0001037BD4680BD00BF00DD00084CDD000883
:1041E00080B586B000AFF860B9607A60FB685B6844
:1041F0007B617A697B681A44FB685A607A68B9689F
:10420000786907F036FC012318461837BD4680BD93
:10421000B0B48BB000AFF860B9607A600B4B7B61D3
:10422000BB68BB617B68FB6100233B6200237B6250
:10423000FB681D4607F114040FCC0FC523682B60E3
:10424000F8682C37BD46B0BC704700BFE14100089C
:1042500080B584B000AFF860B9607A607B68002BED
:1042600037D0FB681B68002B33D0FB68DA687B68AB
:104270001A44FB68DB689A4207D3FB68DA687B68FC
:104280001A44FB689B689A420BD9FB681B69002B98
:1042900002D0FB681B6900E0134BFA68136100232E
:1042A0001EE0FB681B687A68B968F868984703469F
:1042B00083F00103DBB2002B0BD0FB681B69002BE2
:1042C00002D0FB681B6900E0084BFA681361002309
:1042D00006E0FB68DA687B681A44FB68DA60012351
:1042E00018461037BD4680BD70DD00087CDD000833
:1042F00080B485B000AF78607B68BB600023FB6052
:104300000AE0BA68FB6813441B78002B01D0012334
:1043100006E0FB680133FB60FB68002BF1D0002353
:1043200018461437BD465DF8047B7047B0B58CB0B5
:1043300000AF786039603B681B6A1B88BB84BB8C0C
:10434000002B01D101233DE13B689B7D03F0C003BD
:10435000802B10D03B689B8ABA8C9A420BD97B6821
:104360001B69002B02D07B681B6900E0974B7A68C1
:104370001361002326E13B689B7D03F00F03052BAF
:1043800000F2B3803B681B8A1A460221786800F06D
:10439000DDFC034683F00103DBB2002B01D00023D8
:1043A00010E13B689B7D03F00F03042B03D1BB8C12
:1043B0009B00BB6247E03B689B7D03F00F03052B2E
:1043C00003D1BB8CDB00BB623DE007F10803002298
:1043D0001A605A609A60DA601A613B68DB69FB61B7
:1043E0000023FB8526E007F108033968184600F032
:1043F000EFFD034683F00103DBB2002B10D07B6896
:104400001B69002B02D07B681B6905E0BB69002B90
:1044100001D0BB6900E06E4B7A6813610023D1E0E4
:104420003B68DB693A68528A1A443B68DA61FB8D63
:104430000133FB85FA8DBB8C9A42D4D33B68FA6971
:10444000DA617B69BB62BB6A00221C4615462246C4
:104450002B46786800F0F7FB034683F00103DBB2DC
:10446000002B01D00023ADE07B681B68002B06D138
:10447000BA6A00217868FFF7EBFE0346A2E000234A
:10448000FB852DE03B689B7D03F00F03042B05D0DB
:104490003B689B7D03F00F03052B0BD139687868CF
:1044A00000F058FE034683F00103DBB2002B0DD071
:1044B000002387E03968786800F08AFD034683F0BE
:1044C0000103DBB2002B01D000237BE03B68DB69FA
:1044D0003A68528A1A443B68DA61FB8D0133FB85E6
:1044E000FA8DBB8C9A42CDD36BE00023FB8564E050
:1044F0003B689B7D03F0C003802B47D13B689B7DCD
:1045000003F00F03072B05D03B689B7D03F00F03DF
:10451000062B3BD13B68DB693B623B68DB691A6871
:104520003B68DA613B68DB69002B1CD1396878682D
:1045300000F036FC0346002B0BD04FF000024FF08A
:104540000003786800F07FFB0346002B01D00123B5
:1045500000E0002387F8273097F8273003F00103A5
:1045600087F8273006E03968786800F051F903468B
:1045700087F827303B683A6ADA6197F8273083F08A
:104580000103DBB2002B0DD000231BE039687868F3
:1045900000F03EF9034683F00103DBB2002B02D0AA
:1045A00000230FE000BF3B68DB693A68528A1A4477
:1045B0003B68DA61FB8D0133FB85FA8DBB8C9A4237
:1045C00096D3012318463037BD46B0BD88DD0008BC
:1045D000A0DD000880B592B000AF78607B689B7D5D
:1045E00087F8453097F8453003F0C003002B40F0C2
:1045F000C98097F8453003F03003002B01D1002328
:1046000000E197F8453003F03003202B08D17B6898
:104610001B6A1B88002B0CBF01230023DBB2F1E0D7
:1046200097F8453003F03003302B08D17B681B6AC4
:104630001B88002B0CBF01230023DBB2E2E097F8BC
:10464000453003F03003102B15D17B681B6A002B1B
:1046500011D07B681B6A1846FFF74AFE0346002B01
:1046600014BF01230023DBB283F00103DBB203F0AC
:104670000103DBB2C6E07B681B689B68002B01D09E
:104680000023BFE097F8453003F00F03052B1CD83B
:104690007B68DB697B630023A7F846300DE0B7F841
:1046A00046307A6B13441B78002B01D00023A9E01D
:1046B000B7F846300133A7F846307B685B8AB7F815
:1046C00046209A42EBD301239CE097F8453003F053
:1046D0000F03062B0AD17B68DB69BB63BB6B1B88AE
:1046E000002B0CBF01230023DBB28BE097F8453091
:1046F00003F00F03072B08D17B68DB691B78002BC5
:104700000CBF01230023DBB27CE097F8453003F0B7
:104710000F030B2B07D17B685B8A002B0CBF012397
:104720000023DBB26EE097F8453003F00F03082B4F
:1047300005D097F8453003F00F03092B61D17B6852
:10474000596A7B68DA6907F10C031846FDF736FEF3
:104750000346002B14D007F10C031846FFF73AFF6D
:10476000034683F00103DBB2002B01D0002349E0B4
:1047700007F10C031846FDF76AFE0346002BEAD149
:1047800001233FE097F8453003F0C003802B07D1A9
:104790007B68DB69002B0CBF01230023DBB231E017
:1047A00097F8453003F0C003402B2AD197F84530E5
:1047B00003F00F030A2B0AD17B68DB691B68FB63DC
:1047C000FB6B002B0CBF01230023DBB21AE07B68DC
:1047D0001B68DB680D4A93420AD17B68DB693B6446
:1047E0003B6C1B68002B0CBF01230023DBB209E0EC
:1047F0007B681B68DB68002B0CBF01230023DBB246
:1048000000E0002318464837BD4680BDF12500086A
:1048100080B582B000AF786039603B68DB69002BFF
:1048200001D1012361E03968786800F0B9FA0346E4
:1048300083F00103DBB2002B01D0002355E03B687D
:104840009B7D03F00F030B2B44D801A252F823F0F9
:10485000814800088D4800088D4800088D480008F0
:104860009948000899480008A5480008B148000880
:10487000BD480008BD480008D5480008C9480008E0
:104880003968786800F08AFB03462EE0396878685A
:1048900000F09EFB034628E03968786800F05AFC77
:1048A000034622E03968786800F082FC03461CE089
:1048B0003968786800F0BAFC034616E03968786811
:1048C00000F012FD034610E03968786800F052FDF0
:1048D00003460AE07B681B69002B02D07B681B69DA
:1048E00000E0044B7A681361002318460837BD4680
:1048F00080BD00BFA8DD000880B582B000AF786041
:1049000039603B681B68DB68002B18D03B681B686C
:10491000DB683A68796800209847034683F0010312
:10492000DBB2002B0BD07B681B69002B02D07B68AD
:104930001B6900E0044B7A681361002300E0012347
:1049400018460837BD4680BDBCDD000880B582B082
:1049500000AF786039603B689B7D03F03003302BFB
:1049600008D13B681B6A1A883B681B8A9A4226D08A
:10497000012359E03B689B7D03F03003102B1ED1CF
:104980003B681B6A002B0CD03B681B6A1846FFF77C
:10499000AFFC034683F00103DBB2002B0FD00123F1
:1049A00042E03B689B7D03F0C003002B07D13868D1
:1049B000FFF710FE0346002B01D0012334E03B68D3
:1049C000DB69002B13D13B689B7D03F03003002B88
:1049D0000BD17B681B69002B02D07B681B6900E050
:1049E000134B7A68136100231EE001231CE03B682F
:1049F0009B7D03F0C003402B05D139687868FFF731
:104A00007BFF034610E03B689B7D03F03003202BC7
:104A100005D139687868FFF789FC034604E03968F6
:104A20007868FFF7F5FE034618460837BD4680BD97
:104A3000CCDD000880B58CB000AF7860396007F13C
:104A4000080339681846FDF7C1FD034683F00103EA
:104A5000DBB2002B0BD07B681B69002B02D07B687C
:104A60001B6900E0074B7A681361002306E007F139
:104A7000080319467868FFF769FF03461846303780
:104A8000BD4680BDE4DD000880B584B000AF78602D
:104A900039603B68DB691B68FB601EE0FB681B68D4
:104AA0005B68002B08D0FB681B685B68F968786856
:104AB00098470346FB7205E0F9687868FFF7BAFF8C
:104AC0000346FB72FB7A83F00103DBB2002B01D0BB
:104AD000002306E0FB689B68FB60FB68002BDDD1D0
:104AE000012318461037BD4680BD80B58EB000AF9B
:104AF000F860B9607A6007F110037A68B9681846FF
:104B0000FDF750FD034683F00103DBB2002B01D01B
:104B100001232AE097F8263003F00F030A2B0DD16A
:104B200007F110031946F868FFF7AEFF034683F05C
:104B30000103DBB2002B0FD0002316E007F11003B6
:104B40001946F868FFF702FF034683F00103DBB262
:104B5000002B01D0002308E007F110031846FDF7F1
:104B600076FC0346002BD5D1012318463837BD46C5
:104B700080BD80B588B000AFF860B9607A6000236E
:104B8000FB61BB68DBB203F07F03FB76BB68DB092C
:104B9000BB6013E0FB7E63F07F03FB76FB695A1C6E
:104BA000FA6120333B44FA7E03F8102CBB68DBB279
:104BB00003F07F03FB76BB68DB09BB60FB69032B5B
:104BC00005D8BB68002BE5D17B68002BE2D17B6860
:104BD000002B24D07B68DBB21B01DBB203F0700337
:104BE000DAB2FB7E1343FB767B68DB087B6013E065
:104BF000FB7E63F07F03FB76FB695A1CFA6120336E
:104C00003B44FA7E03F8102C7B68DBB203F07F0391
:104C1000FB767B68DB097B607B68002BE8D1FB6956
:104C20005A1CFA6120333B44FA7E03F8102C07F13A
:104C30001003FA691946F868FFF70AFB034618469D
:104C40002037BD4680BD90B587B000AFF860C7E99A
:104C50000023D7E90023802A73F100030AD23B78AE
:104C6000FB7507F1170301221946F868FFF7F0FA00
:104C700003460FE03C68D7E900014FF000024FF017
:104C800000030A00002313461A462146F868FFF77E
:104C900070FF034618461C37BD4690BD2DE9B04F46
:104CA0008AB000AF7861C7E902234FF0FF326FF09E
:104CB0000043C7E90623D7E90223002B15DAD7E919
:104CC0000201D7E9062300EA020401EA03052319D9
:104CD0003B6045EB05037B60D7E900236FEA020ADE
:104CE0006FEA030BC7E908AB07E0D7E9022312EB31
:104CF000020843EB0309C7E90889D7E90823786963
:104D0000FFF7A1FF034618462837BD46BDE8B08F20
:104D100080B582B000AF7860396004223968786865
:104D2000FFF796FA034618460837BD4680BD80B5A2
:104D300082B000AF78603960082239687868FFF780
:104D400087FA034618460837BD4680BD2DE9B04FA7
:104D500088B000AF78610B46FA60FB74FB680022F4
:104D60009A4693464FEA5A754FEACA04FB7C0022E2
:104D70009846914644EA08033B6045EA09037B6094
:104D8000D7E90034C7E90634D7E906237869FFF785
:104D90005AFF034618462037BD46BDE8B08F0000D5
:104DA00080B584B000AF786039603B689B7D03F0CC
:104DB0000F030B2B26D801A252F823F0ED4D00086B
:104DC000ED4D0008ED4D0008ED4D0008F34D0008D5
:104DD000F94D0008FF4D0008FF4D0008FF4D000889
:104DE000FF4D0008054E0008FF4D00080023FB732F
:104DF00014E00523FB7311E00123FB730EE0022393
:104E0000FB730BE07B681B69002B02D07B681B697E
:104E100000E0094B7A681361002308E03B681B8AB5
:104E20001A46FB7B19467868FFF790FF0346184641
:104E30001037BD4680BD00BFA8DD0008B0B584B006
:104E400000AFF860B9607A607B6800221C461546A6
:104E500022462B46F868FFF7F6FE034683F001036F
:104E6000DBB2002B01D0002305E07A68B968F8684E
:104E7000FFF7EEF9034618461037BD46B0BD0000F7
:104E8000B0B58CB000AFF860B9607A6007F1140378
:104E900000221A605A609A60DA601A6107F11403FE
:104EA0007A68B9681846FFF720FE034683F00103CD
:104EB000DBB2002B04D07A6AFB681A61002365E03C
:104EC0003B6AFB62FB6A00221C46154622462B46C3
:104ED000F868FFF7B8FE034683F00103DBB2002B4E
:104EE00001D0002352E0FB681B68002B06D1FA6A50
:104EF0000021F868FFF7ACF9034647E0FB68DA6881
:104F0000FB6A1A44FB689B689A420BD9FB681B69D1
:104F1000002B02D0FB681B6900E01E4BFA6813618E
:104F2000002333E0FB681B687B61FB685B68BB6147
:104F3000FB6AFB6100233B6200237B6207F11403E1
:104F40007A68B9681846FFF7D0FD034687F82B301A
:104F5000FB68DA683B6A1A44FB68DA60BA69FB6886
:104F60005A607A6AFB681A613B6AFA6A9A420BD005
:104F7000FB681B69002B02D0FB681B6900E0064B35
:104F8000FA681361002301E097F82B301846303798
:104F9000BD46B0BD70DD0008F8DD0008B0B584B0D6
:104FA00000AF786039603B68DB691846FFF7A0F90D
:104FB0000346FB60FB6800221C46154622462B4632
:104FC0007868FFF740FE034618461037BD46B0BD6F
:104FD0002DE9B04F8CB000AFF861B961BB699B7D22
:104FE00003F00F03022B52D14FF000024FF00003E9
:104FF000C7E90A23BB695B8A012B0BD1BB69DB695B
:105000001B78DBB200223B617A61D7E90434C7E93F
:105010000A3435E0BB695B8A022B0BD1BB69DB69C3
:105020001B889BB20022BB60FA60D7E90234C7E953
:105030000A3425E0BB695B8A042B0AD1BB69DB69B2
:105040001B6800223B607A60D7E90034C7E90A3464
:1050500016E0BB695B8A082B06D1BB69DB69D3E923
:105060000023C7E90A230BE0FB691B69002B02D070
:10507000FB691B6900E0364BFA691361002361E0AC
:10508000D7E90A23F869FFF7DEFD03465AE04FF03F
:1050900000024FF00003C7E90823BB695B8A012BBC
:1050A0000AD1BB69DB6993F900305BB2DA179A4623
:1050B0009346C7E908AB32E0BB695B8A022B0AD191
:1050C000BB69DB69B3F900301BB2DA179846914629
:1050D000C7E9088923E0BB695B8A042B08D1BB6957
:1050E000DB691B68DA171C461546C7E9084516E058
:1050F000BB695B8A082B06D1BB69DB69D3E9002356
:10510000C7E908230BE0FB691B69002B02D0FB6990
:105110001B6900E00E4BFA691361002312E0BB69C2
:105120009B7D03F00F03032B06D1D7E90823F86911
:10513000FFF7B4FD034605E0D7E90823F869FFF758
:1051400082FD034618463037BD46BDE8B08F00BF2C
:105150000CDE000880B582B000AF786039603B6833
:105160005B8A042B07D13B68DB6919467868FFF737
:10517000CFFD034616E03B685B8A082B07D13B68EE
:10518000DB6919467868FFF7D2FD03460AE07B68C1
:105190001B69002B02D07B681B6900E0034B7A6817
:1051A0001361002318460837BD4680BD0CDE000899
:1051B00080B584B000AF786039600023FB603B6845
:1051C000DB69FB60FB68002B06D1002200217868B8
:1051D000FFF734FE034622E03B689B7D03F0C003EB
:1051E000002B13D1FB681B881A463B685B8A023B85
:1051F0009A420BD97B681B69002B02D07B681B6924
:1052000000E0094B7A681361002308E0FB68991CF1
:10521000FB681B881A467868FFF710FE034618469D
:105220001037BD4680BD00BF20DE000880B586B0C7
:1052300000AF7860396000237B613B685B8A3B612B
:105240003B68DB69BB603B689B7D03F0C003802B40
:1052500003D14FF0FF333B6111E03B69002B0BD1D1
:105260007B681B69002B02D07B681B6900E01C4B2C
:105270007A68136100232FE03B69013B3B61BB6807
:10528000002B02D100237B6120E0BB68FB6005E0BE
:105290007B6901337B61FB680133FB607A693B69A1
:1052A0009A4203D2FB681B78002BF1D1FB681B7874
:1052B000002B0BD07B681B69002B02D07B681B691D
:1052C00000E0084B7A681361002305E07A69B96849
:1052D0007868FFF7B3FD034618461837BD4680BD12
:1052E00034DE000848DE000880B584B000AF786086
:1052F00039603B685B6A002B0BD17B681B69002B14
:1053000002D07B681B6900E0194B7A6813610023A7
:1053100029E03B689B7D03F00F03092B1AD13B6802
:105320001B6A002B16D03B681B6A083BFB60FB68BE
:105330001B68002B0ED0FB681B68FA6804323968C2
:1053400078689847034683F00103DBB2002B01D055
:10535000002308E03B68596A3B68DB691A467868B5
:10536000FFF78EFD034618461037BD4680BD00BFCF
:105370005CDE000880B582B000AF786039603B68C1
:10538000D9693B685B8A1A467868FFF757FD034680
:1053900018460837BD4680BD80B500AF174B184A88
:1053A0001A60164B4FF482725A60144B00229A60B6
:1053B000124B0022DA60114B00221A610F4B0022BF
:1053C0005A610E4B4FF400729A610C4B0022DA6165
:1053D0000A4B00221A62094B00225A62074B002234
:1053E0009A62064B0A22DA62044803F089FD0346FA
:1053F000002B01D0FCF712FE00BF80BDA4030020EB
:105400000030014080B58AB000AF786007F1140326
:1054100000221A605A609A60DA601A617B681B6821
:10542000194A93422BD100233B61184B5B6C174AFE
:1054300043F480535364154B5B6C03F480533B611E
:105440003B690023FB60114B1B6B104A43F00203C6
:1054500013630E4B1B6B03F00203FB60FB683823E6
:105460007B610223BB610023FB6103233B620523B5
:105470007B6207F114031946054801F0E1F800BF0B
:105480002837BD4680BD00BF0030014000380240D3
:105490000004024080B483B000AF00237B60104B57
:1054A0005B6C0F4A43F4804353640D4B5B6C03F415
:1054B00080437B607B6800233B60094B1B6C084A80
:1054C00043F080531364064B1B6C03F080533B6026
:1054D0003B6800BF0C37BD465DF8047B704700BFDA
:1054E0000038024080B400AF00BFFDE780B400AFD9
:1054F00000BFFDE780B400AF00BFFDE780B400AFA0
:1055000000BFFDE780B400AF00BFFDE780B400AF8F
:1055100000BFBD465DF8047B704780B400AF00BF9C
:10552000BD465DF8047B704780B400AF00BFBD4648
:105530005DF8047B704780B500AF00F01BFB00BF37
:1055400080BD000080B500AF024803F0F9FD00BF48
:1055500080BD00BF0004002080B500AF024801F00C
:105560007EFB00BF80BD00BF4803002080B500AFB8
:10557000024801F0E5FC00BF80BD00BF48030020E9
:1055800080B500AF024804F095FA00BF80BD00BFAF
:105590004804002080B500AF024800F0D9FD00BFEC
:1055A00080BD00BFD804002080B500AF024804F0E1
:1055B00081FA00BF80BD00BF9004002080B400AF1E
:1055C00001231846BD465DF8047B704780B582B064
:1055D00000AF7860396006F01FFA034616221A60A1
:1055E0004FF0FF3318460837BD4680BD80B582B006
:1055F00000AF78604FF0FF317868FFF7E7FF00BF3A
:10560000FDE780B586B000AFF860B9607A6000232E
:105610007B610AE0AFF300800146BB685A1CBA60A8
:10562000CAB21A707B6901337B617A697B689A42DE
:10563000F0DB7B6818461837BD4680BD80B586B064
:1056400000AFF860B9607A6000237B6109E0BB6855
:105650005A1CBA601B781846AFF300807B6901338F
:105660007B617A697B689A42F1DB7B681846183760
:10567000BD4680BD80B483B000AF78604FF0FF338B
:1056800018460C37BD465DF8047B704780B483B084
:1056900000AF786039603B684FF400525A600023D5
:1056A00018460C37BD465DF8047B704780B483B064
:1056B00000AF7860012318460C37BD465DF8047BC7
:1056C000704780B485B000AFF860B9607A6000239D
:1056D00018461437BD465DF8047B704780B586B028
:1056E00000AF7860144A154BD31A7B617B693B612C
:1056F000134B1B68002B02D1114B124A1A60104B3E
:105700001A687B6813443A699A4207D206F084F912
:1057100003460C221A604FF0FF3309E0084B1B6868
:10572000FB60074B1A687B681344054A1360FB68EB
:1057300018461837BD4680BD000002200004000056
:10574000FC0300208806002080B400AF064BD3F88D
:105750008830054A43F47003C2F8883000BFBD4664
:105760005DF8047B704700BF00ED00E080B586B0B7
:1057700000AF07F1080300221A605A609A60DA60ED
:105780003B4600221A605A601E4B4FF080421A605E
:105790001C4B40F247325A601A4B00229A60194B58
:1057A0004FF0FF32DA60174B00221A61154B0022CE
:1057B0009A61144803F075FC0346002B01D0FCF7F6
:1057C0002DFC4FF48053BB6007F1080319460D48C8
:1057D00003F0A6FD0346002B01D0FCF71FFC0023BD
:1057E0003B6000237B603B461946064803F0D2FF2E
:1057F0000346002B01D0FCF711FC00BF1837BD4653
:1058000080BD00BF0004002080B584B000AF786088
:105810007B681B68B3F1804F15D10023FB600C4BF4
:105820001B6C0B4A43F001031364094B1B6C03F020
:105830000103FB60FB68002200211C2000F0B9FA84
:105840001C2000F0D2FA00BF1037BD4680BD00BF5B
:105850000038024080B500AF114B124A1A60104B5D
:105860004FF416525A600E4B00229A600C4B0022E5
:10587000DA600B4B00221A61094B0C225A61084B6B
:1058800000229A61064B0022DA61054804F012F802
:105890000346002B01D0FCF7C1FB00BF80BD00BF59
:1058A000480400200048004080B500AF114B124A68
:1058B0001A60104B4FF416525A600E4B00229A6039
:1058C0000C4B0022DA600B4B00221A61094B0C22B0
:1058D0005A61084B00229A61064B0022DA610548A2
:1058E00003F0E8FF0346002B01D0FCF797FB00BF55
:1058F00080BD00BF900400200014014080B58CB032
:1059000000AF786007F11C0300221A605A609A60A9
:10591000DA601A617B681B68524A934235D10023D2
:10592000BB61514B1B6C504A43F4802313644E4BB4
:105930001B6C03F48023BB61BB6900237B614A4B72
:105940001B6B494A43F004031363474B1B6B03F083
:1059500004037B617B694FF44063FB6102233B627C
:1059600000237B620323BB620723FB6207F11C0356
:1059700019463E4800F064FE00220021272000F076
:1059800018FA272000F031FA67E07B681B68384A74
:10599000934262D100233B61334B5B6C324A43F04C
:1059A00020035364304B5B6C03F020033B613B6985
:1059B0000023FB602C4B1B6B2B4A43F00403136347
:1059C000294B1B6B03F00403FB60FB68C023FB61E6
:1059D00002233B6200237B620323BB620823FB623A
:1059E00007F11C031946214800F02AFE214B224AE8
:1059F0001A60204B4FF020625A601E4B00229A60C2
:105A00001C4B0022DA601B4B4FF480621A61194B69
:105A100000225A61174B00229A61164B4FF4807294
:105A2000DA61144B00221A62124B00225A621148AA
:105A300000F0F6F90346002B01D0FCF7EFFA7B6883
:105A40000C4ADA630B4A7B689363002200214720EB
:105A500000F0AFF9472000F0C8F900BF3037BD466D
:105A600080BD00BF004800400038024000080240EE
:105A700000140140D804002028640240DFF834D02C
:105A8000FFF762FE0C480D490D4A002302E0D4588E
:105A9000C4500433C4188C42F9D30A4A0A4C002378
:105AA00001E013600432A242FBD305F0BBFFFCF718
:105AB00069F970470000022000000020D401002096
:105AC0003C160108D401002088060020FEE70000F3
:105AD00080B500AF0E4B1B680D4A43F40073136092
