:020000040800F2
:1000000000000220153B0008F93500080136000801
:1000100009360008113600081936000800000000F3
:100020000000000000000000000000002136000871
:100030002F360008000000003D3600084B3600084F
:10004000653B0008653B0008653B0008653B000810
:10005000653B0008653B0008653B0008653B000800
:10006000653B0008653B0008653B0008653B0008F0
:10007000653B0008653B0008653B0008653B0008E0
:10008000653B0008653B0008653B0008653B0008D0
:10009000653B0008653B0008653B0008653B0008C0
:1000A000653B0008653B0008653B0008653B0008B0
:1000B00059360008653B0008653B0008653B0008B1
:1000C000653B00086D36000881360008653B000876
:1000D000653B0008653B0008653B00089536000855
:1000E000653B0008653B0008653B0008653B000870
:1000F000653B0008653B0008653B0008653B000860
:10010000653B0008653B0008653B0008653B00084F
:10011000653B0008653B0008653B0008653B00083F
:10012000653B0008653B0008653B0008653B00082F
:10013000653B0008653B0008653B0008653B00081F
:10014000653B0008653B0008653B0008653B00080F
:10015000653B0008653B0008653B0008A9360008C0
:10016000653B0008653B0008653B0008653B0008EF
:10017000653B0008653B0008653B00080000000087
:08018000653B0008653B000827
:1001900010B5054C237833B9044B13B10448AFF3C1
:1001A00000800123237010BDD40100200000000056
:1001B000D4B0000808B5034B1BB103490348AFF3A3
:1001C000008008BD00000000D8010020D4B0000865
:1001D00001F0FF01102A2BDB10F0070F08D010F8F8
:1001E000013B013A8B422DD010F0070F42B3F6D1FC
:1001F000F0B441EA012141EA014122F007047FF015
:1002000000070023F0E80256083C85EA010586EA6B
:10021000010685FA47F5A3FA87F586FA47F6A5FAA7
:1002200087F68EB9EED1F0BC01F0FF0102F00702B3
:1002300032B110F8013B013A83EA010313B1F8D15E
:100240000020704701387047002D06BF354603383F
:10025000073815F0010F07D1013015F4807F02BF78
:10026000013015F4C03F0130F0BC0138704700BFC9
:10027000034613F8012B002AFBD1181A01387047E6
:1002800081F0004102E000BF83F0004330B54FEA47
:1002900041044FEA430594EA050F08BF90EA020FB4
:1002A0001FBF54EA000C55EA020C7FEA645C7FEA47
:1002B000655C00F0E2804FEA5454D4EB5555B8BF6A
:1002C0006D420CDD2C4480EA020281EA030382EADB
:1002D000000083EA010180EA020281EA0303362D6D
:1002E00088BF30BD11F0004F4FEA01314FF4801C40
:1002F0004CEA113102D0404261EB410113F0004F52
:100300004FEA03334CEA133302D0524263EB430308
:1003100094EA050F00F0A780A4F10104D5F1200EA6
:100320000DDB02FA0EFC22FA05F2801841F1000101
:1003300003FA0EF2801843FA05F359410EE0A5F1D5
:1003400020050EF1200E012A03FA0EFC28BF4CF006
:10035000020C43FA05F3C01851EBE37101F00045BC
:1003600007D54FF0000EDCF1000C7EEB00006EEBC9
:100370000101B1F5801F1BD3B1F5001F0CD3490853
:100380005FEA30004FEA3C0C04F101044FEA4452AA
:1003900012F5800F80F09A80BCF1004F08BF5FEA31
:1003A000500C50F1000041EB045141EA050130BD11
:1003B0005FEA4C0C404141EB0101013C28BFB1F523
:1003C000801FE9D291F0000F04BF01460020B1FA6E
:1003D00081F308BF2033A3F10B03B3F120020CDA41
:1003E0000C3208DD02F1140CC2F10C0201FA0CF01F
:1003F00021FA02F10CE002F11402D8BFC2F1200C84
:1004000001FA02F120FA0CFCDCBF41EA0C01904039
:10041000E41AA2BF01EB0451294330BD6FEA040482
:100420001F3C1CDA0C340EDC04F11404C4F120026D
:1004300020FA04F001FA02F340EA030021FA04F37F
:1004400045EA030130BDC4F10C04C4F1200220FAD6
:1004500002F001FA04F340EA0300294630BD21FA14
:1004600004F0294630BD94F0000F83F4801306BFDA
:1004700081F480110134013D4EE77FEA645C18BFCE
:100480007FEA655C29D094EA050F08BF90EA020F65
:1004900005D054EA000C04BF1946104630BD91EA5D
:1004A000030F1EBF0021002030BD5FEA545C05D160
:1004B0004000494128BF41F0004130BD14F580049F
:1004C0003CBF01F5801130BD01F0004545F0FE4113
:1004D00041F470014FF0000030BD7FEA645C1ABF48
:1004E000194610467FEA655C1CBF0B46024650EA7F
:1004F000013406BF52EA033591EA030F41F40021AB
:1005000030BD00BF90F0000F04BF0021704730B530
:100510004FF4806404F132044FF000054FF0000105
:1005200050E700BF90F0000F04BF0021704730B5C6
:100530004FF4806404F1320410F0004548BF40429B
:100540004FF000013EE700BF42004FEAE2014FEAF0
:1005500031014FEA02701FBF12F07F4393F07F4FCB
:1005600081F06051704732F07F4208BF704793F0CE
:100570007F4F04BF41F40021704730B54FF46074E1
:1005800001F0004521F000411CE700BF50EA0102E4
:1005900008BF704730B54FF000050AE050EA01028D
:1005A00008BF704730B511F0004502D5404261EBFD
:1005B00041014FF4806404F132045FEA915C3FF43E
:1005C000D8AE4FF003025FEADC0C18BF03325FEADB
:1005D000DC0C18BF033202EBDC02C2F1200300FA8C
:1005E00003FC20FA02F001FA03FE40EA0E0021FAB1
:1005F00002F11444BDE600BF70B54FF0FF0C4CF49F
:10060000E06C1CEA11541DBF1CEA135594EA0C0F50
:1006100095EA0C0F00F0DEF82C4481EA030621EA8B
:100620004C5123EA4C5350EA013518BF52EA0335C6
:1006300041F4801143F4801338D0A0FB02CE4FF078
:100640000005E1FB02E506F00042E0FB03E54FF0A8
:100650000006E1FB03569CF0000F18BF4EF0010EA0
:10066000A4F1FF04B6F5007F64F5407404D25FEA9C
:100670004E0E6D4146EB060642EAC62141EA55514F
:100680004FEAC52040EA5E504FEACE2EB4F1FD0C91
:1006900088BFBCF5E06F1ED8BEF1004F08BF5FEA0F
:1006A000500E50F1000041EB045170BD06F00046C1
:1006B00046EA010140EA020081EA0301B4EB5C046E
:1006C000C2BFD4EB0C0541EA045170BD41F4801166
:1006D0004FF0000E013C00F3AB8014F1360FDEBF8B
:1006E000002001F0004170BDC4F10004203C35DA67
:1006F0000C341BDC04F11404C4F1200500FA05F3EA
:1007000020FA04F001FA05F240EA020001F000428A
:1007100021F0004110EBD37021FA04F642EB060100
:100720005EEA430E08BF20EAD37070BDC4F10C042A
:10073000C4F1200500FA04F320FA05F001FA04F2EE
:1007400040EA020001F0004110EBD37041F10001DA
:100750005EEA430E08BF20EAD37070BDC4F12005E5
:1007600000FA05F24EEA020E20FA04F301FA05F24D
:1007700043EA020321FA04F001F0004121FA04F2F5
:1007800020EA020000EBD3705EEA430E08BF20EAC5
:10079000D37070BD94F0000F0FD101F000464000FF
:1007A00041EB010111F4801F08BF013CF7D041EA81
:1007B000060195F0000F18BF704703F00046520085
:1007C00043EB030313F4801F08BF013DF7D043EA56
:1007D0000603704794EA0C0F0CEA135518BF95EA0C
:1007E0000C0F0CD050EA410618BF52EA4306D1D193
:1007F00081EA030101F000414FF0000070BD50EAB2
:10080000410606BF1046194652EA430619D094EA3B
:100810000C0F02D150EA013613D195EA0C0F05D125
:1008200052EA03361CBF104619460AD181EA030179
:1008300001F0004141F0FE4141F470014FF0000031
:1008400070BD41F0FE4141F4780170BD70B54FF0CC
:10085000FF0C4CF4E06C1CEA11541DBF1CEA13554C
:1008600094EA0C0F95EA0C0F00F0A7F8A4EB05042E
:1008700081EA030E52EA03354FEA013100F0888025
:100880004FEA03334FF0805545EA131343EA1263EE
:100890004FEA022245EA111545EA10654FEA0026A3
:1008A0000EF000419D4208BF964244F1FD0404F55C
:1008B000407402D25B084FEA3202B61A65EB0305B8
:1008C0005B084FEA32024FF480104FF4002CB6EB75
:1008D000020E75EB030E22BFB61A754640EA0C00F5
:1008E0005B084FEA3202B6EB020E75EB030E22BF35
:1008F000B61A754640EA5C005B084FEA3202B6EB76
:10090000020E75EB030E22BFB61A754640EA9C0034
:100910005B084FEA3202B6EB020E75EB030E22BF04
:10092000B61A754640EADC0055EA060E18D04FEAC2
:10093000051545EA16754FEA06164FEAC30343EA62
:1009400052734FEAC2025FEA1C1CC0D111F4801F2F
:100950000BD141EA00014FF000004FF0004CB6E728
:1009600011F4801F04BF01430020B4F1FD0C88BFC7
:10097000BCF5E06F3FF6AFAEB5EB030C04BFB6EBD2
:10098000020C5FEA500C50F1000041EB045170BDC5
:100990000EF0004E4EEA113114EB5C04C2BFD4EBF2
:1009A0000C0541EA045170BD41F480114FF0000E76
:1009B000013C90E645EA060E8DE60CEA135594EAF2
:1009C0000C0F08BF95EA0C0F3FF43BAF94EA0C0FF5
:1009D0000AD150EA01347FF434AF95EA0C0F7FF46A
:1009E00025AF104619462CE795EA0C0F06D152EABE
:1009F00003353FF4FDAE1046194622E750EA4106A2
:100A000018BF52EA43067FF4C5AE50EA41047FF4B2
:100A10000DAF52EA43057FF4EBAE12E74FF0FF3C17
:100A200006E000BF4FF0010C02E000BF4FF0010CE8
:100A30004DF804CD4FEA410C7FEA6C5C4FEA430C61
:100A400018BF7FEA6C5C1BD001B050EA410C0CBFB0
:100A500052EA430C91EA030F02BF90EA020F002012
:100A6000704710F1000F91EA030F58BF994208BF79
:100A700090422CBFD8176FEAE37040F00100704736
:100A80004FEA410C7FEA6C5C02D150EA013C07D18D
:100A90004FEA430C7FEA6C5CD6D152EA033CD3D0D8
:100AA0005DF8040B704700BF8446104662468C46D2
:100AB0001946634600E000BF01B5FFF7B7FF002805
:100AC00048BF10F1000F01BD4DF808EDFFF7F4FF2E
:100AD0000CBF012000205DF808FB00BF4DF808EDB9
:100AE000FFF7EAFF34BF012000205DF808FB00BFDC
:100AF0004DF808EDFFF7E0FF94BF012000205DF8FE
:100B000008FB00BF4DF808EDFFF7CEFF94BF0120B2
:100B100000205DF808FB00BF4DF808EDFFF7C4FFAB
:100B200034BF012000205DF808FB00BF4FEA410CF4
:100B30007FEA6C5C02D150EA013C0AD14FEA430CD7
:100B40007FEA6C5C02D152EA033C02D14FF0000014
:100B500070474FF0010070474FEA410212F5001252
:100B600015D211D56FF47873B3EB625212D94FEAF4
:100B7000C12343F0004343EA505311F0004F23FADE
:100B800002F018BF404270474FF00000704750EA33
:100B9000013005D111F0004008BF6FF000407047F0
:100BA0004FF00000704700BF53B94AB9002908BF91
:100BB00000281CBF4FF0FF314FF0FF3000F088B924
:100BC000ADF1080C6DE904CE00F006F8DDF804E0A4
:100BD000DDE9022304B070472DE9F047089D8E46F9
:100BE00004468846002B4AD18A42174662D9B2FA97
:100BF00082F64EB1C6F1200301FA06F820FA03F39B
:100C0000B74043EA0808B4404FEA174E1FFA87FC82
:100C1000B8FBFEF1230C0EFB118843EA084301FBED
:100C20000CF29A4209D9FB1801F1FF3080F0EA80FA
:100C30009A4240F2E78002393B449A1AA3B2B2FBCF
:100C4000FEF00EFB102243EA024300FB0CFC9C4525
:100C500009D9FB1800F1FF3280F0D6809C4540F2A4
:100C6000D3803B44023840EA0140A3EB0C0300214F
:100C70001DB1F3400022C5E90032BDE8F0878B4288
:100C800005D90DB1C5E9000100210846F5E7B3FA21
:100C900083F1002946D1734502D3824200F20581D7
:100CA000841A6EEB030201209046002DE5D0C5E9C1
:100CB0000048E2E7002A00F09080B2FA82F6002EA7
:100CC00040F0A4808A1A030C4FEA174E80B2BCB2DF
:100CD0000121B2FBFEFC0EFB1C2243EA024304FB93
:100CE0000CF29A4207D9FB180CF1FF3802D29A4253
:100CF00000F2E080C4469B1AB3FBFEF20EFB1233F7
:100D000040EA034302FB04F49C4207D9FB1802F1BA
:100D1000FF3002D29C4200F2CA8002461B1B42EA0C
:100D20000C40A5E7C1F120068B4022FA06F71F43CD
:100D30000EFA01F420FA06F32EFA06FE4FEA1749DE
:100D4000234300FA01F81FFA87FCBEFBF9F01C0CE4
:100D500009FB10EE44EA0E4400FB0CFEA64502FA25
:100D600001F209D93C1900F1FF3A80F09C80A645B8
:100D700040F2998002383C44A4EB0E041FFA83FE33
:100D8000B4FBF9F309FB13444EEA044403FB0CFCE7
:100D9000A44508D93C1903F1FF3E80F08280A445A8
:100DA0007FD9023B3C4443EA0040A4EB0C04A0FB87
:100DB00002EC64457346E14662D35FD05DB1B8EBA7
:100DC000030264EB090404FA06F622FA01F31E4357
:100DD000CC40C5E9006400214FE7B1FBF2FC010CF7
:100DE00041EA0E4180B240EA01423B4638463C4669
:100DF000B846BE462026B1FBF7F1A2EB080241EA55
:100E00000C4166E7014618E710462CE7C6F12002C0
:100E10002EFA02F3B740B14020FA02F24FEA174E21
:100E20000A43B3FBFEF8BCB20EFB1833110C41EAC7
:100E3000034108FB04F9B04089454FEA104380B2F2
:100E40003ED9791808F1FF3C01D289451FD8A1EBA2
:100E50000901B1FBFEF909FB04F80EFB191192B26E
:100E600042EA0142424529D2BA1809F1FF31C4D2FF
:100E70004245C2D2A9F102013A44BEE7F0459DD2F3
:100E8000BEEB02036CEB070C0138E14696E7A7EBDB
:100E900009094944A8F1020CB1FBFEF909FB04F869
:100EA000DBE773467FE7504666E70846FDE63B44CE
:100EB000023A33E7ACF1020C3B441CE749469CE79D
:100EC000A1EB0901C446B1FBFEF909FB04F8C4E734
:100ED000704700BF80B582B000AF7860786800F0DE
:100EE0004BF80346002B01D0012300E000231846F5
:100EF0000837BD4680BD80B485B000AF78600B4632
:100F00007B804FF6FF73FB810023BB8129E0BB8907
:100F10007A6813441B781BB21B021AB2B7F90E3061
:100F200053401BB2FB810023FB7214E0B7F90E3073
:100F3000002B0ADAB7F90E305B001BB283F4815341
:100F400083F001031BB2FB8102E0FB895B00FB81A4
:100F5000FB7A0133FB72FB7A072BE7D9BB8901339C
:100F6000BB81BA897B889A42D1D3FB891846143752
:100F7000BD465DF8047B704780B59EB000AF7860D9
:100F800007F1140307F128014022184601F0CAF9BD
:100F900007F114037A682649184601F030FE03462B
:100FA00083F00103DBB2002B01D000233CE03B6A5D
:100FB000A7F86E307E233B73B7F86E30A7F80D307C
:100FC000B7F86E2007F1280311461846FFF793FF84
:100FD0000346A7F80F3000237B7407F10C03BB66B0
:100FE00000237B6709E07B6FBA6E13441B781846B9
:100FF00000F0BCF97B6F01337B677B6F052BF2D967
:1010000000233B670AE007F128023B6F13441B787B
:10101000184600F0ABF93B6F01333B67B7F86E3011
:101020003A6F9A42EFDB012318467837BD4680BD00
:101030005CE6000880B58EB000AF07F11C0300220B
:101040001A605A609A60DA601A615A619A613B4686
:1010500000221A605A609A60DA601A615A619A61D5
:101060002F4B4FF020421A602D4B2E4A5A602C4BCA
:1010700000229A602A4B0022DA60294B00221A6172
:10108000274B10225A61264B00229A61244B0022E2
:10109000DA61234B00221A62214B00225A62204B54
:1010A0004FF480529A621E4B0022DA621C4B4FF4BE
:1010B00080421A631A4B00225A63194B00229A632A
:1010C000174B00225A640F23FB610F233B623C2322
:1010D0007B620023BB621023FB6211233B6300236E
:1010E0007B6308233B600F237B600923BB600023E5
:1010F000FB6010233B6111237B610023BB613A46F7
:1011000007F11C031946064805F05FFC0346002B57
:1011100001D000F059FE00BF3837BD4680BD00BF8A
:10112000F0010020040100A080B586B000AF3B1D97
:1011300000221A605A609A60DA601A611C4B1B68C0
:10114000002B31D11A4B01221A6000233B60194B4E
:101150009B6B184A43F001039363164B9B6B03F0A0
:1011600001033B603B684FF688737B600223BB60E2
:101170000023FB6003233B610C237B613B1D19466D
:101180000D4802F039FF4CF2B3737B600223BB6061
:101190000023FB6003233B610C237B613B1D19464D
:1011A000064802F029FF00E000BF1837BD4680BDA9
:1011B000400200200038024000100240000C0240B3
:1011C00080B582B000AF7860FFF7AEFF00BF083790
:1011D000BD4680BD80B58CB000AF07F11C03002276
:1011E0001A605A609A60DA601A610023BB615A4B38
:1011F0001B6B594A43F010031363574B1B6B03F0EF
:101200001003BB61BB6900237B61534B1B6B524ACC
:1012100043F004031363504B1B6B03F004037B6127
:101220007B6900233B614C4B1B6B4B4A43F08003B3
:101230001363494B1B6B03F080033B613B69002345
:10124000FB60454B1B6B444A43F002031363424B64
:101250001B6B03F00203FB60FB680023BB603E4B8B
:101260001B6B3D4A43F0080313633B4B1B6B03F0BE
:101270000803BB60BB6800237B60374B1B6B364A9F
:1012800043F040031363344B1B6B03F040037B605C
:101290007B6800233B60304B1B6B2F4A43F00103FC
:1012A00013632D4B1B6B03F001033B603B68002273
:1012B0004FF40051294803F03BF800224021284810
:1012C00003F036F800224FF40141264803F030F8CD
:1012D00000220821244803F02BF84FF40053FB614F
:1012E00001233B6200237B620023BB6207F11C03E6
:1012F00019461A4802F080FE4023FB6101233B623D
:1013000000237B620023BB6207F11C0319461448CB
:1013100002F072FE4FF40143FB6101233B620023A4
:101320007B620023BB6207F11C0319460D4802F0E3
:1013300063FE0823FB6101233B6200237B620023E1
:10134000BB6207F11C031946074802F055FE00BFB7
:101350003037BD4680BD00BF003802400008024063
:101360000018024000000240000C024080B582B02C
:1013700000AF0346FB71F91D64230122034805F009
:10138000C5FF00BF0837BD4680BD00BF8C030020ED
:1013900080B500AF124B134A1A60114B124A5A60C3
:1013A0000F4B00229A600E4B0022DA600C4B4FF478
:1013B00080421A610A4B00225A61094B00229A614D
:1013C000074B0022DA61064B00221A62044802F041
:1013D000C9FF0346002B01D000F0F6FC00BF80BD22
:1013E0004402002000580040A086010080B58AB069
:1013F00000AF786007F1140300221A605A609A6007
:10140000DA601A617B681B68214A93423CD1002351
:101410003B61204B1B6B1F4A43F0020313631D4BC0
:101420001B6B03F002033B613B694FF440637B613C
:101430001223BB610123FB6103233B6204237B6214
:1014400007F114031946144802F0D6FD0023FB608F
:10145000104B1B6C0F4A43F4800313640D4B1B6C41
:1014600003F48003FB60FB6800220021212002F0CE
:10147000ECFC212002F005FD00220021222002F0D8
:10148000E4FC222002F0FDFC00BF2837BD4680BDF1
:1014900000580040003802400004024080B483B08D
:1014A00000AF0346FB804FF0C042FB88138000BFB3
:1014B0000C37BD465DF8047B7047000080B483B0F4
:1014C00000AF0346FB80044AFB88138000BF0C3743
:1014D000BD465DF8047B70470000106080B400AF2B
:1014E000034B1B889BB21846BD465DF8047B7047D2
:1014F0000000106090B583B000AF04460846114666
:101500001A462346FB800346BB800B467B8013466E
:101510003B802A20FFF7C2FFFB881B0A9BB21846BC
:10152000FFF7CCFFFB88DBB29BB21846FFF7C6FF84
:101530007B881B0A9BB21846FFF7C0FF7B88DBB293
:101540009BB21846FFF7BAFF2B20FFF7A7FFBB8817
:101550001B0A9BB21846FFF7B1FFBB88DBB29BB2F8
:101560001846FFF7ABFF3B881B0A9BB21846FFF7F4
:10157000A5FF3B88DBB29BB21846FFF79FFF2C20EC
:10158000FFF78CFF00BF0C37BD4690BD80B584B01F
:1015900000AF0346FB80134B1B881A46114B5B8838
:1015A00002FB03F3BB600F4B1B88013B9AB20D4B50
:1015B0005B88013B9BB200210020FFF79BFF0023CB
:1015C000FB6006E0FB881846FFF778FFFB680133F5
:1015D000FB60FA68BB689A42F4D300BF00BF1037C3
:1015E000BD4680BD9802002080B582B000AF0346A2
:1015F000FB800B46BB8013467B80BB88FA88B9888A
:10160000F888FFF777FF7B881846FFF757FF00BF82
:101610000837BD4680BD000090B587B000AF0446D6
:10162000084611461A462346FB800346BB800B46FC
:10163000FB7013463B8000237B75FB883B8297F849
:101640002C305B08FB73FB7BDB08DBB21A46FB7BB1
:1016500003F00703DBB2002B14BF01230023DBB22E
:1016600013449AB297F82C309BB212FB03F3BB8160
:10167000FB78203BFB70FB7B9AB2FB8813449BB248
:10168000013B9CB297F82C309AB2BB8813449BB2B2
:10169000013B9BB2B988F8882246FFF72BFF002355
:1016A0007B8286E097F82C300C2B0BD1FA78798A64
:1016B000454813465B0013449B0003440B441B78CE
:1016C000FB7528E097F82C30102B08D1FA787B8A2C
:1016D0003E4912010A4413441B78FB751BE097F83E
:1016E0002C30182B0BD1FA78798A394813465B00D5
:1016F00013441B0103440B441B78FB750BE097F864
:101700002C30202B5BD1FA787B8A324992010A4433
:1017100013441B78FB750023BB7544E097F8303009
:10172000002B20D1FA7DBB7D42FA03F303F00103C5
:10173000002B04D03B881846FFF7C0FE03E03B8D2A
:101740001846FFF7BBFE7B7D01337B757B7DFA7B03
:10175000B3FBF2F101FB02F29B1ADBB2002B1FD1AB
:1017600000237B7522E0FA7DBB7D42FA03F303F090
:101770000103002B05D03A88B988FB881846FFF78B
:1017800033FFFB880133FB80FA883B8AD21AFB7B4C
:101790009A4205D13B8AFB80BB880133BB8005E0C0
:1017A000BB7D0133BB75BB7D072BB7D97B8A01336A
:1017B0007B827A8ABB899A42FFF474AF00E000BF53
:1017C0001C37BD4690BD00BF54B20008C8B6000823
:1017D000B8BC000888CE000890B58BB004AFBA60E2
:1017E0001A460346FB810B46BB811346FB80FB89EF
:1017F000BB820023FB7548E0FB7D002B45D1FA89B5
:10180000264B1B88194697F82C305B08DBB2CB1AA5
:101810009A423FDCBA89214B5B88194697F82C30F5
:10182000CB1A9A4236DCBB681B78802B02D9012385
:10183000FB752AE0BB681B780D2B0BD197F82C3079
:101840009AB2BB891344BB81BB8AFB81BB6801335D
:10185000BB6017E0BB681A78FC88B989F88997F8EB
:101860003030029397F82C3001933B8D0093234640
:10187000FFF7D2FE97F82C305B08DBB21A46FB89E3
:101880001344FB81BB680133BB60BB681B78002B32
:10189000B2D100E000BF1C37BD4690BD98020020C9
:1018A00080B483B000AF0346FB71FB7903F03003D3
:1018B000DBB2002B07D00A4B4FF4A0721A80084B02
:1018C000F0225A8006E0064BF0221A80044B4FF4B7
:1018D000A0725A8000BF0C37BD465DF8047B70478C
:1018E0009802002080B500AF00224FF40051AA48B2
:1018F00002F01EFD4FF4FA7002F0A8F901224FF435
:101900000051A54802F014FD4FF4FA7002F09EF960
:101910000020FFF7C5FFD320FFF7C0FDFFF7DEFD76
:1019200003461A469D4B9A80FFF7D8FD03461A4698
:101930009A4B9A80FFF7D2FD03461A46974B9A803E
:10194000964B9B881B029AB2944B9A80FFF7C6FD78
:1019500003461A46914B9B8813439AB28F4B9A8049
:10196000CF20FFF79BFD0020FFF7A8FDC120FFF768
:10197000A5FD3020FFF7A2FDED20FFF78FFD6420CD
:10198000FFF79CFD0320FFF799FD1220FFF796FD5E
:101990008120FFF793FDE820FFF780FD8520FFF70A
:1019A0008DFD1020FFF78AFD7A20FFF787FDCB2001
:1019B000FFF774FD3920FFF781FD2C20FFF77EFD36
:1019C0000020FFF77BFD3420FFF778FD0220FFF7B2
:1019D00075FDF720FFF762FD2020FFF76FFDEA207D
:1019E000FFF75CFD0020FFF769FD0020FFF766FDB3
:1019F000C020FFF753FD1B20FFF760FDC120FFF75C
:101A00004DFD0120FFF75AFDC520FFF747FD3020AF
:101A1000FFF754FD3020FFF751FDC720FFF73EFDD3
:101A2000B720FFF74BFD3620FFF738FD0820FFF702
:101A300045FD3A20FFF732FD5520FFF73FFDB1206D
:101A4000FFF72CFD0020FFF739FD1A20FFF736FDC8
:101A5000B620FFF723FD0A20FFF730FDA220FFF795
:101A60002DFDF220FFF71AFD0020FFF727FD2620AD
:101A7000FFF714FD0120FFF721FDE020FFF70EFD29
:101A80000F20FFF71BFD2A20FFF718FD2820FFF786
:101A900015FD0820FFF712FD0E20FFF70FFD0820AF
:101AA000FFF70CFD5420FFF709FDA920FFF706FD05
:101AB0004320FFF703FD0A20FFF700FD0F20FFF78B
:101AC000FDFC0020FFF7FAFC0020FFF7F7FC0020E8
:101AD000FFF7F4FC0020FFF7F1FCE120FFF7DEFC4C
:101AE0000020FFF7EBFC1520FFF7E8FC1720FFF7BD
:101AF000E5FC0720FFF7E2FC1120FFF7DFFC0620E2
:101B0000FFF7DCFC2B20FFF7D9FC5620FFF7D6FCB3
:101B10003C20FFF7D3FC0520FFF7D0FC1020FFF797
:101B2000CDFC0F20FFF7CAFC3F20FFF7C7FC3F208A
:101B3000FFF7C4FC0F20FFF7C1FC2B20FFF7AEFC22
:101B40000020FFF7BBFC0020FFF7B8FC0120FFF7E7
:101B5000B5FC3F20FFF7B2FC2A20FFF79FFC0020D6
:101B6000FFF7ACFC0020FFF7A9FC0020FFF7A6FC64
:101B7000EF20FFF7A3FC1120FFF790FC782002F084
:101B800065F82920FFF78AFC01224FF48071044890
:101B900002F0CEFB00BF80BD00080240980200208A
:101BA0000000024080B598B004AF01F0DDFF00F006
:101BB000A1F8FFF70FFB01F0CDFEFFF73BFA01F0B4
:101BC00075FC01F053FEFFF7E3FB01F0EDFE00238F
:101BD000FB64FFF787FE0020FFF7D8FC0023029389
:101BE00018230193002300934FF6E0733B4A0A2128
:101BF0000A20FFF7F1FD002302931823019300232D
:101C0000009347F6FF73364A2D210A20FFF7E4FDC3
:101C10000023029310230193002300934FF6FF73D8
:101C2000304A50210A20FFF7D7FD01233B6402F020
:101C300001F802462C4BA3FB02135B09642101FB54
:101C400003F3D31A07EE903AB8EE677AF2EE046A1D
:101C5000C7EE267AB3EE097A77EE877AC7ED117A66
:101C600001F0E8FF0346BB6407F140031846FFF7A5
:101C700031F90346002B2CD0FB6C0133FB647B6CE9
:101C80001846FEF761FC02460B463846174907F036
:101C9000EDF83A46002302931823019300230093A2
:101CA00047F67C536E210A20FFF796FD3B46FA6CFF
:101CB0000F49184607F0DAF83A460023029310233A
:101CC00001930023009348F230438C210A20FFF750
:101CD00083FD4FF47A7001F0B9FFA6E7F0B0000879
:101CE00004B1000818B100081F85EB5128B10008A5
:101CF00038B1000880B594B000AF07F1200330225E
:101D00000021184607F017F907F10C0300221A60AA
:101D10005A609A60DA601A610023BB60284B1B6C22
:101D2000274A43F080531364254B1B6C03F0805308
:101D3000BB60BB6800237B60224B1B68214A43F4D5
:101D4000804313601F4B1B6803F480437B607B68F8
:101D500002233B620123FB6210233B630223BB632C
:101D60000023FB6308233B64A8237B640223BB643A
:101D70000423FB6407F12003184604F045F90346E9
:101D8000002B01D000F020F80F23FB6002233B6101
:101D900000237B614FF4A053BB614FF4A053FB6160
:101DA00007F10C030521184604F0A6FB0346002B9F
:101DB00001D000F009F800BF5037BD4680BD00BF1C
:101DC000003802400070004080B400AF72B600BF1F
:101DD00000BFFDE780B48FB000AF78607B681A89E0
:101DE0007B681B681B8A9A4201D3002356E17B68FB
:101DF0001B681A687B685B899B0013441B68FB6245
:101E0000FB6A1B0ADAB27B689A75FB6A03F003036C
:101E1000022B5AD0022B00F29480002B02D0012B0F
:101E20001FD08EE07B6801229A82FB6A9B089BB2DE
:101E300003F03F039AB27B681A82FB6A1B0E5BB207
:101E400003F00F0387F83330FB6A1B0CDBB27B63B4
:101E5000FB6A1B0F9BB203F00F039AB27B685A8296
:101E6000B4E07B681B681A687B685B8901339B0060
:101E700013441B68FB61FB6A1B0C9BB2C3F30B038F
:101E80009AB27B689A82FB6A9B089BB203F03F037D
:101E90009AB2FB691B0F9BB29B019BB213439AB290
:101EA0007B681A82FB6A1B0F5BB203F00F0387F893
:101EB0003330FB699BB27B63FB691B0C9BB2C3F3A2
:101EC0000B039AB27B685A8280E07B681B681A68B1
:101ED0007B685B8901339B0013441B68BB627B6892
:101EE0001B681A687B685B8902339B0013441B687C
:101EF0007B627B681B681A687B685B8903339B0085
:101F000013441B683B62FB6A1B0C9AB27B689A8283
:101F1000FB6A9B089BB203F03F039AB2BB6A1B0AA1
:101F20009BB29B019BB213439AB27B681A82BB6A35
:101F300087F833307B6A7B633B6A9AB27B685A824C
:101F400044E07B681B681A687B685B8901339B00EF
:101F500013441B68BB617B681B681A687B685B89DC
:101F600002339B0013441B687B617B681B681A6803
:101F70007B685B8903339B0013441B683B617B6870
:101F80001B681A687B685B8904339B0013441B68D9
:101F9000FB60FB689AB27B689A82FB6A9B089BB2E3
:101FA00003F03F039AB2BB691B0A9BB29B019BB231
:101FB00013439AB27B681A82BB6987F833307B6916
:101FC0007B633B699AB27B685A8200BF7B685B681F
:101FD000002B06D17B6800229A617B6800221A627E
:101FE00041E07B685A687B6B1A447B689A6197F979
:101FF0003330002B08D07B689A6997F933305B4205
:102000001A447B681A621AE07B689B7D03F03003F8
:10201000202B11D17B689B7D03F0C003002B05D0E2
:102020007B689B7D03F0C003802B05D17B6803F1A7
:1020300014027B681A6202E07B6800221A627B68E5
:102040009B7D03F0C003802B09D17B689B69002B2B
:1020500005D07B689B691A687B68DA6103E07B685E
:102060009A697B68DA617B689B7D03F00F03082B1C
:1020700005D07B689B7D03F00F03092B0AD17B6899
:102080001B685A687B68DB899B0013441A687B686D
:102090005A6202E07B6800225A62012318463C37EC
:1020A000BD465DF8047B704780B485B000AF7860B2
:1020B0007B681B8901339AB27B681A817B681A8915
:1020C0007B681B681B8A9A420CD37B6800221A81AA
:1020D0007B6800225A817B680022DA817B680022BB
:1020E0009A813BE07B681B681A687B685B899B0070
:1020F00013441B68FB60FB681B0AFB72FB6803F060
:102100000303012202FA03F33B817B685A893B896E
:1021100013449AB27B685A817B689B89FA7A02F0F1
:102120003002002A0CBF01220022D2B213449AB21C
:102130007B689A817B68DA89FB7A03F00F03082BAE
:1021400004D0FB7A03F00F03092B01D1012300E037
:1021500000239BB213449AB27B68DA8100BF143724
:10216000BD465DF8047B704780B584B000AFF86071
:10217000B9607A6028220021F86806F0DCFEFB686E
:10218000BA681A60FB687A685A60F868FFF722FE3E
:10219000034618461037BD4680BD80B586B000AFF7
:1021A000786039603B681B689B683B613B691B68D2
:1021B0001B68FB60FB681B0A03F0C003802B09D17E
:1021C0003B6804331A4639697868FFF7CDFF034648
:1021D000FB7508E03B685B681A4639697868FFF769
:1021E000C3FF0346FB753B6803F10C027B681A6270
:1021F000FB7D18461837BD4680BD80B582B000AF64
:1022000078607868FFF750FF7868FFF7E3FD7B6838
:102210001B89002B14BF01230023DBB218460837AB
:10222000BD4680BD80B485B000AF78607B68FB6040
:10223000FB6818461437BD465DF8047B704780B5CF
:1022400084B000AFF860B9607A607868FFF7EAFFA1
:1022500003461A46B968F868FFF786FF0346184632
:102260001037BD4680BD80B582B000AF7860396060
:102270003868FFF7D7FF034619467868FFF78DFFE8
:10228000034618460837BD4680BD80B586B000AF0E
:10229000F860B9607A607B685B8A082B25D17B681F
:1022A000DB697B617B69002B1FD0FB68002B0CD0A6
:1022B0007B691B68002B08D07B691B687A69043234
:1022C0007968F8689847034610E0BB68002B0CD08B
:1022D0007B691B68002B08D07B691B687A69043214
:1022E0007968B8689847034600E001231846183714
:1022F000BD4680BD80B586B000AFF860B9607A6039
:10230000FB685B687B617A697B681A44FB685A608A
:102310007A68B968786906F08EFE01231846183786
:10232000BD4680BDB0B48BB000AFF860B9607A60D4
:102330000B4B7B61BB68BB617B68FB6100233B622D
:1023400000237B62FB681D4607F114040FCC0FC508
:1023500023682B60F8682C37BD46B0BC704700BFBF
:10236000F522000880B584B000AFF860B9607A60EB
:102370007B68002B37D0FB681B68002B33D0FB68D1
:10238000DA687B681A44FB68DB689A4207D3FB680B
:10239000DA687B681A44FB689B689A420BD9FB6831
:1023A0001B69002B02D0FB681B6900E0134BFA6825
:1023B000136100231EE0FB681B687A68B968F8683F
:1023C0009847034683F00103DBB2002B0BD0FB6878
:1023D0001B69002B02D0FB681B6900E0084BFA6800
:1023E0001361002306E0FB68DA687B681A44FB6827
:1023F000DA60012318461037BD4680BD4CB1000895
:1024000058B1000880B485B000AF78607B68BB60CD
:102410000023FB600AE0BA68FB6813441B78002BBA
:1024200001D0012306E0FB680133FB60FB68002B51
:10243000F1D0002318461437BD465DF8047B704781
:10244000B0B58CB000AF786039603B681B6A1B8800
:10245000BB84BB8C002B01D101233DE13B689B7DFC
:1024600003F0C003802B10D03B689B8ABA8C9A4241
:102470000BD97B681B69002B02D07B681B6900E0CD
:10248000974B7A681361002326E13B689B7D03F03C
:102490000F03052B00F2B3803B681B8A1A4602210A
:1024A000786800F0DDFC034683F00103DBB2002B0B
:1024B00001D0002310E13B689B7D03F00F03042B48
:1024C00003D1BB8C9B00BB6247E03B689B7D03F064
:1024D0000F03052B03D1BB8CDB00BB623DE007F192
:1024E000080300221A605A609A60DA601A613B6839
:1024F000DB69FB610023FB8526E007F108033968EF
:10250000184600F0EFFD034683F00103DBB2002B19
:1025100010D07B681B69002B02D07B681B6905E02B
:10252000BB69002B01D0BB6900E06E4B7A68136178
:102530000023D1E03B68DB693A68528A1A443B6861
:10254000DA61FB8D0133FB85FA8DBB8C9A42D4D3C3
:102550003B68FA69DA617B69BB62BB6A00221C4690
:10256000154622462B46786800F0F7FB034683F0B9
:102570000103DBB2002B01D00023ADE07B681B68B8
:10258000002B06D1BA6A00217868FFF7EBFE0346FC
:10259000A2E00023FB852DE03B689B7D03F00F0349
:1025A000042B05D03B689B7D03F00F03052B0BD15B
:1025B0003968786800F058FE034683F00103DBB207
:1025C000002B0DD0002387E03968786800F08AFD81
:1025D000034683F00103DBB2002B01D000237BE034
:1025E0003B68DB693A68528A1A443B68DA61FB8DC2
:1025F0000133FB85FA8DBB8C9A42CDD36BE000236F
:10260000FB8564E03B689B7D03F0C003802B47D1D2
:102610003B689B7D03F00F03072B05D03B689B7D38
:1026200003F00F03062B3BD13B68DB693B623B6841
:10263000DB691A683B68DA613B68DB69002B1CD1F7
:102640003968786800F036FC0346002B0BD04FF059
:1026500000024FF00003786800F07FFB0346002B78
:1026600001D0012300E0002387F8273097F82730B6
:1026700003F0010387F8273006E03968786800F036
:1026800051F9034687F827303B683A6ADA6197F8D0
:10269000273083F00103DBB2002B0DD000231BE0B9
:1026A0003968786800F03EF9034683F00103DBB235
:1026B000002B02D000230FE000BF3B68DB693A68C3
:1026C000528A1A443B68DA61FB8D0133FB85FA8D2F
:1026D000BB8C9A4296D3012318463037BD46B0BD15
:1026E00064B100087CB1000880B592B000AF78609A
:1026F0007B689B7D87F8453097F8453003F0C00331
:10270000002B40F0C98097F8453003F03003002BD0
:1027100001D1002300E197F8453003F03003202B6E
:1027200008D17B681B6A1B88002B0CBF0123002388
:10273000DBB2F1E097F8453003F03003302B08D1DD
:102740007B681B6A1B88002B0CBF01230023DBB2B4
:10275000E2E097F8453003F03003102B15D17B6889
:102760001B6A002B11D07B681B6A1846FFF74AFED4
:102770000346002B14BF01230023DBB283F00103C7
:10278000DBB203F00103DBB2C6E07B681B689B6829
:10279000002B01D00023BFE097F8453003F00F0372
:1027A000052B1CD87B68DB697B630023A7F84630C8
:1027B0000DE0B7F846307A6B13441B78002B01D03C
:1027C0000023A9E0B7F846300133A7F846307B680C
:1027D0005B8AB7F846209A42EBD301239CE097F836
:1027E000453003F00F03062B0AD17B68DB69BB631E
:1027F000BB6B1B88002B0CBF01230023DBB28BE0DB
:1028000097F8453003F00F03072B08D17B68DB698D
:102810001B78002B0CBF01230023DBB27CE097F870
:10282000453003F00F030B2B07D17B685B8A002B2D
:102830000CBF01230023DBB26EE097F8453003F0B4
:102840000F03082B05D097F8453003F00F03092B31
:1028500061D17B68596A7B68DA6907F10C03184615
:10286000FFF782FC0346002B14D007F10C03184637
:10287000FFF73AFF034683F00103DBB2002B01D0E0
:10288000002349E007F10C031846FFF7B6FC0346A6
:10289000002BEAD101233FE097F8453003F0C00355
:1028A000802B07D17B68DB69002B0CBF0123002341
:1028B000DBB231E097F8453003F0C003402B2AD15A
:1028C00097F8453003F00F030A2B0AD17B68DB69C8
:1028D0001B68FB63FB6B002B0CBF01230023DBB2E7
:1028E0001AE07B681B68DB680D4A93420AD17B685B
:1028F000DB693B643B6C1B68002B0CBF012300238E
:10290000DBB209E07B681B68DB68002B0CBF01238E
:102910000023DBB200E0002318464837BD4680BDE7
:102920008B22000880B582B000AF786039603B68C8
:10293000DB69002B01D1012361E03968786800F080
:10294000B9FA034683F00103DBB2002B01D0002368
:1029500055E03B689B7D03F00F030B2B44D801A28D
:1029600052F823F095290008A1290008A1290008A0
:10297000A1290008AD290008AD290008B9290008DF
:10298000C5290008D1290008D1290008E929000833
:10299000DD2900083968786800F08AFB03462EE0DC
:1029A0003968786800F09EFB034628E0396878684B
:1029B00000F05AFC034622E03968786800F082FC97
:1029C00003461CE03968786800F0BAFC034616E05C
:1029D0003968786800F012FD034610E039687868BD
:1029E00000F052FD03460AE07B681B69002B02D011
:1029F0007B681B6900E0044B7A681361002318466A
:102A00000837BD4680BD00BF84B1000880B582B0E4
:102A100000AF786039603B681B68DB68002B18D01A
:102A20003B681B68DB683A68796800209847034672
:102A300083F00103DBB2002B0BD07B681B69002BFA
:102A400002D07B681B6900E0044B7A6813610023A5
:102A500000E0012318460837BD4680BD98B1000844
:102A600080B582B000AF786039603B689B7D03F031
:102A70003003302B08D13B681B6A1A883B681B8ADD
:102A80009A4226D0012359E03B689B7D03F0300336
:102A9000102B1ED13B681B6A002B0CD03B681B6AB5
:102AA0001846FFF7AFFC034683F00103DBB2002BAF
:102AB0000FD0012342E03B689B7D03F0C003002B55
:102AC00007D13868FFF710FE0346002B01D0012321
:102AD00034E03B68DB69002B13D13B689B7D03F03E
:102AE0003003002B0BD17B681B69002B02D07B6865
:102AF0001B6900E0134B7A68136100231EE0012379
:102B00001CE03B689B7D03F0C003402B05D1396876
:102B10007868FFF77BFF034610E03B689B7D03F07E
:102B20003003202B05D139687868FFF789FC03460C
:102B300004E039687868FFF7F5FE03461846083761
:102B4000BD4680BDA8B1000880B58CB000AF7860EC
:102B5000396007F1080339681846FFF784FB03461C
:102B600083F00103DBB2002B0BD07B681B69002BC9
:102B700002D07B681B6900E0074B7A681361002371
:102B800006E007F1080319467868FFF769FF034676
:102B900018463037BD4680BDC0B1000880B584B04E
:102BA00000AF786039603B68DB691B68FB601EE042
:102BB000FB681B685B68002B08D0FB681B685B68C0
:102BC000F968786898470346FB7205E0F968786809
:102BD000FFF7BAFF0346FB72FB7A83F00103DBB217
:102BE000002B01D0002306E0FB689B68FB60FB68BC
:102BF000002BDDD1012318461037BD4680BD80B5BE
:102C00008EB000AFF860B9607A6007F110037A689F
:102C1000B9681846FFF713FB034683F00103DBB2E4
:102C2000002B01D001232AE097F8263003F00F0390
:102C30000A2B0DD107F110031946F868FFF7AEFF14
:102C4000034683F00103DBB2002B0FD0002316E014
:102C500007F110031946F868FFF702FF034683F0F7
:102C60000103DBB2002B01D0002308E007F11003C1
:102C70001846FFF7C2FA0346002BD5D101231846A8
:102C80003837BD4680BD80B588B000AFF860B96008
:102C90007A600023FB61BB68DBB203F07F03FB7645
:102CA000BB68DB09BB6013E0FB7E63F07F03FB7650
:102CB000FB695A1CFA6120333B44FA7E03F8102C5E
:102CC000BB68DBB203F07F03FB76BB68DB09BB604C
:102CD000FB69032B05D8BB68002BE5D17B68002B73
:102CE000E2D17B68002B24D07B68DBB21B01DBB216
:102CF00003F07003DAB2FB7E1343FB767B68DB08DC
:102D00007B6013E0FB7E63F07F03FB76FB695A1C5C
:102D1000FA6120333B44FA7E03F8102C7B68DBB267
:102D200003F07F03FB767B68DB097B607B68002B0D
:102D3000E8D1FB695A1CFA6120333B44FA7E03F860
:102D4000102C07F11003FA691946F868FFF70AFB1F
:102D5000034618462037BD4680BD90B587B000AF0A
:102D6000F860C7E90023D7E90023802A73F1000344
:102D70000AD23B78FB7507F1170301221946F86860
:102D8000FFF7F0FA03460FE03C68D7E900014FF087
:102D900000024FF000030A00002313461A462146A2
:102DA000F868FFF770FF034618461C37BD4690BD14
:102DB0002DE9B04F8AB000AF7861C7E902234FF028
:102DC000FF326FF00043C7E90623D7E90223002B47
:102DD00015DAD7E90201D7E9062300EA020401EA7D
:102DE000030523193B6045EB05037B60D7E900230E
:102DF0006FEA020A6FEA030BC7E908AB07E0D7E9FD
:102E0000022312EB020843EB0309C7E90889D7E95B
:102E100008237869FFF7A1FF034618462837BD4607
:102E2000BDE8B08F80B582B000AF78603960042211
:102E300039687868FFF796FA034618460837BD46A2
:102E400080BD80B582B000AF7860396008223968F3
:102E50007868FFF787FA034618460837BD4680BDF5
:102E60002DE9B04F88B000AF78610B46FA60FB7473
:102E7000FB6800229A4693464FEA5A754FEACA0405
:102E8000FB7C00229846914644EA08033B6045EAF1
:102E900009037B60D7E90034C7E90634D7E9062384
:102EA0007869FFF75AFF034618462037BD46BDE84C
:102EB000B08F000080B584B000AF786039603B68A7
:102EC0009B7D03F00F030B2B26D801A252F823F0B1
:102ED000012F0008012F0008012F0008012F000812
:102EE000072F00080D2F0008132F0008132F0008CC
:102EF000132F0008132F0008192F0008132F0008A4
:102F00000023FB7314E00523FB7311E00123FB7323
:102F10000EE00223FB730BE07B681B69002B02D0E1
:102F20007B681B6900E0094B7A681361002308E0A5
:102F30003B681B8A1A46FB7B19467868FFF790FFAF
:102F4000034618461037BD4680BD00BF84B1000857
:102F5000B0B584B000AFF860B9607A607B680022D9
:102F60001C46154622462B46F868FFF7F6FE034638
:102F700083F00103DBB2002B01D0002305E07A6867
:102F8000B968F868FFF7EEF9034618461037BD46F2
:102F9000B0BD0000B0B58CB000AFF860B9607A6029
:102FA00007F1140300221A605A609A60DA601A610D
:102FB00007F114037A68B9681846FFF720FE034644
:102FC00083F00103DBB2002B04D07A6AFB681A613C
:102FD000002365E03B6AFB62FB6A00221C46154643
:102FE00022462B46F868FFF7B8FE034683F001033C
:102FF000DBB2002B01D0002352E0FB681B68002BE2
:1030000006D1FA6A0021F868FFF7ACF9034647E0F9
:10301000FB68DA68FB6A1A44FB689B689A420BD922
:10302000FB681B69002B02D0FB681B6900E01E4B8C
:10303000FA681361002333E0FB681B687B61FB685F
:103040005B68BB61FB6AFB6100233B6200237B6220
:1030500007F114037A68B9681846FFF7D0FD0346F4
:1030600087F82B30FB68DA683B6A1A44FB68DA6041
:10307000BA69FB685A607A6AFB681A613B6AFA6A45
:103080009A420BD0FB681B69002B02D0FB681B69BE
:1030900000E0064BFA681361002301E097F82B303B
:1030A00018463037BD46B0BD4CB10008D4B1000859
:1030B000B0B584B000AF786039603B68DB69184612
:1030C000FFF7A0F90346FB60FB6800221C4615468B
:1030D00022462B467868FFF740FE03461846103715
:1030E000BD46B0BD2DE9B04F8CB000AFF861B961FD
:1030F000BB699B7D03F00F03022B52D14FF00002FE
:103100004FF00003C7E90A23BB695B8A012B0BD18F
:10311000BB69DB691B78DBB200223B617A61D7E9CE
:103120000434C7E90A3435E0BB695B8A022B0BD152
:10313000BB69DB691B889BB20022BB60FA60D7E9E0
:103140000234C7E90A3425E0BB695B8A042B0AD143
:10315000BB69DB691B6800223B607A60D7E90034F9
:10316000C7E90A3416E0BB695B8A082B06D1BB6944
:10317000DB69D3E90023C7E90A230BE0FB691B697C
:10318000002B02D0FB691B6900E0364BFA69136122
:10319000002361E0D7E90A23F869FFF7DEFD034663
:1031A0005AE04FF000024FF00003C7E90823BB6963
:1031B0005B8A012B0AD1BB69DB6993F900305BB2F2
:1031C000DA179A469346C7E908AB32E0BB695B8AD7
:1031D000022B0AD1BB69DB69B3F900301BB2DA17E5
:1031E00098469146C7E9088923E0BB695B8A042BAE
:1031F00008D1BB69DB691B68DA171C461546C7E9AD
:10320000084516E0BB695B8A082B06D1BB69DB6900
:10321000D3E90023C7E908230BE0FB691B69002BF6
:1032200002D0FB691B6900E00E4BFA6913610023B1
:1032300012E0BB699B7D03F00F03032B06D1D7E996
:103240000823F869FFF7B4FD034605E0D7E9082332
:10325000F869FFF782FD034618463037BD46BDE8E2
:10326000B08F00BFE8B1000880B582B000AF7860D1
:1032700039603B685B8A042B07D13B68DB691946E0
:103280007868FFF7CFFD034616E03B685B8A082BA2
:1032900007D13B68DB6919467868FFF7D2FD034622
:1032A0000AE07B681B69002B02D07B681B6900E089
:1032B000034B7A681361002318460837BD4680BD6A
:1032C000E8B1000880B584B000AF786039600023B1
:1032D000FB603B68DB69FB60FB68002B06D10022CA
:1032E00000217868FFF734FE034622E03B689B7DAF
:1032F00003F0C003002B13D1FB681B881A463B6800
:103300005B8A023B9A420BD97B681B69002B02D077
:103310007B681B6900E0094B7A681361002308E0B1
:10332000FB68991CFB681B881A467868FFF710FE3B
:10333000034618461037BD4680BD00BFFCB10008EB
:1033400080B586B000AF7860396000237B613B6850
:103350005B8A3B613B68DB69BB603B689B7D03F03C
:10336000C003802B03D14FF0FF333B6111E03B6979
:10337000002B0BD17B681B69002B02D07B681B697B
:1033800000E01C4B7A68136100232FE03B69013B8E
:103390003B61BB68002B02D100237B6120E0BB684E
:1033A000FB6005E07B6901337B61FB680133FB60F7
:1033B0007A693B699A4203D2FB681B78002BF1D1F2
:1033C000FB681B78002B0BD07B681B69002B02D09D
:1033D0007B681B6900E0084B7A681361002305E0F5
:1033E0007A69B9687868FFF7B3FD0346184618375D
:1033F000BD4680BD10B2000824B2000880B584B07C
:1034000000AF786039603B685B6A002B0BD17B684A
:103410001B69002B02D07B681B6900E0194B7A689E
:103420001361002329E03B689B7D03F00F03092B08
:103430001AD13B681B6A002B16D03B681B6A083BFD
:10344000FB60FB681B68002B0ED0FB681B68FA68EA
:103450000432396878689847034683F00103DBB289
:10346000002B01D0002308E03B68596A3B68DB6908
:103470001A467868FFF78EFD034618461037BD469A
:1034800080BD00BF38B2000880B582B000AF786060
:1034900039603B68D9693B685B8A1A467868FFF7F0
:1034A00057FD034618460837BD4680BD80B500AFBE
:1034B000174B184A1A60164B4FF482725A60144B1D
:1034C00000229A60124B0022DA60114B00221A612E
:1034D0000F4B00225A610E4B4FF400729A610C4B55
:1034E0000022DA610A4B00221A62094B00225A625A
:1034F000074B00229A62064B0A22DA62044803F064
:10350000DBF90346002B01D0FEF75EFC00BF80BD57
:10351000A00200200030014080B58AB000AF786082
:1035200007F1140300221A605A609A60DA601A6187
:103530007B681B68194A93422BD100233B61184BCF
:103540005B6C174A43F480535364154B5B6C03F474
:1035500080533B613B690023FB60114B1B6B104A9E
:1035600043F0020313630E4B1B6B03F00203FB607B
:10357000FB6838237B610223BB610023FB610323CB
:103580003B6205237B6207F114031946054800F0EE
:1035900033FD00BF2837BD4680BD00BF003001406D
:1035A000003802400004024080B483B000AF002322
:1035B0007B60104B5B6C0F4A43F4804353640D4BAC
:1035C0005B6C03F480437B607B6800233B60094BAA
:1035D0001B6C084A43F080531364064B1B6C03F0CA
:1035E00080533B603B6800BF0C37BD465DF8047BF1
:1035F000704700BF0038024080B400AF00BFFDE755
:1036000080B400AF00BFFDE780B400AF00BFFDE7AE
:1036100080B400AF00BFFDE780B400AF00BFFDE79E
:1036200080B400AF00BFBD465DF8047B704780B436
:1036300000AF00BFBD465DF8047B704780B400AFAB
:1036400000BFBD465DF8047B704780B500AF00F059
:10365000DDFA00BF80BD000080B500AF024803F076
:103660004BFA00BF80BD00BFFC02002080B500AF58
:10367000024800F0D0FF00BF80BD00BF4402002020
:1036800080B500AF024801F037F900BF80BD00BF30
:103690004402002080B500AF024803F0C3FE00BF23
:1036A00080BD00BF4403002080B500AF024803F096
:1036B000B9FE00BF80BD00BF8C03002080B400AF06
:1036C00001231846BD465DF8047B704780B582B083
:1036D00000AF7860396005F081FC034616221A605D
:1036E0004FF0FF3318460837BD4680BD80B582B025
:1036F00000AF78604FF0FF317868FFF7E7FF00BF59
:10370000FDE780B586B000AFF860B9607A6000234D
:103710007B610AE0AFF300800146BB685A1CBA60C7
:10372000CAB21A707B6901337B617A697B689A42FD
:10373000F0DB7B6818461837BD4680BD80B586B083
:1037400000AFF860B9607A6000237B6109E0BB6874
:103750005A1CBA601B781846AFF300807B690133AE
:103760007B617A697B689A42F1DB7B68184618377F
:10377000BD4680BD80B483B000AF78604FF0FF33AA
:1037800018460C37BD465DF8047B704780B483B0A3
:1037900000AF786039603B684FF400525A600023F4
:1037A00018460C37BD465DF8047B704780B483B083
:1037B00000AF7860012318460C37BD465DF8047BE6
:1037C000704780B485B000AFF860B9607A600023BC
:1037D00018461437BD465DF8047B704780B586B047
:1037E00000AF7860144A154BD31A7B617B693B614B
:1037F000134B1B68002B02D1114B124A1A60104B5D
:103800001A687B6813443A699A4207D205F0E6FBCE
:1038100003460C221A604FF0FF3309E0084B1B6887
:10382000FB60074B1A687B681344054A1360FB680A
:1038300018461837BD4680BD000002200004000075
:10384000F80200202805002080B400AF064BD3F812
:103850008830054A43F47003C2F8883000BFBD4683
:103860005DF8047B704700BF00ED00E080B586B0D6
:1038700000AF07F1080300221A605A609A60DA600C
:103880003B4600221A605A601E4B4FF080421A607D
:103890001C4B40F247325A601A4B00229A60194B77
:1038A0004FF0FF32DA60174B00221A61154B0022ED
:1038B0009A61144803F0D1F80346002B01D0FEF7BB
:1038C00083FA4FF48053BB6007F1080319460D4893
:1038D00003F002FA0346002B01D0FEF775FA00232D
:1038E0003B6000237B603B461946064803F02EFCF4
:1038F0000346002B01D0FEF767FA00BF1837BD461C
:1039000080BD00BFFC02002080B584B000AF7860AD
:103910007B681B68B3F1804F15D10023FB600C4B13
:103920001B6C0B4A43F001031364094B1B6C03F03F
:103930000103FB60FB68002200211C2000F085FAD7
:103940001C2000F09EFA00BF1037BD4680BD00BFAE
:103950000038024080B500AF114B124A1A60104B7C
:103960004FF416525A600E4B00229A600C4B002204
:10397000DA600B4B00221A61094B0C225A61084B8A
:1039800000229A61064B0022DA61054803F06EFCC2
:103990000346002B01D0FEF717FA00BF80BD00BF21
:1039A000440300200048004080B500AF114B124A8C
:1039B0001A60104B4FF416525A600E4B00229A6058
:1039C0000C4B0022DA600B4B00221A61094B0C22CF
:1039D0005A61084B00229A61064B0022DA610548C1
:1039E00003F044FC0346002B01D0FEF7EDF900BFC5
:1039F00080BD00BF8C0300200014014080B58CB056
:103A000000AF786007F11C0300221A605A609A60C8
:103A1000DA601A617B681B683A4A934235D1002309
:103A2000BB61394B1B6C384A43F480231364364B1B
:103A30001B6C03F48023BB61BB6900237B61324BA9
:103A40001B6B314A43F0040313632F4B1B6B03F0D2
:103A500004037B617B694FF44063FB6102233B629B
:103A600000237B620323BB620723FB6207F11C0375
:103A70001946264800F0C0FA00220021272000F055
:103A8000E4F9272000F0FDF938E07B681B68204A44
:103A9000934233D100233B611B4B5B6C1A4A43F0CA
:103AA00020035364184B5B6C03F020033B613B69BC
:103AB0000023FB60144B1B6B134A43F00403136396
:103AC000114B1B6B03F00403FB60FB68C023FB611D
:103AD00002233B6200237B620323BB620823FB6259
:103AE00007F11C031946094800F086FA002200215C
:103AF000472000F0AAF9472000F0C3F900BF303793
:103B0000BD4680BD00480040003802400008024029
:103B100000140140DFF834D0FFF796FE0C480D4941
:103B20000D4A002302E0D458C4500433C4188C4218
:103B3000F9D30A4A0A4C002301E013600432A2427E
:103B4000FBD305F051FAFEF72DF870470000022074
:103B500000000020D401002014EA0008D401002055
:103B600024050020FEE7000080B500AF0E4B1B6867
:103B70000D4A43F4007313600B4B1B680A4A43F46D
:103B800080631360084B1B68074A43F4807313601B
:103B9000032000F04FF90F2000F008F8FFF704FDB4
:103BA0000023184680BD00BF003C024080B582B0B3
:103BB00000AF7860124B1A68124B1B7819464FF40D
:103BC0007A73B3FBF1F3B2FBF3F3184600F067F935
:103BD0000346002B01D001230EE07B680F2B0AD88F
:103BE000002279684FF0FF3000F02FF9064A7B6819
:103BF0001360002300E0012318460837BD4680BD4E
:103C000000000020080000200400002080B400AF65
:103C1000064B1B781A46064B1B681344044A136074
:103C200000BFBD465DF8047B704700BF0800002060
:103C3000D403002080B400AF034B1B681846BD4678
:103C40005DF8047B704700BFD403002080B584B0CA
:103C500000AF7860FFF7EEFFB8607B68FB60FB6841
:103C6000B3F1FF3F05D00A4B1B781A46FB6813449B
:103C7000FB6000BFFFF7DEFF0246BB68D31AFA689D
:103C80009A42F7D800BF00BF1037BD4680BD00BFC5
:103C90000800002080B485B000AF78607B6803F036
:103CA0000703FB600C4BDB68BB60BA684FF6FF0391
:103CB0001340BB60FB681A02BB68134343F0BF6349
:103CC00043F40033BB60044ABB68D36000BF1437C1
:103CD000BD465DF8047B704700ED00E080B400AFA6
:103CE000044BDB681B0A03F007031846BD465DF86A
:103CF000047B704700ED00E080B483B000AF034662
:103D0000FB7197F90730002B0BDBFB7903F01F02E7
:103D1000074997F907305B09012000FA02F241F8E0
:103D2000232000BF0C37BD465DF8047B704700BF01
:103D300000E100E080B483B000AF03463960FB715E
:103D400097F90730002B0ADB3B68DAB20C4997F988
:103D500007301201D2B20B4483F800230AE03B681B
:103D6000DAB20849FB7903F00F03043B1201D2B227
:103D70000B441A7600BF0C37BD465DF8047B7047D4
:103D800000E100E000ED00E080B489B000AFF86031
:103D9000B9607A60FB6803F00703FB61FB69C3F15C
:103DA0000703042B28BF0423BB61FB690433062BE4
:103DB00002D9FB69033B00E000237B614FF0FF3237
:103DC000BB6902FA03F3DA43BB681A407B699A4085
:103DD0004FF0FF317B6901FA03F3D9437B680B4055
:103DE000134318462437BD465DF8047B7047000036
:103DF00080B582B000AF78607B68013BB3F1807F13
:103E000001D301230FE00A4A7B68013B53600F2175
:103E10004FF0FF30FFF78EFF054B00229A60044BF6
:103E200007221A60002318460837BD4680BD00BF30
:103E300010E000E080B582B000AF78607868FFF7EE
:103E400029FF00BF0837BD4680BD80B586B000AFF2
:103E50000346B9607A60FB7300237B61FFF73EFF86
:103E600078617A68B9687869FFF78EFF024697F93A
:103E70000F3011461846FFF75DFF00BF1837BD46EB
:103E800080BD80B582B000AF0346FB7197F9073063
:103E90001846FFF731FF00BF0837BD4680BD80B52B
:103EA00082B000AF78607868FFF7A2FF034618463B
:103EB0000837BD4680BD80B584B000AF78607B68B0
:103EC0009B6DFB60FFF7B6FEB8607B6893F83530FA
:103ED000DBB2022B08D07B6880225A657B68002207
:103EE00083F83420012352E07B681B681A687B68E2
:103EF0001B6822F016021A607B681B685A697B688F
:103F00001B6822F080025A617B681B6C002B03D176
:103F10007B689B6C002B07D07B681B681A687B68EA
:103F20001B6822F008021A607B681B681A687B68AD
:103F30001B6822F001021A6013E0FFF77BFE0246C5
:103F4000BB68D31A052B0CD97B6820225A657B6885
:103F5000032283F835207B68002283F83420032372
:103F600015E07B681B681B6803F00103002BE4D19C
:103F70007B68DB6D3F229A40FB689A607B68012278
:103F800083F835207B68002283F83420002318460C
:103F90001037BD4680BD80B483B000AF78607B68C9
:103FA00093F83530DBB2022B04D07B6880225A654F
:103FB00001230CE07B68052283F835207B681B68B1
:103FC0001A687B681B6822F001021A6000231846F9
:103FD0000C37BD465DF8047B704780B483B000AFFA
:103FE00078607B6893F83530DBB218460C37BD46F5
:103FF0005DF8047B7047000080B489B000AF786042
:10400000396000237B6100233B610023BB610023F7
:10401000FB616BE10122FB6902FA03F37B613B6800
:104020001B687A6913403B613A697B699A4240F0A8
:104030005A813B685B6803F00303012B05D03B68A2
:104040005B6803F00303022B30D17B689B68BB6184
:10405000FB695B00032202FA03F3DB43BA691340F6
:10406000BB613B68DA68FB695B0002FA03F3BA697B
:104070001343BB617B68BA699A607B685B68BB610C
:104080000122FB6902FA03F3DB43BA691340BB6107
:104090003B685B681B0903F00102FB6902FA03F34A
:1040A000BA691343BB617B68BA695A603B685B6855
:1040B00003F00303032B17D07B68DB68BB61FB694C
:1040C0005B00032202FA03F3DB43BA691340BB61CE
:1040D0003B689A68FB695B0002FA03F3BA69134311
:1040E000BB617B68BA69DA603B685B6803F0030315
:1040F000022B23D1FB69DA087B68083253F822309F
:10410000BB61FB6903F007039B000F2202FA03F374
:10411000DB43BA691340BB613B681A69FB6903F072
:1041200007039B0002FA03F3BA691343BB61FB69FF
:10413000DA087B680832B96943F822107B681B688B
:10414000BB61FB695B00032202FA03F3DB43BA693C
:104150001340BB613B685B6803F00302FB695B00D3
:1041600002FA03F3BA691343BB617B68BA691A6048
:104170003B685B6803F44033002B00F0B4800023FD
:10418000FB60604B5B6C5F4A43F4804353645D4B60
:104190005B6C03F48043FB60FB685B4AFB699B0834
:1041A000023352F82330BB61FB6903F003039B0029
:1041B0000F2202FA03F3DB43BA691340BB617B6849
:1041C000524A93422BD07B68514A934225D07B6858
:1041D000504A93421FD07B684F4A934219D07B6864
:1041E0004E4A934213D07B684D4A93420DD07B6870
:1041F0004C4A934207D07B684B4A934201D1072334
:104200000EE008230CE006230AE0052308E004235F
:1042100006E0032304E0022302E0012300E0002380
:10422000FA6902F0030292009340BA691343BB613A
:104230003549FB699B080233BA6941F823203B4B9F
:104240009B68BB613B69DB43BA691340BB613B6858
:104250005B6803F48013002B03D0BA693B691343F6
:10426000BB61324ABB699360304BDB68BB613B6921
:10427000DB43BA691340BB613B685B6803F400131E
:10428000002B03D0BA693B691343BB61274ABB6962
:10429000D360264B5B68BB613B69DB43BA69134063
:1042A000BB613B685B6803F40033002B03D0BA6941
:1042B0003B691343BB611D4ABB6953601B4B1B68C1
:1042C000BB613B69DB43BA691340BB613B685B6818
:1042D00003F48033002B03D0BA693B691343BB61FD
:1042E000124ABB691360FB690133FB61FB690F2B49
:1042F0007FF690AE00BF00BF2437BD465DF8047B5B
:10430000704700BF00380240003801400000024002
:104310000004024000080240000C0240001002406D
:104320000014024000180240001C0240003C014002
:1043300080B483B000AF78600B467B8013467B70FF
:104340007B78002B03D07A887B689A6103E07B88B6
:104350001A047B689A6100BF0C37BD465DF8047B88
:104360007047000080B584B000AF78607B68002B98
:1043700001D101232BE17B6893F83D30DBB2002BA8
:1043800006D17B68002283F83C207868FDF72EF880
:104390007B68242283F83D207B681B681A687B6851
:1043A0001B6822F001021A607B681B681A687B6830
:1043B0001B6842F400421A607B681B681A687B68BD
:1043C0001B6822F400421A6002F04EFAF8607B6823
:1043D0005B68814A934207D8FB68804A934294BF46
:1043E00001230023DBB206E0FB687D4A934294BFC1
:1043F00001230023DBB2002B01D00123E7E0FB689F
:10440000784AA2FB03239B0CBB607B681B685B683C
:1044100023F03F017B681B68BA680A435A607B68D7
:104420001B681B6A23F03F017B685B686A4A934202
:1044300002D8BB68013309E0BB684FF4967202FBF7
:1044400003F3694AA2FB03239B0901337A681268CC
:104450000B4313627B681B68DB6923F44F4222F035
:10446000FF027B685B685C498B4219D8FB68591E68
:104470007B685B685B00B1FBF3F3591C40F6FC738F
:104480000B40002B0AD0FB68591E7B685B685B0001
:10449000B1FBF3F30133C3F30B0351E004234FE00B
:1044A0007B689B68002B11D1FB68581E7B6859689C
:1044B0000B465B000B44B0FBF3F30133C3F30B0378
:1044C000002B0CBF01230023DBB212E0FB68581E57
:1044D0007B6859680B469B000B4499000B44B0FB6A
:1044E000F3F30133C3F30B03002B0CBF01230023B1
:1044F000DBB2002B01D0012322E07B689B68002BFC
:104500000ED1FB68581E7B6859680B465B000B4454
:10451000B0FBF3F30133C3F30B0343F400430FE0A9
:10452000FB68581E7B6859680B469B000B4499003A
:104530000B44B0FBF3F30133C3F30B0343F44043E9
:10454000796809681343CB617B681B681B6823F09B
:10455000C0017B68DA697B681B6A1A437B681B6849
:104560000A431A607B681B689B6823F4034323F0AB
:10457000FF037A6811697A68D26811437A68126811
:104580000B4393607B681B68DB6823F0FF017B684B
:104590005A697B689B691A437B681B680A43DA6027
:1045A0007B681B681A687B681B6842F001021A600E
:1045B0007B6800221A647B68202283F83D207B6898
:1045C00000221A637B68002283F83E2000231846ED
:1045D0001037BD4680BD00BFA08601007F841E004D
:1045E000FF083D0083DE1B43D34D621080B483B0CF
:1045F00000AF78607B681B685B6903F08003802BE9
:1046000003D17B681B6800221A6100BF0C37BD46CE
:104610005DF8047B704780B588B000AF78600023F8
:10462000BB617B681B685B687B617B68DB6A3B61A5
:104630007B6893F83E30FB737B6893F83D30BB7327
:10464000FB7B102B03D0FB7B402B40F0C1807B68B1
:104650001B689B69BB617B681B685B69FB61FB69CD
:1046600003F00103002B0DD13B69B3F52A0F03D0F2
:104670003B69B3F12A4F01D1012300E00023012B54
:1046800000F03281FB6903F00103002B0CD07B6941
:104690005B0A03F00103002B06D0786801F098FC58
:1046A000786800F09BFD92E0FB69DB0803F00103F2
:1046B000002B09D07B695B0A03F00103002B03D0B8
:1046C000786800F011FE82E0FB695B0803F00103EB
:1046D000002B09D07B695B0A03F00103002B03D098
:1046E000786800F02BFE72E0BB699B0803F00103C1
:1046F000002B3BD07B681B685B6803F40063B3F559
:10470000006F00F0F380FB69DB0903F00103002B6D
:104710000FD07B699B0A03F00103002B09D0FB69D2
:104720009B0803F00103002B03D1786800F0F3F934
:104730004DE0FB699B0803F00103002B00F0D680DD
:104740007B695B0A03F00103002B00F0CF80BB7B89
:10475000212B03D1786800F07AFAC7E0FB7B402B6D
:1047600040F0C480786800F0E8FABFE07B681B681E
:104770005B6803F40063B3F5006F00F0B780FB697A
:104780009B0903F00103002B0FD07B699B0A03F008
:104790000103002B09D0FB699B0803F00103002BE8
:1047A00003D1786800F061FB11E0FB699B0803F01E
:1047B0000103002B00F09A807B695B0A03F0010380
:1047C000002B00F09380786800F017FC8EE08DE0FD
:1047D0007B681B6C002B04D07B681B685B69FB61EA
:1047E00007E07B681B689B69BB617B681B685B6932
:1047F000FB61FB695B0803F00103002B12D07B69AE
:104800005B0A03F00103002B0CD07B681B6C002BB0
:1048100003D07B681B689B69BB61B969786800F04D
:10482000DCFF66E0FB691B0903F00103002B09D0E4
:104830007B695B0A03F00103002B03D0786801F069
:1048400017F856E0BB7B212B02D0BB7B292B25D14F
:10485000FB69DB0903F00103002B0FD07B699B0A86
:1048600003F00103002B09D0FB699B0803F001034F
:10487000002B03D1786800F0F2FE39E0FB699B0859
:1048800003F00103002B33D07B695B0A03F00103C3
:10489000002B2DD0786800F01FFF29E0FB699B09F1
:1048A00003F00103002B0FD07B699B0A03F0010387
:1048B000002B09D0FB699B0803F00103002B03D1F7
:1048C000786800F02AFF14E0FB699B0803F00103FD
:1048D000002B0ED07B695B0A03F00103002B08D08C
:1048E000786800F058FF04E000BF02E000BF00E07D
:1048F00000BF2037BD4680BD80B58AB000AF78606C
:104900007B681B685B693B627B681B685B68FB615B
:1049100000237B627B6893F83E30FB763B6A1B0A80
:1049200003F00103002B0ED0FB691B0A03F0010307
:10493000002B08D07B6A43F001037B627B681B6815
:104940006FF480725A613B6A5B0A03F00103002B2B
:104950000ED0FB691B0A03F00103002B08D07B6A11
:1049600043F002037B627B681B686FF400725A613C
:104970003B6A9B0A03F00103002B3FD0FB691B0A33
:1049800003F00103002B39D0FB7EBB767B685B8D87
:104990009BB27B617B6893F83D30FB747B681B6B3B
:1049A000FB60BB7E202B12D17B69002B0FD1FB7CDF
:1049B000212B08D0FB7C292B05D0FB7C282B06D192
:1049C000FB68212B03D1786801F082F816E07B6840
:1049D0001B686FF480625A617B6A43F004037B6258
:1049E000FB7E102B02D0FB7E402B07D17B681B681F
:1049F0001A687B681B6842F400721A603B6ADB0A23
:104A000003F00103002B0ED0FB691B0A03F0010326
:104A1000002B08D07B6A43F008037B627B681B682D
:104A20006FF400625A617B6A002B08D07B681A6CB5
:104A30007B6A1A437B681A64786801F0BDF800BF8E
:104A40002837BD4680BD80B483B000AF786000BF1A
:104A50000C37BD465DF8047B704780B483B000AF6F
:104A6000786000BF0C37BD465DF8047B704780B4AA
:104A700083B000AF786000BF0C37BD465DF8047BA3
:104A8000704780B483B000AF786000BF0C37BD467C
:104A90005DF8047B704780B483B000AF78600B464C
:104AA000FB7013463B8000BF0C37BD465DF8047BAE
:104AB000704780B483B000AF786000BF0C37BD464C
:104AC0005DF8047B704780B483B000AF786000BFAE
:104AD0000C37BD465DF8047B704780B483B000AFEF
:104AE000786000BF0C37BD465DF8047B704780B42A
:104AF00083B000AF786000BF0C37BD465DF8047B23
:104B0000704780B483B000AF786000BF0C37BD46FB
:104B10005DF8047B704780B584B000AF78607B6837
:104B200093F83D30FB737B6893F83E30BB737B6832
:104B3000DB6ABB607B681B8D002B50D1FB7B212B7C
:104B40004DD1BB68082B1DD0BB68202B1AD0BB6889
:104B500013F5803F16D07B681B685A687B681B681A
:104B600022F4E0625A607B6811221A637B6800229B
:104B700083F83E207B68202283F83D207868FFF789
:104B800062FF60E07B681B685A687B681B6822F4E0
:104B9000E0625A607B681B681A687B681B6842F495
:104BA00000721A607B6800221A637B68202283F8F7
:104BB0003D207B6893F83E30DBB2402B07D17B6809
:104BC000002283F83E207868FFF77DFF3BE07B689A
:104BD000002283F83E207868FFF735FF33E0FB7B47
:104BE000212B05D0BB7B402B2DD1FB7B222B2AD147
:104BF0007B685B8D9BB2002B08D17B681B685A6871
:104C00007B681B6822F480625A601CE07B6893F822
:104C10003E30DBB2402B03D1786800F08EF812E012
:104C20007B685B6A1A787B681B681A617B685B6AC1
:104C30005A1C7B685A627B685B8D9BB2013B9AB2BF
:104C40007B685A85FFE700BF1037BD4680BD80B541
:104C500084B000AF78607B68DB6AFB607B6893F8A8
:104C60003D30DBB2212B64D17B685B8D9BB2002B86
:104C700012D07B685B6A1A787B681B681A617B6854
:104C80005B6A5A1C7B685A627B685B8D9BB2013BF6
:104C90009AB27B685A854CE0FB68082B1DD0FB68F4
:104CA000202B1AD0FB6813F5803F16D07B681B6859
:104CB0005A687B681B6822F4E0625A607B681122A4
:104CC0001A637B68002283F83E207B68202283F8E9
:104CD0003D207868FFF7B7FE2BE07B681B685A68B9
:104CE0007B681B6822F4E0625A607B681B681A6864
:104CF0007B681B6842F400721A607B6800221A63AA
:104D00007B68202283F83D207B6893F83E30DBB23D
:104D1000402B07D17B68002283F83E207868FFF79C
:104D2000D2FE06E07B68002283F83E207868FFF719
:104D30008AFE00BF1037BD4680BD80B584B000AF8D
:104D400078607B6893F83D30FB737B681B6D002BAC
:104D50001DD17B68DB6C012B0BD17B689B6CDAB2BD
:104D60007B681B681A617B681B6D9A1C7B681A65DF
:104D700077E07B689B6C9BB21B12DAB27B681B6886
:104D80001A617B681B6D5A1C7B681A6569E07B6839
:104D90001B6D012B0BD17B689B6CDAB27B681B68A7
:104DA0001A617B681B6D5A1C7B681A6559E07B6829
:104DB0001B6D022B52D1FB7B222B0DD17B681B6814
:104DC0001A687B681B6842F480721A607B681B6DEE
:104DD0005A1C7B681A6544E07B685B8D9BB2002B94
:104DE00015D0FB7B212B12D17B685B6A1A787B681C
:104DF0001B681A617B685B6A5A1C7B685A627B6815
:104E00005B8D9BB2013B9AB27B685A8529E07B6837
:104E10005B8D9BB2002B24D1FB7B212B21D17B68A6
:104E20001B685A687B681B6822F4E0625A607B68E2
:104E30001B681A687B681B6842F400721A607B6802
:104E400000221A637B68202283F83D207B680022C1
:104E500083F83E207868FFF736FE02E07868FFF7B7
:104E6000C5FB00BF1037BD4680BD80B584B000AF24
:104E700078607B6893F83D30DBB2222B40F0B9803C
:104E80007B68DB6AFB607B685B8D9BB2BB60BB6849
:104E9000032B21D97B681B681A697B685B6AD2B2D5
:104EA0001A707B685B6A5A1C7B685A627B685B8DF0
:104EB0009BB2013B9AB27B685A857B685B8D9BB243
:104EC000032B40F096807B681B685A687B681B68E0
:104ED00022F480625A608CE07B68DB6A022B7FD010
:104EE000BB68012B02D0BB68002B79D1786801F038
:104EF0003DF80346002B4CD17B681B681A687B6821
:104F00001B6822F480621A607B681B685A687B68A1
:104F10001B6822F4E0625A607B681B681A697B6830
:104F20005B6AD2B21A707B685B6A5A1C7B685A62F1
:104F30007B685B8D9BB2013B9AB27B685A857B682C
:104F4000202283F83D207B6893F83E30DBB2402B73
:104F50000AD17B68002283F83E207B6800221A6316
:104F60007868FFF7BAFD44E07B68002283F83E20B2
:104F7000FB68082B02D0FB68202B03D17B68002242
:104F80001A6302E07B6812221A637868FFF765FDF6
:104F90002FE07B681B685A687B681B6822F4E0621C
:104FA0005A607B681B681A697B685B6AD2B21A70A8
:104FB0007B685B6A5A1C7B685A627B685B8D9BB21C
:104FC000013B9AB27B685A857B68202283F83D209A
:104FD0007B68002283F83E207868FFF788FD08E0B0
:104FE0007B681B685A687B681B6822F480625A6081
:104FF000FFE700BF1037BD4680BD80B584B000AF6D
:1050000078607B68DB6AFB607B685B8D9BB2042BFE
:105010001BD17B681B685A687B681B6822F480621E
:105020005A607B681B681A697B685B6AD2B21A7027
:105030007B685B6A5A1C7B685A627B685B8D9BB29B
:10504000013B9AB27B685A85C4E07B685B8D9BB25A
:10505000032B29D17B681B685A687B681B6822F484
:1050600080625A60FB68042B0AD0FB68022B07D0D1
:105070007B681B681A687B681B6822F480621A6070
:105080007B681B681A697B685B6AD2B21A707B689E
:105090005B6A5A1C7B685A627B685B8D9BB2013BE2
:1050A0009AB27B685A8595E07B685B8D9BB2022B38
:1050B0007DD1FB68012B02D0FB68102B08D17B68E7
:1050C0001B681A687B681B6822F480621A6016E00D
:1050D000FB68042B02D0FB68022B08D17B681B689D
:1050E0001A687B681B6842F480621A6007E07B687C
:1050F0001B681A687B681B6842F400721A607B6840
:105100001B681A697B685B6AD2B21A707B685B6A3B
:105110005A1C7B685A627B685B8D9BB2013B9AB2DA
:105120007B685A857B681B681A697B685B6AD2B2A8
:105130001A707B685B6A5A1C7B685A627B685B8D5D
:105140009BB2013B9AB27B685A857B681B685A68A0
:105150007B681B6822F440725A607B68202283F8C7
:105160003D207B6893F83E30DBB2402B0AD17B6850
:10517000002283F83E207B6800221A637868FFF7DC
:10518000ACFC27E07B68002283F83E20FB68082BFC
:1051900002D0FB68202B03D17B6800221A6302E057
:1051A0007B6812221A637868FFF757FC12E07B686D
:1051B0001B681A697B685B6AD2B21A707B685B6A8B
:1051C0005A1C7B685A627B685B8D9BB2013B9AB22A
:1051D0007B685A8500BF1037BD4680BD80B483B060
:1051E00000AF78607B6893F83E30DBB2402B17D17C
:1051F0007B681B6D002B09D17B685B6CDBB21A46A8
:105200007B681B6802F0FE021A6167E07B685B6CDA
:10521000DBB243F00103DAB27B681B681A615DE020
:105220007B681B69B3F5804F33D17B6893F83D30C1
:10523000DBB2212B09D17B685B6CDBB21A467B6841
:105240001B6802F0FE021A6108E07B685B6CDBB24F
:1052500043F00103DAB27B681B681A617B685B6B01
:10526000002B04D07B685B6BDB6B002B08D17B6869
:105270009B6B002B32D07B689B6BDB6B002B2DD0A4
:105280007B681B685A687B681B6842F400625A603E
:1052900024E07B681B6D002B0ED17B685B6C9BB29E
:1052A000DB11DBB203F00603DBB263F00F03DAB20B
:1052B0007B681B681A6111E07B681B6D012B0DD1A7
:1052C0007B685B6C9BB2DB11DBB203F00603DBB2E5
:1052D00063F00E03DAB27B681B681A6100BF0C37FB
:1052E000BD465DF8047B704780B483B000AF786042
:1052F0007B685B6CDAB27B681B681A617B685B6BEE
:10530000002B04D07B685B6BDB6B002B08D17B68C8
:105310009B6B002B0CD07B689B6BDB6B002B07D04F
:105320007B681B685A687B681B6842F400625A609D
:1053300000BF0C37BD465DF8047B704780B491B068
:1053400000AF78607B6893F83E3087F83F307B6829
:10535000DB6ABB637B681B6B7B637B6893F83D30C8
:10536000DBB2222B40F069817B681B6D002B0FD1D3
:1053700097F83F30402B0BD100233B637B681B68C1
:105380005B693B637B681B689B693B633B6B60E1CC
:105390007B681B6D002B1DD17B681B69B3F5404FEB
:1053A00018D10023FB627B681B685B69FB627B682A
:1053B0001B689B69FB62FB6A7B681B681A687B68D9
:1053C0001B6842F480721A607B681B6D5A1C7B68F4
:1053D0001A653EE17B685B8D9BB2002B13D10023E5
:1053E000BB627B681B685B69BB627B681B689B69EF
:1053F000BB62BB6A7B681B681A687B681B6842F4E7
:1054000000721A6015E17B685B8D9BB2012B40F046
:105410008A80BB6B13F5803F37D17B681B681A68A5
:105420007B681B6822F480621A607B681B685B687B
:1054300003F40063B3F5006F13D17B681B681A682F
:105440007B681B6822F480621A6000237B627B68A1
:105450001B685B697B627B681B689B697B627B6AFC
:10546000E7E000233B627B681B685B693B627B680B
:105470001B689B693B623B6A7B681B681A687B6898
:105480001B6842F400721A60D3E0BB6B082B2ED06D
:10549000BB6B202B2BD07B6B122B02D1BB6B012B58
:1054A00025D1BB6B042B0ED0BB6B022B0BD0BB6B7F
:1054B000102B08D07B681B681A687B681B6822F475
:1054C00080621A6007E07B681B681A687B681B684B
:1054D00042F480621A600023FB617B681B685B6991
:1054E000FB617B681B689B69FB61FB69A1E07B68D2
:1054F0001B681A687B681B6822F480621A600023AC
:10550000BB617B681B685B69BB617B681B689B69CF
:10551000BB61BB697B681B681A687B681B6842F4C7
:1055200000721A6085E07B685B8D9BB2022B4DD1C7
:10553000BB6B042B16D0BB6B022B13D0BB6B102B99
:1055400010D07B681B681A687B681B6822F4806235
:105550001A607B681B681A687B681B6842F40062EB
:105560001A6007E07B681B681A687B681B6842F456
:1055700080621A607B681B685B6803F40063B3F5A4
:10558000006F17D1BB6B13F5803F0BD0BB6B012BAA
:1055900008D0BB6B082B05D0BB6B102B02D0BB6BAC
:1055A000202B07D17B681B685A687B681B6842F414
:1055B00080525A6000237B617B681B685B697B615A
:1055C0007B681B689B697B617B6932E07B681B6839
:1055D0001A687B681B6842F480621A607B681B68EB
:1055E0005B6803F40063B3F5006F17D1BB6B13F571
:1055F000803F0BD0BB6B012B08D0BB6B082B05D0B9
:10560000BB6B102B02D0BB6B202B07D17B681B68B8
:105610005A687B681B6842F480525A6000233B61E1
:105620007B681B685B693B617B681B689B693B61AE
:105630003B697B6800221A650BE00023FB607B68F6
:105640001B685B69FB607B681B689B69FB60FB6890
:10565000FFE700BF4437BD465DF8047B704780B567
:1056600084B000AF78607B6893F83D30FB737B6853
:105670005B8D9BB2002B2BD07B685B6A1A787B68B2
:105680001B681A617B685B6A5A1C7B685A627B687C
:105690005B8D9BB2013B9AB27B685A857B685B8DC0
:1056A0009BB2002B14D1FB7B292B11D17B681B688B
:1056B0005A687B681B6822F480625A607B682122EA
:1056C0001A637B68282283F83D207868FFF7CFF9BA
:1056D00000BF1037BD4680BD80B483B000AF786096
:1056E0007B685B8D9BB2002B11D07B685B6A1A785C
:1056F0007B681B681A617B685B6A5A1C7B685A620C
:105700007B685B8D9BB2013B9AB27B685A8500BF78
:105710000C37BD465DF8047B704780B584B000AFA0
:1057200078607B6893F83D30FB737B685B8D9BB240
:10573000002B2CD07B681B681A697B685B6AD2B22D
:105740001A707B685B6A5A1C7B685A627B685B8D47
:105750009BB2013B9AB27B685A857B685B8D9BB29A
:10576000002B14D1FB7B2A2B11D17B681B685A6854
:105770007B681B6822F480625A607B6822221A636D
:105780007B68282283F83D207868FFF77AF900BF0C
:105790001037BD4680BD80B483B000AF78607B68B1
:1057A0005B8D9BB2002B12D07B681B681A697B68EB
:1057B0005B6AD2B21A707B685B6A5A1C7B685A6259
:1057C0007B685B8D9BB2013B9AB27B685A8500BFB8
:1057D0000C37BD465DF8047B704780B584B000AFE0
:1057E000786039600023FB737B6893F83D30DBB24F
:1057F00003F02803282B27D17B681B685A687B6835
:105800001B6822F480625A603B689B0803F0010326
:10581000002B01D10123FB733B68DB0903F001037B
:10582000002B03D17B68DB68BB8102E07B689B694E
:10583000BB817B68002283F83C20BA89FB7B194638
:105840007868FFF728F90EE00023BB607B681B68CF
:105850005B69BB607B681B689B69BB60BB687B68DE
:10586000002283F83C2000BF1037BD4680BD0000F9
:1058700080B584B000AF78607B6893F83D30FB73EF
:105880007B681B685A687B681B6822F4E0625A6078
:105890000023BB607B681B685B69BB607B681B681F
:1058A0001A687B681B6842F001021A60BB687B685B
:1058B0001B681A687B681B6822F480621A607B6828
:1058C0001B685B6803F40063B3F5006F72D1FB7B68
:1058D000222B02D0FB7B2A2B35D17B689B6B1B686C
:1058E0005B689AB27B685A857B685B8D9BB2002BA4
:1058F00005D07B681B6C43F004027B681A647B68EC
:105900001B685A687B681B6822F400625A607B68D7
:105910009B6B1846FEF761FB0346012B49D07B6861
:105920009B6B694A1A657B689B6B1846FEF733FBD5
:105930000346002B3DD07B689B6B1B6D7A68926B96
:105940001046984735E07B685B6B1B685B689AB2D2
:105950007B685A857B685B8D9BB2002B05D07B688A
:105960001B6C43F004027B681A647B681B685A68EE
:105970007B681B6822F400625A607B685B6B184688
:10598000FEF72BFB0346012B14D07B685B6B4E4A62
:105990001A657B685B6B1846FEF7FDFA0346002B21
:1059A00008D07B685B6B1B6D7A68526B104698471A
:1059B00000E000BF7B685B8D9BB2002B3ED07B6814
:1059C0001B685B6903F00403042B12D17B681B681E
:1059D0001A697B685B6AD2B21A707B685B6A5A1C70
:1059E0007B685A627B685B8D9BB2013B9AB27B6895
:1059F0005A857B681B685B6903F04003402B12D11A
:105A00007B681B681A697B685B6AD2B21A707B6814
:105A10005B6A5A1C7B685A627B685B8D9BB2013B58
:105A20009AB27B685A857B685B8D9BB2002B05D050
:105A30007B681B6C43F004027B681A647B681B6CF8
:105A4000002B03D0786800F0B7F839E0FB7B2A2BF5
:105A500009D17B6800221A637B68282283F83D20E5
:105A60007868FFF70EF87B6893F83D30DBB2282B9F
:105A700011D17B68154ADA627B6800221A637B6861
:105A8000202283F83D207B68002283F83E2078683E
:105A9000FFF70FF814E07B681B6B222B02D0FB7B17
:105AA000222B0DD17B6800221A637B68202283F8A9
:105AB0003D207B68002283F83E207868FEF7E1FFF6
:105AC00000BF1037BD4680BD1D5E00080000FFFF0F
:105AD00080B584B000AF78607B6893F83D30FB738D
